:100000000C941A010C9442010C9442010C9442018C
:100010000C9442010C9442010C9442010C94420154
:100020000C9442010C9442010C9442010C94420144
:100030000C9442010C9442010C9442010C94420134
:100040000C94C2100C9442010C9490100C946A1001
:100050000C9442010C9442010C9442010C94420114
:100060000C940C110C94420100407A10F35A00A039
:10007000724E18090010A5D4E80000E87648170071
:1000800000E40B54020000CA9A3B000000E1F505B1
:10009000000080969800000040420F000000A086FB
:1000A00001000000102700000000E803000000002D
:1000B0006400000000000A000000000001000000D1
:1000C00000002C76D888DC674F0823DFC1DFAE59EB
:1000D000E1B1B796E5E3E453C63AE651997696E87E
:1000E000E6C28426EB898C9B62ED407C6FFCEFBC02
:1000F0009C9F40F2BAA56FA5F490055A2AF75C932D
:100100006B6CF9676DC11BFCE0E40D47FEF520E662
:10011000B500D0ED902E0300943577050080841E45
:10012000080000204E0A000000C80C333333330FA0
:10013000986E12831141EF8D2114893BE65516CF3D
:10014000FEE6DB18D1844B381BF77C1D901DA4BB49
:10015000E424203284725E228100C9F124ECA1E5FE
:100160003D2700000000240027002A0000000000B6
:10017000250028002B0000000008000201000003F9
:1001800004070000000000000000436F6E6E65630E
:1001900074204F4B00576946692E2E2E00436F6E18
:1001A0006E656374696E6720746F00417474656D69
:1001B0007074696E6720746F20636F6E6E65637410
:1001C00020746F20535349443A2000506C6561738A
:1001D0006520757067726164652074686520666962
:1001E000726D776172650057694669207368696549
:1001F0006C64206E6F742070726573656E7400009D
:100200000000002300260029000404040404040460
:1002100004020202020202030303030303010204B5
:100220000810204080010204081020010204081078
:1002300020002B1211241FBECFEFD8E0DEBFCDBFB0
:1002400024E0A8EDB2E001C01D92AC3DB207E1F799
:1002500012E0A0E0B1E0E2EFF0E402C005900D9200
:10026000A83DB107D9F711E0CAE1D1E004C0219758
:10027000FE010E94761EC931D107C9F70E94E01223
:100280000C9477200C940000CF92DF92EF92FF92B3
:10029000CF93DF93B091C404A0E08111AB2F809184
:1002A000C50490E0880F991FAC0141505E4FC0908B
:1002B000CA04D090CB04E090CC04F090CD0430E0A0
:1002C00020E0FA01C591D491E881B90190E080E085
:1002D000EB23EA130AC02F5F3F4F6C157D058E0597
:1002E0009F0578F36FEF7FEFCB01DF91CF91FF9008
:1002F000EF90DF90CF90089508950895DB01149654
:100300004D915C9115976D917C91DC01ED91FC9183
:100310000280F381E02D0994EF92FF920F931F93D7
:10032000CF93DF938C017B01D0E0C0E0F701EC0FAD
:10033000FD1F6491662361F0D801ED91FC9101905D
:10034000F081E02DC8010995892B11F02196EECF9F
:10035000CE01DF91CF911F910F91FF90EF90089503
:10036000AF92BF92CF92DF92EF92FF920F931F93C3
:10037000CF93DF936C017B018B01040F151FEB0101
:100380005E01AE18BF08C017D10759F06991D601B8
:10039000ED91FC910190F081E02DC6010995892B2A
:1003A00079F7C501DF91CF911F910F91FF90EF90E9
:1003B000DF90CF90BF90AF900895FC01538D448D96
:1003C000252F30E0842F90E0821B930B541710F000
:1003D000CF96089501970895FC01918D828D98170D
:1003E00061F0A28DAE0FBF2FB11D5D968C91928DE5
:1003F0009F5F9F73928F90E008958FEF9FEF089516
:10040000FC01918D828D981731F0828DE80FF11DDE
:10041000858D90E008958FEF9FEF0895FC01918DF9
:10042000228D892F90E0805C9F4F821B91098F73F2
:10043000992708958BED93E00E940E0221E0892B0D
:1004400009F420E0822F089580E090E0892B29F0C4
:100450000E941A0281110C9400000895FC01A48DE1
:10046000A80FB92FB11DA35ABF4F2C91848D90E0D6
:1004700001968F739927848FA689B7892C93A089B9
:10048000B1898C91837080648C93938D848D981343
:1004900006C00288F389E02D80818F7D80830895D6
:1004A000EF92FF920F931F93CF93DF93EC0181E0C4
:1004B000888F9B8D8C8D98131AC0E889F98980816B
:1004C00085FF15C09FB7F894EE89FF896083E8899E
:1004D000F98980818370806480839FBF81E090E090
:1004E000DF91CF911F910F91FF90EF900895F62E1D
:1004F0000B8D10E00F5F1F4F0F731127E02E8C8DB7
:100500008E110CC00FB607FCFACFE889F9898081FB
:1005100085FFF5CFCE010E942E02F1CFEB8DEC0FBF
:10052000FD2FF11DE35AFF4FF0829FB7F8940B8F18
:10053000EA89FB8980818062CFCFCF93DF93EC0182
:10054000888D8823B9F0AA89BB89E889F9898C91BB
:1005500085FD03C0808186FD0DC00FB607FCF7CF77
:100560008C9185FFF2CF808185FFEDCFCE010E9477
:100570002E02E9CFDF91CF910895833081F028F4E6
:10058000813099F08230A9F008958730A9F0883041
:10059000C9F08430B1F4809180008F7D03C08091D8
:1005A00080008F7780938000089584B58F7784BD15
:1005B000089584B58F7DFBCF8091B0008F778093B5
:1005C000B00008958091B0008F7DF9CFCF93DF9375
:1005D000282F30E0F901EA58FE4F8491F901E35EDB
:1005E000FD4FD491F901E75FFD4FC491CC23A1F0F9
:1005F00081110E94BD02EC2FF0E0EE0FFF1FE150D1
:10060000FE4FA591B491EC91ED2381E090E009F4C7
:1006100080E0DF91CF91089580E090E0FACF1F93C2
:10062000CF93DF93282F30E0F901EA58FE4F8491F1
:10063000F901E35EFD4FD491F901E75FFD4FC491ED
:10064000CC23A9F0162F81110E94BD02EC2FF0E0FF
:10065000EE0FFF1FE459FE4FA591B4918FB7F894A8
:10066000EC91111108C0D095DE23DC938FBFDF9190
:10067000CF911F910895DE2BF8CFCF93DF9390E0B9
:10068000FC01E35EFD4F2491875F9D4FFC01849147
:100690008823C9F090E0880F991FFC01EE59FE4FA6
:1006A000A591B491FC01E459FE4FC591D49161111B
:1006B0000DC09FB7F8948C91209582238C938881EC
:1006C000282328839FBFDF91CF910895623051F492
:1006D0009FB7F8943C91822F809583238C93E88177
:1006E0002E2BEFCF8FB7F894EC912E2B2C938FBF3E
:1006F000EACF3FB7F8948091940390919503A0912D
:100700009603B091970326B5A89B05C02F3F19F01B
:100710000196A11DB11D3FBFBA2FA92F982F882781
:10072000BC01CD01620F711D811D911D42E0660F5C
:10073000771F881F991F4A95D1F708958F929F922E
:10074000AF92BF92CF92DF92EF92FF924B015C018A
:100750000E9479036B017C010E9479036C197D0969
:100760008E099F09683E734081059105A8F321E039
:10077000821A9108A108B10888EEC80E83E0D81E3D
:10078000E11CF11C81149104A104B10429F7FF902C
:10079000EF90DF90CF90BF90AF909F908F90089593
:1007A0002FB7F89460919003709191038091920318
:1007B000909193032FBF0895CF92DF92EF92FF9213
:1007C0000F931F93CF93DF93CDB7DEB7C054D140C3
:1007D0000FB6F894DEBF0FBECDBF0E94D0030091CC
:1007E000C6041091C7042091C8043091C9046B015C
:1007F0007C01C01AD10AE20AF30A97018601003D82
:1008000017402105310590F48091CE04C05CDE4F85
:100810000FB6F894DEBF0FBECDBFDF91CF911F9111
:100820000F91FF90EF90DF90CF9008956093C604F2
:100830007093C7048093C8049093C9041092C104B4
:100840001092C0041092BF041092BE041092BD0416
:1008500062E08091C2040E943D0361E070E080E0AC
:1008600090E00E949E0361E08091C2040E943D03DB
:1008700060E08091C2040E940F038091C3048551FF
:10088000823020F58BE291E10197F1F762E08091EF
:10089000C2040E943D038091CF0490E08230910514
:1008A00038F0880F991F880F991F05970197F1F766
:1008B000F89480E00E9444016F3F7F4F8F4F9F4F1D
:1008C00061F41092CE04789480E0A0CF64E170E0EF
:1008D00080E090E00E949E03D9CF81E00E94440115
:1008E0006F3F7F4F8F4F9F4F61F38E010F5F1F4F01
:1008F0006E012FEBC21A2EEFD20A780180E00E941F
:100900004401F701608371838283938381E00E94B5
:100910004401F7016483758386839783F8E0EF0EC3
:10092000F11CEC14FD0451F7789430E020E0F8015C
:10093000C080D180E280F3804481558166817781D7
:10094000FFEFCF16DF06EF06FF0631F04F3F8FEFC8
:1009500058076807780719F41092CE04B5CFF9014B
:1009600083E0F595E7958A95E1F7E354FB4F8081A5
:10097000880FC416D506E606F70610F180832F5FB0
:100980003F4F085F1F4F2832310589F64091C1045F
:100990002091BD048091BE04280F3327331F80911E
:1009A000BF04280F311D8091C004820F932F911D29
:1009B00099274817190681F681E08093CE0426CF47
:1009C0008160DCCF87E00E94E602892BD9F7089589
:1009D000CF93DF931F92CDB7DEB7898389818EBD18
:1009E00000000DB407FEFDCF8EB52AE030E0000018
:1009F00021503109E1F70F90DF91CF910895CF9306
:100A0000DF93D82FC62F80EE0E94E80483E290E0A7
:100A10000197F1F78D2F0E94E8048C2F0E94E804C3
:100A2000C11105C08EEEDF91CF910C94E804DF91E7
:100A3000CF910895DF92EF92FF920F931F93CF9380
:100A4000DF93D82EE92E8B01F42E812F0E94E8042B
:100A5000802F0E94E804CD2DDE2D0C0F1D1FC01726
:100A6000D10721F089910E94E804F9CF81E0F812C2
:100A70000AC08EEEDF91CF911F910F91FF90EF9002
:100A8000DF900C94E804DF91CF911F910F91FF90BC
:100A9000EF90DF900895DF92EF92FF920F931F93F4
:100AA000CF93DF937C01C62FD42E862F0E94E804BB
:100AB0008701D0E0C8018E199F098C179D0734F477
:100AC000F80181918F010E94E804F4CFF1E0DF1278
:100AD0000AC08EEEDF91CF911F910F91FF90EF90A2
:100AE000DF900C94E804DF91CF911F910F91FF905C
:100AF000EF90DF900895CF93DF93EC018FEF0E948A
:100B0000E80488838AE090E000000197E9F7DF912C
:100B1000CF910895CF93DF931F92CDB7DEB719829F
:100B2000CE0101960E947B0589810F90DF91CF91C4
:100B30000895CF93DF93C9EED3E00E948A058F3EDC
:100B400069F0219711F0803EC1F721E090E0803EEE
:100B500009F020E0822FDF91CF9108958FEF9FEF72
:100B6000FACFCF92DF92EF92FF920F931F93CF9322
:100B7000DF931F92CDB7DEB7182F6B017A01198270
:100B80000E949905892B61F490E080E00F90DF913D
:100B9000CF911F910F91FF90EF90DF90CF9008952C
:100BA000CE0101960E947B05106889811813ECCF55
:100BB000CE0101960E947B058981813029F78FEF54
:100BC0000E94E804F701808310E000E0F7018081D3
:100BD0008017110649F044F0C601800F911F0E9452
:100BE0007B050F5F1F4FF2CFCE0101960E947B0560
:100BF00081E090E0CBCFCF92DF92EF92FF920F9304
:100C00001F93CF93DF931F92CDB7DEB7182F7B01D1
:100C10006A0119820E949905892B61F490E080E0B5
:100C20000F90DF91CF911F910F91FF90EF90DF9088
:100C3000CF900895CE0101960E947B0510688981AE
:100C40001813ECCF0E948A058823B1F08FEF0E9421
:100C5000E804F60180838701F6012081C8018E191E
:100C60009F092817190641F03CF08FEF0E94E80415
:100C7000F80181938F01F0CFCE0101960E947B0590
:100C800081E090E0CDCF61E08AE00C940F0360E05A
:100C90008AE00C940F03CF93CFB7F894809182032E
:100CA000811127C0E3E1F2E08491E7E2F2E0949160
:100CB000E82FF0E0EE0FFF1FEE59FE4FA591B49123
:100CC000EC91E92321F461E08AE00E940F0361E0E6
:100CD0008AE00E943D038CB580618CBD8CB5806438
:100CE0008CBD61E08DE00E943D0361E08BE00E94DD
:100CF0003D03809182038F5F80938203CFBF61E0C9
:100D00008AE00E943D0360E087E00E943D0361E0CD
:100D100089E00E943D0361E08AE00E940F0361E0E8
:100D20008AE00E940F0360E089E0CF910C940F03EA
:100D3000CF93DF9300D0CDB7DEB78091C903811187
:100D400005C00E944B0681E08093C9030E94E20423
:100D50000E94470660E080E20E94FF040E94E204D5
:100D60008FEF89831A82AE014E5F5F4FBE016F5FC6
:100D70007F4F80E20E94B1050E94430689810F9057
:100D80000F90DF91CF910895FF920F931F93CF9310
:100D9000DF9300D01F92CDB7DEB78B838B01F42E8B
:100DA00080918103811105C00E944B0681E08093F0
:100DB00081030E94E2040E94470662E08CE20E94E6
:100DC000FF0440E061E0CE0103960E944B0582E003
:100DD0000E94E80480E00E94E8048F2D0E94E8044D
:100DE0008EEE0E94E8040E94E20419821A82AE018B
:100DF0004E5F5F4FBE016F5F7F4F8CE20E94FB052D
:100E00000E9443068A81882369F08981F8018083E2
:100E100081E00F900F900F90DF91CF911F910F9174
:100E2000FF90089580E0F5CFCF93DF9300D01F921D
:100E3000CDB7DEB78B8380918103811105C00E94FD
:100E40004B0681E0809381030E94E2040E944706E2
:100E500061E08FE20E94FF0441E061E0CE01039671
:100E60000E944B050E94E20419821A82AE014E5F75
:100E70005F4FBE016F5F7F4F8FE20E94B1050E94FE
:100E8000430689810F900F900F90DF91CF910895C5
:100E900021E0FC0184858F3F09F420E0822F089532
:100EA000FC0184858F3F71F00E941407843038F074
:100EB0009BEF980F933018F091E08A3009F490E09E
:100EC000892F089580E00895EF92FF920F931F936A
:100ED000CF93DF9300D01F92CDB7DEB7FC0194858E
:100EE0009F3F09F44EC08F019B8380918103811144
:100EF00005C00E944B0681E0809381030E94E204BA
:100F00000E94470661E08EE20E94FF0441E061E03A
:100F1000CE0103960E944B050E94E2041A821982B8
:100F2000AE014F5F5F4FBE016E5F7F4F8EE20E944A
:100F3000B1050E944306D8011C96EC91F0E0EE0F3B
:100F4000FF1FE050FF4F8FEF9FEF9183808392E36D
:100F5000E92EF12CF80184858F3F79F00E94140767
:100F6000882359F0F1E0EF1AF10839F064E670E0F7
:100F700080E090E00E949E03EDCF8FEFD8011C9699
:100F80008C930F900F900F90DF91CF911F910F9145
:100F9000FF90EF90089508950F931F93CF93DF93E1
:100FA0001F92CDB7DEB78C01DC01ED91FC9100847E
:100FB000F185E02D0995892B81F041E0BE016F5F3D
:100FC0007F4FF80184850E94C406898190E00F90CC
:100FD000DF91CF911F910F9108958FEF9FEFF7CF82
:100FE000CF92DF92EF92FF920F931F93CF93DF93F5
:100FF00000D0CDB7DEB76B017A01FC0184858A830E
:1010000080918103811105C00E944B0681E080938D
:1010100081030E94E2040E94470661E085E40E9489
:10102000FF0441E061E070E0CE0102960E941A05E3
:101030000E94E20419820E949905892B29F1CE01B0
:1010400001960E947B058981853CF1F40E948A0506
:101050008823B1F08FEF0E94E804E82E8FEF0E9402
:10106000E804FE2CE82E8601CE0CDF1CC016D1064B
:1010700039F08FEF0E94E804F80181938F01F6CFD9
:10108000CE0101960E947B050E94430681E090E01C
:10109000EF2811F090E080E09195819591090F90F3
:1010A0000F90DF91CF911F910F91FF90EF90DF9004
:1010B000CF9008950F931F93CF93DF931F92CDB7D7
:1010C000DEB78C01DC01ED91FC910084F185E02D0F
:1010D0000995892B81F040E0BE016F5F7F4FF801D9
:1010E00084850E94C406898190E00F90DF91CF91A2
:1010F0001F910F9108958FEF9FEFF7CFCF93DF935D
:1011000000D000D0CDB7DEB7FC0184858F3F89F1D8
:101110008C8380918103811105C00E944B0681E080
:10112000809381030E94E2040E94470661E08BE203
:101130000E94FF0441E061E0CE0104960E944B054D
:101140000E94E2041B821A821982AE014D5F5F4F3A
:10115000BE016F5F7F4F8BE20E94B1050E94430684
:1011600089819A810F900F900F900F90DF91CF910E
:10117000089590E080E0F6CFBF92CF92DF92EF9299
:10118000FF920F931F93CF93DF9300D000D0CDB782
:10119000DEB76C018B017A01FC0184858430B0F0EC
:1011A00081E090E0F60193838283F12CE12CC7016A
:1011B0000F900F900F900F90DF91CF911F910F9193
:1011C000FF90EF90DF90CF90BF900895452B41F3B3
:1011D0008C8380918103811105C00E944B0681E0C0
:1011E000809381030E94E2040E94470662E084E447
:1011F0000E94FF0440E061E070E0CE0104960E948E
:101200001A0541E0B701C8010E941A050E94E204D4
:101210001A821982AE014F5F5F4FBE016E5F7F4F32
:1012200084E40E94FB050E9443068981882309F417
:10123000B7CF8A81813009F0B3CFF60184858B83E3
:101240001A82198210E000E0BB24B39480918103DC
:10125000811104C00E944B06B09281030E94E204F7
:101260000E94470661E08AE20E94FF0441E061E0DB
:10127000CE0103960E944B050E94E204AE014F5F2F
:101280005F4FBE016E5F7F4F8AE20E94B1050E94F0
:1012900043068A81811113C00F5F1F4F64E670E01F
:1012A00080E090E00E949E038A81811103C0093191
:1012B000110560F20931110509F472CF78CF10E001
:1012C00000E0F2CFCF93DF931F92CDB7DEB76983F3
:1012D000DC01ED91FC910280F381E02D41E050E0D2
:1012E000BE016F5F7F4F09950F90DF91CF910895F9
:1012F000089585ED8093BC008091BC0084FDFCCFF7
:1013000010929E03089520911803260F3327331F50
:1013100021323105ECF420919E03FC0190E080E045
:10132000243069F082E00895A09118032191AC0166
:1013300048505D4FA40FB52FB11D2C930196861711
:1013400098F380911803680F6093180380E0089564
:1013500081E00895E091A2038091A103E81730F4A1
:10136000F0E0E852FD4F808190E008958FEF9FEF0D
:1013700008959091A2038091A1032FEF3FEF98175A
:1013800048F4E92FF0E0E852FD4F208130E09F5F04
:101390009093A203C90108958091A1039091A203A3
:1013A000891B990B0895CF92DF92EF92FF920F93D2
:1013B0001F93CF93DF937C01CB018A0120915F03C0
:1013C000222389F0EB016B01C40ED51ECC15DD057F
:1013D00069F06991D701ED91FC910190F081E02DC8
:1013E000C7010995F3CF642F0E948309C801DF91DB
:1013F000CF911F910F91FF90EF90DF90CF900895C4
:10140000CF93DF931F92CDB7DEB7698320915F033F
:101410002223F9F020919F03203258F021E030E0A0
:10142000FC013383228390E080E00F90DF91CF9125
:1014300008958091A003E82FF0E0E05AFC4F9981D5
:1014400090838F5F8093A00380939F0381E090E05F
:10145000ECCF61E0CE0101960E948309F7CFCF93D4
:10146000FC01C48121E020935F03C09380031092AC
:10147000A00310929F038385682B86E994E00E9465
:10148000000A90919F03913208F03FC080919E0323
:101490008111FCCF82E080939E0381E080939D03C5
:1014A0008FEF80935E0310925D0390935C03A0E640
:1014B000B3E0ECE3F3E080E098132FC010923B031D
:1014C00080913B03CC0FC82BC0933B0380919C03BE
:1014D000813039F510929C0380913B038093BB00CF
:1014E0008091BC0083FDF8CF85EC8093BC00809197
:1014F0009E038230E1F380915E038F3F31F0809153
:101500005E03803211F080915E031092A00310926E
:101510009F0310925F03CF9108952D9121938F5FC8
:10152000CBCF85EEE2CF90E080E00895FB01019003
:101530000020E9F73197AF01461B570BDC01ED9115
:10154000FC910280F381E02D09948F929F92AF92DB
:10155000BF92EF92FF920F931F93CF93DF93CDB77C
:10156000DEB7A1970FB6F894DEBF0FBECDBF7C01EA
:10157000FA01CB0119A2223008F42AE08E010F5D96
:101580001F4F822E912CB12CA12CBF01A5019401DB
:101590000E94541EF901CA016A300CF5605DD80141
:1015A0006E938D01232B242B252B79F790E080E07F
:1015B000109721F0BD01C7010E94960AA1960FB6AF
:1015C000F894DEBF0FBECDBFDF91CF911F910F9179
:1015D000FF90EF90BF90AF909F908F900895695CBF
:1015E000DECF6DEA71E00C94960ACF93DF93BC01D5
:1015F00082EA94E00E947E01EC0182EA94E00E947B
:10160000F10A8C0F9D1FDF91CF9108950F931F93C7
:10161000CF93DF938C01D0E0C0E06115710519F024
:101620000E94960AEC01C8010E94F10A8C0F9D1FCE
:10163000DF91CF911F910F9108958F929F92AF925A
:10164000BF92CF92DF92EF92FF920F931F93CF93AF
:10165000DF937C01EB016C0182E0C80ED11C4701D5
:10166000E5E08E0E911C10E000E0F60141916F0163
:1016700050E070E060E02AE0CE010E94A50A5C0123
:10168000E881F9810190F081E02D6EE2CE010995AB
:101690008A0D9B1D080F191FC814D90431F7F701D3
:1016A000458150E070E060E02AE0CE010E94A50A8A
:1016B000800F911FDF91CF911F910F91FF90EF90BD
:1016C000DF90CF90BF90AF909F908F900895CF9272
:1016D000DF92EF92FF920F931F93CF93DF93CDB7DB
:1016E000DEB728970FB6F894DEBF0FBECDBF8C01D2
:1016F000F42EE52EE0E0F1E090E080E021913191E0
:101700002F3F3F4F29F0019684309105B9F78FEFB5
:10171000D8011C968C938F3F09F48EC0FB01428147
:1017200053816481758149835A836B837C83888765
:101730001D8280918103811105C00E944B0681E0CA
:10174000809381030E94E2040E94470664E08DE2D8
:101750000E94FF0440E064E0CE0101960E944B0528
:1017600082E00E94E8048E2D0E94E8048F2D0E94E2
:10177000E80440E061E0CE0108960E944B0541E09C
:1017800061E0CE0105960E944B050E94E2041F8293
:101790001E82AE014A5F5F4FBE01695F7F4F8DE2DF
:1017A0000E94B1050E944306D8011C968C9190E0DE
:1017B000FC01EE0FFF1FE050FF4F918380830E94DA
:1017C000D0036B017C01D801ED91FC910688F7896B
:1017D000E02DC8010995811112C00E94D0036C1937
:1017E0007D098E099F09603177428105910538F4A2
:1017F00061E070E080E090E00E949E03E4CFD801B9
:10180000ED91FC910688F789E02DC801099521E04A
:1018100090E0811101C020E0822F28960FB6F89445
:10182000DEBF0FBECDBFDF91CF911F910F91FF9013
:10183000EF90DF90CF90089560EB71E08BED93E037
:101840000E94060B80E090E0E8CF0F931F93CF93A8
:101850008C01C62F0E942F0A6C2F6460C8010E9461
:101860002F0A6C2F6B7FC8010E942F0A83EC90E037
:101870000197F1F7CF911F910F9108950F931F9347
:10188000CF93DF938C01D62FC42F607F642B0E94EF
:10189000250C80E1D89FB00111246C2BC801DF9189
:1018A000CF911F910F910C94250CCF93DF93CDB75F
:1018B000DEB728970FB6F894DEBF0FBECDBF98E015
:1018C000E1E5F1E0DE01119601900D929A95E1F7C4
:1018D0009091BA04981708F48FEF90E0880F991F41
:1018E00021E030E02C0F3D1F820F931FFC0160812F
:1018F000606840E081EB94E028960FB6F894DEBF74
:101900000FBECDBFDF91CF910C943E0C40E061E063
:1019100081EB94E00E943E0C8BE39FE10197F1F78D
:10192000089541E00E943E0C81E090E008950F93FD
:101930001F93CF93DF93EC0188819981009759F031
:101940002A813B812617370730F081E0DF91CF9164
:101950001F910F9108958B016F5F7F4F0E94A11F10
:10196000009759F0998388831B830A832C813D81DA
:10197000232B59F7FC011082E8CF80E0E7CFEF92EC
:10198000FF920F931F93CF93DF936115710541F47D
:1019900080E0DF91CF911F910F91FF90EF9008951C
:1019A00041155105B1F07B01EC010C811D81040F43
:1019B000151FB8010E94970C882351F328813981A3
:1019C0008C819D81B701820F931F0E9470201D831F
:1019D0000C8381E0DECFCF93DF93EC018881998186
:1019E000009711F00E94181F198218821D821C8214
:1019F0001B821A82DF91CF9108950F931F93CF938B
:101A0000DF9300D0CDB7DEB78C0169831A8241E045
:101A100050E0BE016F5F7F4F0E94BF0C811103C079
:101A2000C8010E94EB0CC8010F900F90DF91CF917D
:101A30001F910F910895CF93DF93EC01FB0101906B
:101A40000020E9F73197AF01461B570B0E94BF0CEE
:101A5000811103C0CE010E94EB0CCE01DF91CF912A
:101A60000895CF93DF93EC01FB01448155816081A0
:101A700071810E94BF0C811103C0CE010E94EB0C4A
:101A8000CE01DF91CF910895EF92FF920F931F93B4
:101A9000CF93DF93EC017B018A01BA010E94970C7E
:101AA00081110BC0CE010E94EB0CCE01DF91CF91D2
:101AB0001F910F91FF90EF9008951D830C83B70144
:101AC000888199810E947020F0CFEF92FF920F934E
:101AD0001F93CF93DF93CDB7DEB7A1970FB6F894DE
:101AE000DEBF0FBECDBF7C01CB01BA01F701118271
:101AF000108213821282158214828E010F5F1F4F93
:101B000022E044E00E94C6190097C9F0FC01019050
:101B10000020E9F73197AF01481B590BBC01C70101
:101B20000E94440DA1960FB6F894DEBF0FBECDBF44
:101B3000DF91CF911F910F91FF90EF900895C70112
:101B40000E94EB0CEFCFEF92FF920F931F93CF9376
:101B5000DF93CDB7DEB762970FB6F894DEBF0FBE46
:101B6000CDBF8C01CB01F801118210821382128249
:101B7000158214824AE09E012F5F3F4F7901B9011F
:101B80000E940B1AF70101900020E9F73197AF018D
:101B90004E195F09B701C8010E94440D62960FB645
:101BA000F894DEBF0FBECDBFDF91CF911F910F9193
:101BB000FF90EF900895CF93DF93EC01FB01861720
:101BC000970749F0608171816115710541F0448189
:101BD00055810E94440DCE01DF91CF9108950E945E
:101BE000EB0CF9CFFC011182108213821282158254
:101BF00014826115710551F0FB0101900020E9F795
:101C00003197AF01461B570B0C94440D0895FC010E
:101C1000808191810C94181FCF93DF93CDB7DEB7ED
:101C20002C970FB6F894DEBF0FBECDBF8091CC03CA
:101C3000882321F00E94860C1092CC038091CD0362
:101C40009091CE03009709F44FC0019709F4B9C0F1
:101C500080E00E94550C4091D3035091D4036091D1
:101C6000D5037091D603CE0107960E94650D64EDF1
:101C700071E0CE0101960E94F20DBE01695F7F4FB7
:101C8000CE0101960E94310D6BED71E00E941B0D9B
:101C9000BC0181EB94E00E947E01CE0101960E947E
:101CA000070ECE0107960E94070E81E00E94550C98
:101CB0004091CF035091D0036091D1037091D20332
:101CC000CE0107960E94650D64EC71E0CE0101968D
:101CD0000E94F20DBE01695F7F4FCE0101960E9406
:101CE000310D60EE71E055C080E00E94550C4091CE
:101CF000CF035091D0036091D1037091D203CE01F4
:101D000007960E94650D64EC71E0CE0101960E9479
:101D1000F20DBE01695F7F4FCE0101960E94310D29
:101D20006FEE71E00E941B0D6FED0E94FD0C62EEE4
:101D300071E00E941B0DBC0181EB94E00E947E01CA
:101D4000CE0101960E94070ECE0107960E94070E53
:101D500081E00E94550C6091490170914A01CE01C9
:101D600007960E94A30D6BEC71E0CE0101960E94D4
:101D7000F20DBE01695F7F4FCE0101960E94310DC9
:101D80006FEE71E00E941B0D6FED0E94FD0C62EE84
:101D900071E00E941B0DBC0181EB94E00E947E016A
:101DA000CE0101960E94070ECE0107960E94070EF3
:101DB0002C960FB6F894DEBF0FBECDBFDF91CF914A
:101DC000089580E00E94550C4091D3035091D403B4
:101DD0006091D5037091D603CE0107960E94650DE0
:101DE00064ED71E0CE0101960E94F20DBE01695FC3
:101DF0007F4FCE0101960E94310D6BED71E0C9CF8E
:101E00003F924F925F926F927F928F929F92AF928A
:101E1000BF92CF92DF92EF92FF920F931F93CF93D7
:101E2000DF93CDB7DEB72B970FB6F894DEBF0FBEAA
:101E3000CDBF7C018B016A018091C903811105C06E
:101E40000E944B0681E08093C9030E94E2040E9435
:101E5000470661E084E30E94FF04F801019000203E
:101E6000E9F73197BF01601B710B41E0C8010E9487
:101E70004B050E94E2041F821982AE014F5F5F4F43
:101E8000BE01695F7F4F84E30E94B105182F0E9455
:101E9000430611111AC090E080E02B960FB6F8941B
:101EA000DEBF0FBECDBFDF91CF911F910F91FF908D
:101EB000EF90DF90CF90BF90AF909F908F907F90EA
:101EC0006F905F904F903F9008950AE01FEF33248A
:101ED00033941B831C831D831E838091C90381114E
:101EE00004C00E944B063092C9030E94E2040E9483
:101EF000470660E085E30E94FF040E94E2041B861F
:101F0000AE01455F5F4FBE01695F7F4F85E30E9471
:101F1000B105892B61F40E944306015009F4BBCF3F
:101F200068EE73E080E090E00E949E03D2CF4F8085
:101F3000588469847A848B809C80AD80BE800E94A6
:101F4000430684149504A604B70439F3D701ED9130
:101F5000FC910684F785E02D8BEA91E09A838983D2
:101F60004B825C826D827E82A601BE016F5F7F4FD5
:101F7000C701099592CF3F924F925F926F927F92E5
:101F80008F929F92AF92BF92CF92DF92EF92FF9289
:101F90000F931F93CF93DF93CDB7DEB72B970FB679
:101FA000F894DEBF0FBECDBF4C018E010F5F1F4FF7
:101FB00087E0F80111928A95E9F78BE893E09B831B
:101FC0008A8387E893E09E838D8383E893E09987F3
:101FD00088878091C903811105C00E944B0681E06A
:101FE0008093C9030E94E2040E94470661E081E2F7
:101FF0000E94FF048FEF8B8741E061E0CE010B96DA
:102000000E944B050E94E2041A860E949905892BC2
:10201000D1F1CE010A960E947B058A85813A99F515
:102020000E948A05382E882371F1D12CC12C482EAC
:10203000512CC414D50404F58FEF0E94E804F80174
:102040008083F12CE12C682E712CE614F70474F4D3
:10205000F801A180B280AE0CBF1C8FEF0E94E80493
:10206000F5018083FFEFEF1AFF0AEFCF8FEFC81A59
:10207000D80A0D5F1F4FDDCFE3E03E1204C0CE0152
:102080000A960E947B050E94430680918B039091E3
:102090008C03A0918D03B0918E03F401828393830E
:1020A000A483B5832B960FB6F894DEBF0FBECDBFC9
:1020B000DF91CF911F910F91FF90EF90DF90CF9024
:1020C000BF90AF909F908F907F906F905F904F9058
:1020D0003F9008951F920F920FB60F9211242F93E5
:1020E0003F934F935F936F937F938F939F93AF93A0
:1020F000BF93EF93FF938BED93E00E942E02FF912D
:10210000EF91BF91AF919F918F917F916F915F916F
:102110004F913F912F910F900FBE0F901F901895E8
:102120001F920F920FB60F9211242F938F939F93AC
:10213000EF93FF93E091EB03F091EC038081E0914A
:10214000F103F091F20382FD1BC090818091F403B2
:102150008F5F8F732091F503821741F0E091F403B4
:10216000F0E0E552FC4F958F8093F403FF91EF91DF
:102170009F918F912F910F900FBE0F901F901895E8
:102180008081F4CF1F920F920FB60F9211242F93DC
:102190003F938F939F93AF93BF93809190039091C0
:1021A0009103A0919203B091930330918F0323E0A8
:1021B000230F2D3758F50196A11DB11D20938F03D4
:1021C0008093900390939103A0939203B093930311
:1021D0008091940390919503A0919603B0919703F9
:1021E0000196A11DB11D8093940390939503A09334
:1021F0009603B0939703BF91AF919F918F913F91B9
:102200002F910F900FBE0F901F90189526E8230F67
:102210000296A11DB11DD2CF1F920F920FB60F9241
:1022200011242F933F934F935F936F937F938F93DB
:102230009F93AF93BF93EF93FF938091B900887FF3
:10224000803609F44AC0F0F5883209F4A7C018F5C1
:10225000803109F49BC0B8F4882309F4F9C08830B0
:1022600009F494C0FF91EF91BF91AF919F918F912D
:102270007F916F915F914F913F912F910F900FBE82
:102280000F901F901895883109F488C0803251F75B
:1022900080935E0314C0803409F49DC040F4803301
:1022A000B9F38833F9F680935E0385ECB0C08035CE
:1022B00009F485C0883509F496C0883499F60E94DF
:1022C0007909D0CF883909F48CC038F5883729F0DE
:1022D00050F4883611F0803729F683E080939E030E
:1022E00010923A0357C0883809F47BC0803919F03E
:1022F000803809F0B7CF80913A03803208F071C07E
:10230000E0913A0381E08E0F80933A038091BB0005
:10231000F0E0E65EFC4F80833DC0803B39F0E0F4A6
:10232000803A09F479C0883A09F09CCF84E0809320
:102330009E031092190310921803E0919A03F091F2
:102340009B0309958091180381110FC081E0809350
:1023500018031092F80209C0803C09F4A6CF883C0B
:1023600009F4A3CF883B09F07DCFE091190381E008
:102370008E0F80931903F0E0E850FD4F8081809329
:10238000BB00909119038091180329C080913B03F1
:102390008093BB0085EC8093BC0064CF90915D037B
:1023A00080915C03981758F5E0915D0381E08E0FF2
:1023B00080935D03F0E0E45CFC4F8081E9CFE09125
:1023C0005D0381E08E0F80935D038091BB00F0E0A0
:1023D000E45CFC4F808390915D0380915C039817CF
:1023E000C8F285E8D8CFE0915D0381E08E0F80933D
:1023F0005D038091BB00F0E0E45CFC4F8083809142
:102400009D0381115CCF81E080939C0384EA8093DB
:10241000BC0010929E0326CF85EC8093BC001092E6
:102420009E0380913A03803230F4E0913A03F0E069
:10243000E65EFC4F108260913A0370E0E0919803F1
:10244000F09199038AE193E0099510923A030ACF3B
:1024500010925E0334CF0F931F93EBEDF3E01382E2
:10246000128248EE53E060E070E044835583668357
:1024700077838DE591E09183808385EC90E095876B
:10248000848784EC90E09787868780EC90E0918B3E
:10249000808B81EC90E0938B828B82EC90E0958B2B
:1024A000848B86EC90E0978B868B118E128E138E28
:1024B000148EE8E7F4E08BEA91E091838083128246
:1024C000138214821582EEE7F4E0918380831282F6
:1024D000138214821582E4E8F4E0918380831282EF
:1024E000138214821582EAE8F4E0918380831282D9
:1024F000138214821582E0E9F4E0918380831282D2
:10250000138214821582E6E9F4E013821282448376
:102510005583668377832FE631E031832083E2EDB4
:10252000F4E0918380831282138214821582809159
:10253000490190914A019093D1048093D004ADEB6E
:10254000B4E082E015968C9315979BE016969C93C9
:102550001697EFE1F2E0E4911796EC931797EBE012
:10256000F2E0E4911896EC93189700E81EE320E05F
:1025700030E01D960D931D932D933C935097E1EB06
:10258000F4E0138212822FE931E03183208397E255
:10259000948390E190878187128688E08387E2EABE
:1025A000F4E013821282448355836683778381E843
:1025B00091E09183808384E084871F910F91089537
:1025C000CF93DF93CDB7DEB7E0970FB6F894DEBFB9
:1025D0000FBECDBF789484B5826084BD84B5816020
:1025E00084BD85B5826085BD85B5816085BD8091DE
:1025F0006E00816080936E00109281008091810056
:10260000826080938100809181008160809381004D
:10261000809180008160809380008091B10084600F
:102620008093B1008091B00081608093B000809170
:102630007A00846080937A0080917A00826080932F
:102640007A0080917A00816080937A0080917A008C
:10265000806880937A001092C100E091EB03F091C2
:10266000EC0382E08083E091E703F091E8031082BD
:10267000E091E903F091EA038FEC80831092F30379
:10268000E091EF03F091F00386E08083E091ED03A9
:10269000F091EE03808180618083E091ED03F09101
:1026A000EE03808188608083E091ED03F091EE037A
:1026B000808180688083E091ED03F091EE0380815A
:1026C0008F7D808362E083E00E943D0362E086E0CC
:1026D0000E943D0362E085E00E943D0361E08FE0DF
:1026E0000E943D0361E08EE00E943D0361E080E1D5
:1026F0000E943D0361E08FE00E940F0360E08EE0E6
:102700000E940F0361E080E10E940F0361E081E11C
:102710000E943D0362E08091C2040E943D030E943A
:10272000D003605D7740810991096093C60470937E
:10273000C7048093C8049093C90487E38093CF04AF
:102740001092A2031092A1031092A00310929F0373
:1027500010929E0381E080939D0310929C0361E0A0
:1027600082E10E940F0361E083E10E940F038091E8
:10277000B9008E7F8093B9008091B9008D7F8093DE
:10278000B90088E48093B80085E48093BC008CE7AE
:1027900091E090939B0380939A038DE791E090934F
:1027A0009903809398031092B6048091BA04823002
:1027B00018F098E09093B6049091BB04992339F0F7
:1027C000813029F48091B60484608093B60462E37A
:1027D00070E080E090E00E949E036091BC0481EB79
:1027E00094E00E942F0A68EE73E080E090E00E947F
:1027F0009E0360E381EB94E00E94250C0BE416E459
:10280000C8010197F1F760E381EB94E00E94250C89
:10281000C8010197F1F760E381EB94E00E94250C79
:1028200083E592E00197F1F760E281EB94E00E948A
:10283000250C6091B604606240E081EB94E00E9458
:102840003E0C84E08093B70440E06CE081EB94E0C0
:102850000E943E0C0E94860C82E08093B80440E007
:1028600066E081EB94E00E943E0C40E062E081EB88
:1028700094E00E943E0C8BE39FE10197F1F788E022
:102880008093BC0460E081EB94E00E942F0A0E94D8
:10289000860C61E081E10E940F030E9498068F3F41
:1028A00059F467EE71E08BED93E00E948C018BEDA3
:1028B00093E00E94F10AFFCF8091C903811105C006
:1028C0000E944B0681E08093C9030E94E2040E94AB
:1028D000470660E087E30E94FF040E94E204198239
:1028E000AE014F5F5F4F63EA73E087E30E94B1057B
:1028F0000E94430663EA73E0CE0107960E94F20D40
:102900008B859C85892B41F064EE71E08F819885E1
:102910000E946720892B51F06BEC71E08BED93E006
:102920000E948C018BED93E00E94F10A98E0E92E61
:1029300091E0F92EBB24BA948091CA039091CB0305
:10294000039709F47DC06BEA71E08BED93E00E9480
:102950008C0163E171E08BED93E00E94060B80E057
:102960000E94550C6DE971E081EB94E00E948C01AE
:1029700081E00E94550C65E971E081EB94E00E94D2
:102980008C01F70101900020E9F79F0129503140A7
:10299000690103E111E0F80101900020E9F78F01DE
:1029A000045111408091C903811105C00E944B065A
:1029B00081E08093C9030E94E2040E94470662E01E
:1029C00081E10E94FF0440E0602F83E191E00E94DA
:1029D0004B0541E06C2D88E091E00E944B050E9480
:1029E000E2041D861982AE014F5F5F4FBE01635F37
:1029F0007F4F81E10E94B105892B09F4BD860E94B9
:102A000043068D858F3FD1F01AE068E873E180E0DE
:102A100090E00E949E030E949806982F9D7F11F4DB
:102A2000115099F790E09093CB038093CA0360ED27
:102A300077E080E090E00E949E037ECF84E0F2CFBA
:102A40006AEE71E08BED93E00E94960A8091C903D3
:102A5000811105C00E944B0681E08093C9030E944A
:102A6000E2040E94470661E083E20E94FF048FEFC8
:102A70008D8741E061E0CE010D960E944B050E94DA
:102A8000E2041982AE014F5F5F4F69EA73E083E2AF
:102A90000E94B1050E94430669EA73E08BED93E062
:102AA0000E94060B8BEA91E09A8389831B821C8229
:102AB0001D821E82CE0101960E94BB0F61EF71E064
:102AC0008BED93E00E94960A6BED73E0CE010196C8
:102AD0000E941D0B8BED93E00E94F10A8091C903C7
:102AE000811105C00E944B0681E08093C9030E94BA
:102AF000E2040E94470661E085E20E94FF048FEF36
:102B0000898F41E061E0CE0149960E944B050E9409
:102B1000E2041B8A1D861E861F86188AAE014D5E42
:102B20005F4FBE01635F7F4F85E20E94B1050E9447
:102B30004306CD84DE84EF84F8886EEF71E08BED80
:102B400093E00E94960A2AE0B701A601F7FE0DC0A5
:102B50006DE28BED93E00E94500244275527BA01A5
:102B60004C195D096E097F092AE08BED93E00E9404
:102B7000A50A66E172E08BED93E00E94060B0E94CD
:102B8000860C80E00E94550C6AE871E081EB94E0CD
:102B90000E948C0181E00E94550C8BEA91E09A839F
:102BA00089831B821C821D821E82CE0101960E9497
:102BB000BB0F61EB74E0CE0101960E941D0B60ED2E
:102BC00077E080E090E00E949E030E94860C60E027
:102BD00081E10E940F03CE0107960E94070E88E153
:102BE00099E20FB6F894A895809360000FBE909379
:102BF000600000E010E0AA24A394A8950E94D003EE
:102C00006B017C01C092D703D092D803E092D90324
:102C1000F092DA038091450190914601A09147011D
:102C2000B0914801A7019601281B390B4A0B5B0B99
:102C3000DA01C90188389341A105B10508F4AAC099
:102C4000C0924501D0924601E0924701F0924801BE
:102C50000E94DC03882349F08091C3048B3028F064
:102C60008D3040F085518230D0F160E070E080EC32
:102C70009FE71CC06091BE0470E090E080E00E947D
:102C80008E1C2DEC3CEC4CEC5DE30E94ED1C2B010A
:102C90003C016091BD0470E090E080E00E948E1CD9
:102CA0009B01AC01C301B2010E94E31D6093D303F9
:102CB0007093D4038093D5039093D6030E94DC03D2
:102CC000882341F08091C3048C3009F4EFC2C8F42A
:102CD0008B3081F160E070E080EC9FE753C0609141
:102CE000BD047091BE0476276727762790E080E0C8
:102CF0000E948C1C2DEC3CEC4CEC5DE30E94ED1C26
:102D0000D5CF8551823030F7B090BF046B2D70E085
:102D1000762F662766277F778091C004682B90E026
:102D200080E00E948C1C2DEC3CEC4CEC5DE30E949E
:102D3000ED1CD8C26091BF0470E090E080E00E947A
:102D40008C1C2B013C01B090C004B7FE0AC0AC0142
:102D50009B0160E070E080E89FEB0E94E21D2B0188
:102D60003C016B2D6F7070E090E080E00E948E1C43
:102D70002DEC3CEC4CEC5DE30E94ED1CA3019201B8
:102D80000E94E31D6093CF037093D0038093D1031F
:102D90009093D20380913D0190913E01A0913F011B
:102DA000B0914001A7019601281B390B4A0B5B0B20
:102DB000DA01C90180319742A105B10508F4B2C01A
:102DC000C0923D01D0923E01E0923F01F09240015D
:102DD0000E940C0EE0904901F0904A018091D004CD
:102DE0009091D104E816F90609F09CC06BE172E0FD
:102DF000CE010D960E94F20D69E272E08BED93E038
:102E00000E94060B40E550E066E271E082EA94E041
:102E10000E94000F892B09F49CC26BE472E08BEDD9
:102E200093E00E94060B6FE572E0CE0101960E94CE
:102E3000F20DBE01635F7F4FCE0101960E94310DFE
:102E400064E672E00E941B0D0E94F50ACE01019615
:102E50000E94070E66E271E0CE0101960E94F20D1B
:102E60006EE672E0CE0107960E94F20DBE016F5F22
:102E70007F4FCE0107960E94310D0E94F50ACE01C8
:102E800007960E94070ECE0101960E94070E65E785
:102E900072E082EA94E00E94060B82EA94E00E94CB
:102EA000F10A6FEA71E0CE0107960E94F20D61E02F
:102EB00081E10E940F03E12C82EA94E00E94500716
:102EC000811116C28F819885009709F43EC20E9435
:102ED000E4199B012F5031097B012A31310520F083
:102EE000E0904901F0904A0182EA94E00E94640770
:102EF00060E081E10E940F038BED93E00E94F10AF4
:102F000067E872E08BED93E00E94060BCE01079616
:102F10000E94070ECE010D960E94070EF0924A0104
:102F2000E0924901A8956091490170914A01072EEC
:102F3000000C880B990B0E948E1C2091CF033091BE
:102F4000D0034091D1035091D2030E944F1E181616
:102F50000CF006C260E08FE00E940F0360E080E1A9
:102F60000E940F0361E08EE00E940F0383E00E9445
:102F7000E6027C01892BB1F480912001909121011E
:102F80008130910579F4A092CC032091CD0330914A
:102F9000CE03232B09F0EEC19093CE038093CD0393
:102FA0000E940C0EF0922101E092200186E00E9426
:102FB000E6027C0185E00E94E6026C01E114F10466
:102FC000E1F480912401909125010197B1F4809161
:102FD000CD039091CE03892B81F48091490190918A
:102FE0004A01883291054CF49093D1048093D00427
:102FF000019690934A0180934901C114D104E1F4F0
:1030000080912201909123010197B1F48091CD0329
:103010009091CE03892B81F48091490190914A01CE
:10302000803191054CF09093D1048093D0040197A6
:1030300090934A01809349010E940C0EF092250161
:10304000E0922401D0922301C09222018091D70303
:103050009091D803A091D903B091DA034091410136
:103060005091420160914301709144016C017D01D6
:10307000C41AD50AE60AF70AB701A60140365A4E25
:103080006105710508F406C18093410190934201E6
:10309000A0934301B09344016091490170914A01AA
:1030A000CE0101960E94A30D66EA72E0CE0107965A
:1030B0000E94F20D4091D3035091D4036091D50347
:1030C0007091D603CE010D960E94650D62EB72E001
:1030D000CE0143960E94F20D4091CF035091D00350
:1030E0006091D1037091D203CE0149960E94650D83
:1030F0006FEB72E0CE0185960E94F20D18A21F8E32
:103100001AA219A21CA21BA2BE016B5D7F4FCE01A9
:103110004F960E94DB0DBE01675E7F4FCE014F963A
:103120000E94310DBE016D5E7F4F0E94310DBE01C8
:10313000635F7F4F0E94310DBE01695F7F4F0E9428
:10314000310DBE016F5F7F4F0E94310D1CA61BA683
:103150001EA61DA618AA1FA6BC01CE018B960E9412
:10316000DB0DCE014F960E94070ECE0185960E9480
:10317000070ECE0149960E94070ECE0143960E948B
:10318000070ECE010D960E94070ECE0107960E94F3
:10319000070ECE0101960E94070E69E272E08BEDE8
:1031A00093E00E94060B40E550E066E271E082EA9F
:1031B00094E00E94000F892B09F4E1C06BE472E0F7
:1031C0008BED93E00E94060B6FE572E0CE01019655
:1031D0000E94F20DBE01655D7F4FCE0101960E94F7
:1031E000310D64E672E00E941B0D0E94F50ACE01CB
:1031F00001960E94070E66E271E0CE0101960E94E0
:10320000F20D6EE672E0CE0107960E94F20DBE014D
:103210006F5F7F4FCE0107960E94310D0E94F50A25
:10322000CE0107960E94070ECE0101960E94070E5E
:1032300065E772E082EA94E00E94060B82EA94E07D
:103240000E94F10A61E081E10E940F0382EA94E0AA
:103250000E9450078111FACF82EA94E00E9464072D
:1032600060E081E10E940F038BED93E00E94F10A80
:1032700067E872E08BED93E00E94060B80914901B4
:1032800090914A019093D1048093D004CE018B9603
:103290000E94070E0115110509F4AFCC0E941A0215
:1032A000882309F4AACC0E940000A7CCB090BF04E8
:1032B0006B2D70E090E080E00E948C1C2B013C01A3
:1032C0006091C0046F7070E090E080E00E948E1CFE
:1032D0002DEC3CEC4CEC5DE30E94ED1CA301920153
:1032E0000E94E31DB7FE4ECD90584CCDEE24E394E2
:1032F00082EA94E00E947E08892B09F4DDCD82EAFF
:1033000094E00E945A08F82EEE20D9F01A82198211
:103310001C821B821E821D82BE01695F7F4FCE010F
:1033200001960E94DB0D6F2DCE0101960E94FD0CCF
:10333000BC01CE0107960E94DB0DCE0101960E94D2
:10334000070E4FE3F412D4CFD1CF60E070E0CB0191
:10335000C0CD64E972E08BED93E00E94060BDACDFC
:1033600061E08FE00E940F0361E080E10E940F03A3
:1033700060E0F9CD1092CE031092CD0311CE64E936
:1033800072E08BED93E00E94060B80CFEF920F93DB
:103390001F93CF93DF93E80134E047FD34E1042E1F
:1033A000000C550B57FF03C0519541955109E32E71
:1033B000022F242FAE010E94451ACE01DF91CF913A
:1033C0001F910F91EF9008951F93FC019927882773
:1033D000BC01E89411911032E9F3193010F01E305D
:1033E000C8F31B3251F01D3249F4689406C00E94A4
:1033F000161A610F711D811D911D119110531A3004
:10340000B0F33EF490958095709561957F4F8F4F06
:103410009F4F1F910895BB274A3031F4992322F41E
:10342000BDE2909581959F4F0C942C1A592F482FEF
:10343000372F262F660F771F881F991F660F771F5C
:10344000881F991F620F731F841F951F660F771FB8
:10345000881F991F0895BB27FB015527AA27880FAE
:10346000991FAA1FA41710F0A41B83955051B9F7F8
:10347000A05DAA3308F0A95DA193009779F7B11177
:10348000B1931192CB010C947C1CA9E0B0E0EBE469
:10349000FAE10C94B11D6A01F22EB02E102FFBE35D
:1034A000AF2EA01608F41BE31F5F012F27E0AE012B
:1034B0004F5F5F4F0E94A41BBC018981982F9970B8
:1034C000913009F43FC09BE2E1FC04C09E2D917055
:1034D000E0FC3AC05E2D5071E82FE87083FF46C0D3
:1034E00084E0911101C083E0EF2DE81B8F1508F0F7
:1034F000E0E0D6018E2F20E2552351F1992329F0E7
:10350000D6019C93C60101966C0196012D5F3F4F39
:10351000E2FE24C08EE4D6018C9391E411969C9334
:10352000119712968C93D9018E2F90E281111BC0B6
:10353000E20FF32FF11D10828EEF9FEF2996ECE042
:103540000C94CD1D9DE2C6CF90E2C4CF2D93815047
:103550008111FCCFCE0ED11CE0E0D0CF8EE6D6019B
:103560008C9391E6DBCF9D938150E0CF482F447040
:1035700082FF3DC084E0911101C083E08F1510F4FB
:10358000EF2DE81BD6018E2F20E2552309F1992358
:1035900029F0D6019C93C60101966C0196012D5F1E
:1035A0003F4FE2FE1BC089E4D6018C938EE4119656
:1035B0008C93119786E412968C93D9018E2F90E20A
:1035C000882309F4B5CF9D938150FACF2D93815074
:1035D0008111FCCFCE0ED11CE0E0D9CF89E6D60117
:1035E0008C938EE611968C93119786E6E4CF9B011F
:1035F00077FF02C030E020E0A1E0B0E0911102C00E
:10360000B0E0A0E0F9013196AE0FBF1F8B2C912CDA
:10361000BB2009F461C05401EFEFAE1ABE0AAA0D37
:10362000BB1DFA161B0619F014F04F2D4A1B511141
:1036300088C0E3FC59C07601A42FB0E2A1114FC0AD
:10364000C40ED11C992309F45BC040E0D601119649
:10365000F60190836D01552309F448C0012F060F30
:103660009A81582F507184FF03C0913309F401509F
:1036700010160CF047C0093008F008E0EEE2FE2E0C
:103680005B01A01AB10885019194819491082F3FA4
:10369000320729F4D601FC92F60131966F016217C8
:1036A000730794F1021713077CF5DB01A21BB30B20
:1036B000AA24A394B12CAC0EBD1EAA0DBB1D11965D
:1036C0008C9121503109D601119628153905F4F055
:1036D000F60180836D01DBCFB12CA12CA0CFF701C7
:1036E000B1937F01A150AACF9111B0CFD601942FF1
:1036F00050E302C05D9391509111FCCFC40ED11CD8
:1037000040E0ACCF01E0BACF80E3DBCF62177307B4
:1037100031F4963388F4953311F4552369F0F601AA
:103720008083FD01842F90E2811108C0A40FB11D98
:103730001C9290E080E002CF81E3F1CF9193815021
:10374000F3CF911183CF8ACF283008F027E03327B9
:10375000DA01990F311D87FD9160009661057105B1
:1037600039F432602E5F3D9330E32A95E1F70895F6
:103770009F3F30F080387105610509F03C5F3C5F88
:103780003D93913008F08068911DDF93CF931F9394
:103790000F93FF92EF92192F987F9695E92F9695A8
:1037A0009695E90FFF27EE53FF4F99273327EE2415
:1037B000FF24A701E70105900894079428F4360F29
:1037C000E71EF81E491F511D660F771F881F991F9E
:1037D0000694A1F70590079428F4E70EF81E491FF8
:1037E000561FC11D770F881F991F661F0694A1F7EA
:1037F0000590079428F4F80E491F561FC71FD11DC6
:10380000880F991F661F771F0694A1F705900794EC
:1038100020F4490F561FC71FD81F990F661F771F27
:10382000881F0694A9F784911095177041F0D695DA
:10383000C79557954795F794E7941A95C1F7E8E629
:10384000F0E06894159015913591659195910590EA
:103850007FE27395E118F10A430B560BC90BD009AF
:10386000C0F7E10CF11E431F561FC91FD01D7EF487
:10387000703311F48A95E6CFE894015030F0080FC8
:103880000AF40027021708F4202F2395022F7A3319
:1038900028F079E37D932A95E9F710C07D932A9566
:1038A00089F6069497956795379517951794E118BB
:1038B000F10A430B560BC90BD00998F023957E9162
:1038C00073957A3308F070E37C932013B8F77E91F8
:1038D00070617D9330F0839571E37D9370E32A9559
:1038E000E1F71124EF90FF900F911F91CF91DF919D
:1038F000992787FD90950895DC01FC01672F719150
:103900007723E1F7329704C07C916D9370836291C5
:10391000AE17BF07C8F30895E89409C097FB3EF4BB
:1039200090958095709561957F4F8F4F9F4F99230C
:10393000A9F0F92F96E9BB279395F695879577958A
:103940006795B795F111F8CFFAF4BB0F11F460FF4A
:103950001BC06F5F7F4F8F4F9F4F16C0882311F0A2
:1039600096E911C0772321F09EE8872F762F05C0B6
:10397000662371F096E8862F70E060E02AF09A9551
:10398000660F771F881FDAF7880F9695879597F946
:103990000895990F0008550FAA0BE0E8FEEF1616E0
:1039A0001706E807F907C0F012161306E407F50733
:1039B00098F0621B730B840B950B39F40A2661F0A7
:1039C000232B242B252B21F408950A2609F4A1404A
:1039D000A6958FEF811D811D08950E94001D0C94F6
:1039E000711D0E94631D38F00E946A1D20F095230E
:1039F00011F00C945A1D0C94601D11240C94A51DFB
:103A00000E94821D70F3959FC1F3950F50E0551FE2
:103A1000629FF001729FBB27F00DB11D639FAA2723
:103A2000F00DB11DAA1F649F6627B00DA11D661F72
:103A3000829F2227B00DA11D621F739FB00DA11D93
:103A4000621F839FA00D611D221F749F3327A00D4D
:103A5000611D231F849F600D211D822F762F6A2FE9
:103A600011249F5750409AF0F1F088234AF0EE0F4E
:103A7000FF1FBB1F661F771F881F91505040A9F77B
:103A80009E3F510580F00C945A1D0C94A51D5F3F7C
:103A9000E4F3983ED4F3869577956795B795F795B7
:103AA000E7959F5FC1F7FE2B880F911D969587952F
:103AB00097F9089597F99F6780E870E060E00895AE
:103AC0009FEF80EC089500240A9416161706180636
:103AD0000906089500240A94121613061406050612
:103AE0000895092E0394000C11F4882352F0BB0FA3
:103AF00040F4BF2B11F460FF04C06F5F7F4F8F4F06
:103B00009F4F089557FD9058440F551F59F05F3F40
:103B100071F04795880F97FB991F61F09F3F79F0EF
:103B200087950895121613061406551FF2CF469571
:103B3000F1DF08C0161617061806991FF1CF8695F3
:103B40007105610508940895E894BB2766277727D7
:103B5000CB0197F908952F923F924F925F926F9207
:103B60007F928F929F92AF92BF92CF92DF92EF920D
:103B7000FF920F931F93CF93DF93CDB7DEB7CA1B8E
:103B8000DB0B0FB6F894DEBF0FBECDBF09942A88B9
:103B9000398848885F846E847D848C849B84AA8461
:103BA000B984C884DF80EE80FD800C811B81AA81EE
:103BB000B981CE0FD11D0FB6F894DEBF0FBECDBFB9
:103BC000ED0108955058BB27AA270E94FA1D0C94B6
:103BD000711D0E94631D38F00E946A1D20F039F4A7
:103BE0009F3F19F426F40C94601D0EF4E095E7FB5A
:103BF0000C945A1DE92F0E94821D58F3BA176207D0
:103C000073078407950720F079F4A6F50C94A41D9A
:103C10000EF4E0950B2EBA2FA02D0B01B9019001E7
:103C20000C01CA01A0011124FF27591B99F0593F2B
:103C300050F4503E68F11A16F040A22F232F342F73
:103C40004427585FF3CF469537952795A795F040C1
:103C50005395C9F77EF41F16BA0B620B730B840BD6
:103C6000BAF09150A1F0FF0FBB1F661F771F881F8E
:103C7000C2F70EC0BA0F621F731F841F48F48795E6
:103C800077956795B795F7959E3F08F0B0CF9395D8
:103C9000880F08F09927EE0F9795879508950E9451
:103CA000C91C08F48FEF0895A1E21A2EAA1BBB1BB2
:103CB000FD010DC0AA1FBB1FEE1FFF1FA217B307F8
:103CC000E407F50720F0A21BB30BE40BF50B661F0E
:103CD000771F881F991F1A9469F7609570958095D2
:103CE00090959B01AC01BD01CF010895EE0FFF1F20
:103CF0000590F491E02D09940F931F93CF93DF93D8
:103D00008230910510F482E090E0E091DA04F091C5
:103D1000DB0430E020E0B0E0A0E0309799F421151A
:103D2000310509F44AC0281B390B24303105D8F578
:103D30008A819B816115710589F1FB0193838283DF
:103D4000FE0111C04081518102811381481759073A
:103D5000E0F04817590799F4109761F012960C9308
:103D6000129713961C933296CF01DF91CF911F913A
:103D70000F9108950093DA041093DB04F4CF21151A
:103D8000310551F04217530738F0A901DB019A01C0
:103D9000BD01DF01F801C1CFEF01F9CF9093DB0442
:103DA0008093DA04CDCFFE01E20FF31F819391934C
:103DB0002250310939832883D7CF2091D8043091FC
:103DC000D904232B41F420914D0130914E013093C1
:103DD000D9042093D80420914B0130914C01211536
:103DE000310541F42DB73EB740914F01509150013C
:103DF000241B350BE091D804F091D904E217F307A6
:103E0000A0F42E1B3F0B2817390778F0AC014E5F4A
:103E10005F4F2417350748F04E0F5F1F5093D904AA
:103E20004093D804819391939FCFF0E0E0E09CCF42
:103E3000CF93DF930097E9F0FC013297138212824F
:103E4000A091DA04B091DB04ED0130E020E010979E
:103E5000A1F420813181820F931F2091D8043091E9
:103E6000D9042817390709F061C0F093D904E09309
:103E7000D804DF91CF910895EA01CE17DF07E8F566
:103E80004A815B819E0141155105B1F7E901FB8330
:103E9000EA8349915991C40FD51FEC17FD0761F4CE
:103EA000808191810296840F951FE901998388830F
:103EB000828193819B838A83F0E0E0E012968D916A
:103EC0009C9113970097B9F52D913C911197CD01D5
:103ED0000296820F931F2091D8043091D90428179D
:103EE000390739F6309751F51092DB041092DA0455
:103EF000B093D904A093D804BCCFD383C2834081AC
:103F00005181840F951FC817D90761F44E5F5F4F29
:103F100088819981480F591F518340838A819B81F1
:103F2000938382832115310509F0B0CFF093DB0430
:103F3000E093DA049ECFFD01DC01C0CF1382128230
:103F4000D7CFB0E0A0E0E7EAFFE10C94AD1D8C0113
:103F5000009751F4CB010E947C1E8C01C801CDB7A3
:103F6000DEB7E0E10C94C91DFC01E60FF71F9C01D0
:103F700022503109E217F30708F49DC0D901CD9111
:103F8000DC911197C617D70798F0C530D10530F3EB
:103F9000CE0104978617970708F3C61BD70B229705
:103FA000C193D1936D937C93CF010E94181FD6CFFC
:103FB0005B01AC1ABD0A4C018C0E9D1EA091DA0467
:103FC000B091DB04512C412CF12CE12C109731F5F0
:103FD0008091D8049091D9048815990509F05CC0A6
:103FE0004616570608F058C080914B0190914C013D
:103FF000009741F48DB79EB740914F015091500109
:10400000841B950BE817F90708F055C0F093D90405
:10401000E093D804F90171836083A0CF8D919C91C6
:10402000119712966C90129713967C901397A8157F
:10403000B90559F56C0142E0C40ED11CCA14DB0469
:1040400020F1AC014A195B09DA011296159780F04C
:104050006282738251834083D9016D937C93E11412
:10406000F10471F0D7011396FC93EE93129776CF7B
:1040700022968C0F9D1FF90191838083F301EFCF6E
:10408000F093DB04E093DA0469CF4816590608F48C
:104090002C017D01D3019ACFCB010E947C1E7C01B3
:1040A000009749F0AE01B8010E945E20C8010E944D
:1040B000181F870153CF10E000E050CFFB01DC0157
:1040C00002C001900D9241505040D8F70895FB0175
:1040D000DC018D91019080190110D9F3990B08959D
:1040E000FB01DC0101900D920020E1F70895F894A6
:0240F000FFCF00
:1040F200FFFFFFFFFFFFFFFF4E49454D4148415380
:104102004C410046756E426F78322D454636360078
:104112000100010001007777772E706A343134395B
:10412200312E7A75742E6564752E706C00F0D8FF8E
:10413200FFA015FFFF78ECFFFF1E000000DC0480EB
:10414200000000400014005400000000005002B0C3
:1041520001DD019D020E02EC0100020000000000E0
:104162000AD309930ACB07CC09B909AA09000000AE
:10417200006209BC08930ACB077E085A08CC07677D
:104182000B000FF00764075007480700000000917A
:104192000CB001930A7809000000001D0B0D0A0003
:1041A2004E6F20536F636B657420617661696C6139
:1041B200626C650054656D703A20005A6164616EEC
:1041C200613A200057696C673A2000202552480066
:1041D20020254300312E312E3000535349443A20DA
:1041E20000495020416464726573733A2000736918
:1041F200676E616C20737472656E677468202852F2
:10420200535349293A002064426D002F6765745662
:10421200616C75652E706870000A537461727469FE
:104222006E6720636F6E6E656374696F6E20746F64
:10423200207365727665722E2E2E00636F6E6E6528
:104242006374656420746F207365727665720047CB
:104252004554200020485454502F312E3100486FCD
:1042620073743A2000436F6E6E656374696F6E3AC1
:1042720020636C6F736500646973636F6E6E656350
:1042820074656400636F6E6E656374696F6E206639
:1042920061696C656400267573746177696F6E611C
:1042A2003D002677696C676F746E6F73633D002FF4
:1042B200696E6465782E7068703F74656D706572A2
:0842C20061747572613D00009A
:107E0000112484B714BE81FFF0D085E080938100F7
:107E100082E08093C00088E18093C10086E0809377
:107E2000C20080E18093C4008EE0C9D0259A86E02C
:107E300020E33CEF91E0309385002093840096BBD3
:107E4000B09BFECF1D9AA8958150A9F7CC24DD24C4
:107E500088248394B5E0AB2EA1E19A2EF3E0BF2EE7
:107E6000A2D0813461F49FD0082FAFD0023811F036
:107E7000013811F484E001C083E08DD089C08234E0
:107E800011F484E103C0853419F485E0A6D080C0E4
:107E9000853579F488D0E82EFF2485D0082F10E0AE
:107EA000102F00270E291F29000F111F8ED06801E7
:107EB0006FC0863521F484E090D080E0DECF843638
:107EC00009F040C070D06FD0082F6DD080E0C81688
:107ED00080E7D80618F4F601B7BEE895C0E0D1E017
:107EE00062D089930C17E1F7F0E0CF16F0E7DF06D8
:107EF00018F0F601B7BEE89568D007B600FCFDCFD4
:107F0000A601A0E0B1E02C9130E011968C91119780
:107F100090E0982F8827822B932B1296FA010C0160
:107F200087BEE89511244E5F5F4FF1E0A038BF0790
:107F300051F7F601A7BEE89507B600FCFDCF97BE46
:107F4000E89526C08437B1F42ED02DD0F82E2BD052
:107F50003CD0F601EF2C8F010F5F1F4F84911BD097
:107F6000EA94F801C1F70894C11CD11CFA94CF0C13
:107F7000D11C0EC0853739F428D08EE10CD085E9AC
:107F80000AD08FE07ACF813511F488E018D01DD067
:107F900080E101D065CF982F8091C00085FFFCCF94
:107FA0009093C60008958091C00087FFFCCF809118
:107FB000C00084FD01C0A8958091C6000895E0E648
:107FC000F0E098E1908380830895EDDF803219F02E
:107FD00088E0F5DFFFCF84E1DECF1F93182FE3DFCA
:107FE0001150E9F7F2DF1F91089580E0E8DFEE27F6
:047FF000FF270994CA
:027FFE00040479
:0400000300007E007B
:00000001FF
