:100000000C941A010C9442010C9442010C9442018C
:100010000C9442010C9442010C9442010C94420154
:100020000C9442010C9442010C9442010C94420144
:100030000C9442010C9442010C9442010C94420134
:100040000C9467100C9442010C9435100C940F1012
:100050000C9442010C9442010C9442010C94420114
:100060000C94B1100C94420100407A10F35A00A095
:10007000724E18090010A5D4E80000E87648170071
:1000800000E40B54020000CA9A3B000000E1F505B1
:10009000000080969800000040420F000000A086FB
:1000A00001000000102700000000E803000000002D
:1000B0006400000000000A000000000001000000D1
:1000C00000002C76D888DC674F0823DFC1DFAE59EB
:1000D000E1B1B796E5E3E453C63AE651997696E87E
:1000E000E6C28426EB898C9B62ED407C6FFCEFBC02
:1000F0009C9F40F2BAA56FA5F490055A2AF75C932D
:100100006B6CF9676DC11BFCE0E40D47FEF520E662
:10011000B500D0ED902E0300943577050080841E45
:10012000080000204E0A000000C80C333333330FA0
:10013000986E12831141EF8D2114893BE65516CF3D
:10014000FEE6DB18D1844B381BF77C1D901DA4BB49
:10015000E424203284725E228100C9F124ECA1E5FE
:100160003D2700000000240027002A0000000000B6
:10017000250028002B0000000008000201000003F9
:1001800004070000000000000000436F6E6E65630E
:1001900074204F4B00576946692E2E2E00436F6E18
:1001A0006E656374696E6720746F00417474656D69
:1001B0007074696E6720746F20636F6E6E65637410
:1001C00020746F20535349443A2000506C6561738A
:1001D0006520757067726164652074686520666962
:1001E000726D776172650057694669207368696549
:1001F0006C64206E6F742070726573656E7400009D
:100200000000002300260029000404040404040460
:1002100004020202020202030303030303010204B5
:100220000810204080010204081020010204081078
:1002300020007F1211241FBECFEFD8E0DEBFCDBF5C
:1002400025E0AEEFB2E001C01D92A931B207E1F79F
:1002500012E0A0E0B1E0E0E7F5E402C005900D9205
:10026000AE3FB107D9F711E0CAE1D1E004C0219750
:10027000FE010E94B520C931D107C9F70E94281399
:100280000C94B6220C940000CF92DF92EF92FF9272
:10029000CF93DF93B091F404A0E08111AB2F809154
:1002A000F50490E0880F991FAC0141505E4FC0905B
:1002B000FA04D090FB04E090FC04F090FD0430E0E0
:1002C00020E0FA01C591D491E881B90190E080E085
:1002D000EB23EA130AC02F5F3F4F6C157D058E0597
:1002E0009F0578F36FEF7FEFCB01DF91CF91FF9008
:1002F000EF90DF90CF90089508950895DB01149654
:100300004D915C9115976D917C91DC01ED91FC9183
:100310000280F381E02D0994EF92FF920F931F93D7
:10032000CF93DF938C017B01D0E0C0E0F701EC0FAD
:10033000FD1F6491662361F0D801ED91FC9101905D
:10034000F081E02DC8010995892B11F02196EECF9F
:10035000CE01DF91CF911F910F91FF90EF90089503
:10036000AF92BF92CF92DF92EF92FF920F931F93C3
:10037000CF93DF936C017B018B01040F151FEB0101
:100380005E01AE18BF08C017D10759F06991D601B8
:10039000ED91FC910190F081E02DC6010995892B2A
:1003A00079F7C501DF91CF911F910F91FF90EF90E9
:1003B000DF90CF90BF90AF900895FC01538D448D96
:1003C000252F30E0842F90E0821B930B541710F000
:1003D000CF96089501970895FC01918D828D98170D
:1003E00061F0A28DAE0FBF2FB11D5D968C91928DE5
:1003F0009F5F9F73928F90E008958FEF9FEF089516
:10040000FC01918D828D981731F0828DE80FF11DDE
:10041000858D90E008958FEF9FEF0895FC01918DF9
:10042000228D892F90E0805C9F4F821B91098F73F2
:10043000992708958AE194E00E940E0221E0892B19
:1004400009F420E0822F089580E090E0892B29F0C4
:100450000E941A0281110C9400000895FC01A48DE1
:10046000A80FB92FB11DA35ABF4F2C91848D90E0D6
:1004700001968F739927848FA689B7892C93A089B9
:10048000B1898C91837080648C93938D848D981343
:1004900006C00288F389E02D80818F7D80830895D6
:1004A000EF92FF920F931F93CF93DF93EC0181E0C4
:1004B000888F9B8D8C8D98131AC0E889F98980816B
:1004C00085FF15C09FB7F894EE89FF896083E8899E
:1004D000F98980818370806480839FBF81E090E090
:1004E000DF91CF911F910F91FF90EF900895F62E1D
:1004F0000B8D10E00F5F1F4F0F731127E02E8C8DB7
:100500008E110CC00FB607FCFACFE889F9898081FB
:1005100085FFF5CFCE010E942E02F1CFEB8DEC0FBF
:10052000FD2FF11DE35AFF4FF0829FB7F8940B8F18
:10053000EA89FB8980818062CFCFCF93DF93EC0182
:10054000888D8823B9F0AA89BB89E889F9898C91BB
:1005500085FD03C0808186FD0DC00FB607FCF7CF77
:100560008C9185FFF2CF808185FFEDCFCE010E9477
:100570002E02E9CFDF91CF910895833081F028F4E6
:10058000813099F08230A9F008958730A9F0883041
:10059000C9F08430B1F4809180008F7D03C08091D8
:1005A00080008F7780938000089584B58F7784BD15
:1005B000089584B58F7DFBCF8091B0008F778093B5
:1005C000B00008958091B0008F7DF9CFCF93DF9375
:1005D000282F30E0F901EA58FE4F8491F901E35EDB
:1005E000FD4FD491F901E75FFD4FC491CC23A1F0F9
:1005F00081110E94BD02EC2FF0E0EE0FFF1FE150D1
:10060000FE4FA591B491EC91ED2381E090E009F4C7
:1006100080E0DF91CF91089580E090E0FACF1F93C2
:10062000CF93DF93282F30E0F901EA58FE4F8491F1
:10063000F901E35EFD4FD491F901E75FFD4FC491ED
:10064000CC23A9F0162F81110E94BD02EC2FF0E0FF
:10065000EE0FFF1FE459FE4FA591B4918FB7F894A8
:10066000EC91111108C0D095DE23DC938FBFDF9190
:10067000CF911F910895DE2BF8CFCF93DF9390E0B9
:10068000FC01E35EFD4F2491875F9D4FFC01849147
:100690008823C9F090E0880F991FFC01EE59FE4FA6
:1006A000A591B491FC01E459FE4FC591D49161111B
:1006B0000DC09FB7F8948C91209582238C938881EC
:1006C000282328839FBFDF91CF910895623051F492
:1006D0009FB7F8943C91822F809583238C93E88177
:1006E0002E2BEFCF8FB7F894EC912E2B2C938FBF3E
:1006F000EACF3FB7F8948091BA039091BB03A091E1
:10070000BC03B091BD0326B5A89B05C02F3F19F0CF
:100710000196A11DB11D3FBFBA2FA92F982F882781
:10072000BC01CD01620F711D811D911D42E0660F5C
:10073000771F881F991F4A95D1F708958F929F922E
:10074000AF92BF92CF92DF92EF92FF924B015C018A
:100750000E9479036B017C010E9479036C197D0969
:100760008E099F09683E734081059105A8F321E039
:10077000821A9108A108B10888EEC80E83E0D81E3D
:10078000E11CF11C81149104A104B10429F7FF902C
:10079000EF90DF90CF90BF90AF909F908F90089593
:1007A0002FB7F8946091B6037091B7038091B803A6
:1007B0009091B9032FBF0895CF92DF92EF92FF92ED
:1007C0000F931F93CF93DF93CDB7DEB7C054D140C3
:1007D0000FB6F894DEBF0FBECDBF0E94D0030091CC
:1007E000F6041091F7042091F8043091F9046B019C
:1007F0007C01C01AD10AE20AF30A97018601003D82
:1008000017402105310590F48091FE04C05CDE4F55
:100810000FB6F894DEBF0FBECDBFDF91CF911F9111
:100820000F91FF90EF90DF90CF9008956093F604C2
:100830007093F7048093F8049093F9041092F104F4
:100840001092F0041092EF041092EE041092ED0456
:1008500062E08091F2040E943D0361E070E080E07C
:1008600090E00E949E0361E08091F2040E943D03AB
:1008700060E08091F2040E940F038091F30485519F
:10088000823020F58BE291E10197F1F762E08091EF
:10089000F2040E943D038091FF0490E082309105B4
:1008A00038F0880F991F880F991F05970197F1F766
:1008B000F89480E00E9444016F3F7F4F8F4F9F4F1D
:1008C00061F41092FE04789480E0A0CF64E170E0BF
:1008D00080E090E00E949E03D9CF81E00E94440115
:1008E0006F3F7F4F8F4F9F4F61F38E010F5F1F4F01
:1008F0006E012FEBC21A2EEFD20A780180E00E941F
:100900004401F701608371838283938381E00E94B5
:100910004401F7016483758386839783F8E0EF0EC3
:10092000F11CEC14FD0451F7789430E020E0F8015C
:10093000C080D180E280F3804481558166817781D7
:10094000FFEFCF16DF06EF06FF0631F04F3F8FEFC8
:1009500058076807780719F41092FE04B5CFF9011B
:1009600083E0F595E7958A95E1F7E351FB4F8081A8
:10097000880FC416D506E606F70610F180832F5FB0
:100980003F4F085F1F4F2832310589F64091F1042F
:100990002091ED048091EE04280F3327331F8091BE
:1009A000EF04280F311D8091F004820F932F911DC9
:1009B00099274817190681F681E08093FE0426CF17
:1009C0008160DCCF87E00E94E602892BD9F7089589
:1009D000CF93DF931F92CDB7DEB7898389818EBD18
:1009E00000000DB407FEFDCF8EB52AE030E0000018
:1009F00021503109E1F70F90DF91CF910895CF9306
:100A0000DF93D82FC62F80EE0E94E80483E290E0A7
:100A10000197F1F78D2F0E94E8048C2F0E94E804C3
:100A2000C11105C08EEEDF91CF910C94E804DF91E7
:100A3000CF910895DF92EF92FF920F931F93CF9380
:100A4000DF93D82EE92E8B01F42E812F0E94E8042B
:100A5000802F0E94E804CD2DDE2D0C0F1D1FC01726
:100A6000D10721F089910E94E804F9CF81E0F812C2
:100A70000AC08EEEDF91CF911F910F91FF90EF9002
:100A8000DF900C94E804DF91CF911F910F91FF90BC
:100A9000EF90DF900895DF92EF92FF920F931F93F4
:100AA000CF93DF937C01C62FD42E862F0E94E804BB
:100AB0008701D0E0C8018E199F098C179D0734F477
:100AC000F80181918F010E94E804F4CFF1E0DF1278
:100AD0000AC08EEEDF91CF911F910F91FF90EF90A2
:100AE000DF900C94E804DF91CF911F910F91FF905C
:100AF000EF90DF900895CF93DF93EC018FEF0E948A
:100B0000E80488838AE090E000000197E9F7DF912C
:100B1000CF910895CF93DF931F92CDB7DEB719829F
:100B2000CE0101960E947B0589810F90DF91CF91C4
:100B30000895CF93DF93C9EED3E00E948A058F3EDC
:100B400069F0219711F0803EC1F721E090E0803EEE
:100B500009F020E0822FDF91CF9108958FEF9FEF72
:100B6000FACFCF92DF92EF92FF920F931F93CF9322
:100B7000DF931F92CDB7DEB7182F6B017A01198270
:100B80000E949905892B61F490E080E00F90DF913D
:100B9000CF911F910F91FF90EF90DF90CF9008952C
:100BA000CE0101960E947B05106889811813ECCF55
:100BB000CE0101960E947B058981813029F78FEF54
:100BC0000E94E804F701808310E000E0F7018081D3
:100BD0008017110649F044F0C601800F911F0E9452
:100BE0007B050F5F1F4FF2CFCE0101960E947B0560
:100BF00081E090E0CBCFCF92DF92EF92FF920F9304
:100C00001F93CF93DF931F92CDB7DEB7182F7B01D1
:100C10006A0119820E949905892B61F490E080E0B5
:100C20000F90DF91CF911F910F91FF90EF90DF9088
:100C3000CF900895CE0101960E947B0510688981AE
:100C40001813ECCF0E948A058823B1F08FEF0E9421
:100C5000E804F60180838701F6012081C8018E191E
:100C60009F092817190641F03CF08FEF0E94E80415
:100C7000F80181938F01F0CFCE0101960E947B0590
:100C800081E090E0CDCF61E08AE00C940F0360E05A
:100C90008AE00C940F03CF93CFB7F8948091A80308
:100CA000811127C0E3E1F2E08491E7E2F2E0949160
:100CB000E82FF0E0EE0FFF1FEE59FE4FA591B49123
:100CC000EC91E92321F461E08AE00E940F0361E0E6
:100CD0008AE00E943D038CB580618CBD8CB5806438
:100CE0008CBD61E08DE00E943D0361E08BE00E94DD
:100CF0003D038091A8038F5F8093A803CFBF61E07D
:100D00008AE00E943D0360E087E00E943D0361E0CD
:100D100089E00E943D0361E08AE00E940F0361E0E8
:100D20008AE00E940F0360E089E0CF910C940F03EA
:100D3000CF93DF9300D0CDB7DEB78091EF03811161
:100D400005C00E944B0681E08093EF030E94E204FD
:100D50000E94470660E080E20E94FF040E94E204D5
:100D60008FEF89831A82AE014E5F5F4FBE016F5FC6
:100D70007F4F80E20E94B1050E94430689810F9057
:100D80000F90DF91CF910895FF920F931F93CF9310
:100D9000DF9300D01F92CDB7DEB78B838B01F42E8B
:100DA0008091A703811105C00E944B0681E08093CA
:100DB000A7030E94E2040E94470662E08CE20E94C0
:100DC000FF0440E061E0CE0103960E944B0582E003
:100DD0000E94E80480E00E94E8048F2D0E94E8044D
:100DE0008EEE0E94E8040E94E20419821A82AE018B
:100DF0004E5F5F4FBE016F5F7F4F8CE20E94FB052D
:100E00000E9443068A81882369F08981F8018083E2
:100E100081E00F900F900F90DF91CF911F910F9174
:100E2000FF90089580E0F5CFCF93DF9300D01F921D
:100E3000CDB7DEB78B838091A703811105C00E94D7
:100E40004B0681E08093A7030E94E2040E944706BC
:100E500061E08FE20E94FF0441E061E0CE01039671
:100E60000E944B050E94E20419821A82AE014E5F75
:100E70005F4FBE016F5F7F4F8FE20E94B1050E94FE
:100E8000430689810F900F900F90DF91CF910895C5
:100E900021E0FC0184858F3F09F420E0822F089532
:100EA000FC0184858F3F71F00E941407843038F074
:100EB0009BEF980F933018F091E08A3009F490E09E
:100EC000892F089580E00895EF92FF920F931F936A
:100ED000CF93DF9300D01F92CDB7DEB7FC0194858E
:100EE0009F3F09F44EC08F019B838091A70381111E
:100EF00005C00E944B0681E08093A7030E94E20494
:100F00000E94470661E08EE20E94FF0441E061E03A
:100F1000CE0103960E944B050E94E2041A821982B8
:100F2000AE014F5F5F4FBE016E5F7F4F8EE20E944A
:100F3000B1050E944306D8011C96EC91F0E0EE0F3B
:100F4000FF1FE050FF4F8FEF9FEF9183808392E36D
:100F5000E92EF12CF80184858F3F79F00E94140767
:100F6000882359F0F1E0EF1AF10839F064E670E0F7
:100F700080E090E00E949E03EDCF8FEFD8011C9699
:100F80008C930F900F900F90DF91CF911F910F9145
:100F9000FF90EF90089508950F931F93CF93DF93E1
:100FA0001F92CDB7DEB78C01DC01ED91FC9100847E
:100FB000F185E02D0995892B81F041E0BE016F5F3D
:100FC0007F4FF80184850E94C406898190E00F90CC
:100FD000DF91CF911F910F9108958FEF9FEFF7CF82
:100FE000CF92DF92EF92FF920F931F93CF93DF93F5
:100FF00000D0CDB7DEB76B017A01FC0184858A830E
:101000008091A703811105C00E944B0681E0809367
:10101000A7030E94E2040E94470661E085E40E9463
:10102000FF0441E061E070E0CE0102960E941A05E3
:101030000E94E20419820E949905892B29F1CE01B0
:1010400001960E947B058981853CF1F40E948A0506
:101050008823B1F08FEF0E94E804E82E8FEF0E9402
:10106000E804FE2CE82E8601CE0CDF1CC016D1064B
:1010700039F08FEF0E94E804F80181938F01F6CFD9
:10108000CE0101960E947B050E94430681E090E01C
:10109000EF2811F090E080E09195819591090F90F3
:1010A0000F90DF91CF911F910F91FF90EF90DF9004
:1010B000CF9008950F931F93CF93DF931F92CDB7D7
:1010C000DEB78C01DC01ED91FC910084F185E02D0F
:1010D0000995892B81F040E0BE016F5F7F4FF801D9
:1010E00084850E94C406898190E00F90DF91CF91A2
:1010F0001F910F9108958FEF9FEFF7CFCF93DF935D
:1011000000D000D0CDB7DEB7FC0184858F3F89F1D8
:101110008C838091A703811105C00E944B0681E05A
:101120008093A7030E94E2040E94470661E08BE2DD
:101130000E94FF0441E061E0CE0104960E944B054D
:101140000E94E2041B821A821982AE014D5F5F4F3A
:10115000BE016F5F7F4F8BE20E94B1050E94430684
:1011600089819A810F900F900F900F90DF91CF910E
:10117000089590E080E0F6CFBF92CF92DF92EF9299
:10118000FF920F931F93CF93DF9300D000D0CDB782
:10119000DEB76C018B017A01FC0184858430B0F0EC
:1011A00081E090E0F60193838283F12CE12CC7016A
:1011B0000F900F900F900F90DF91CF911F910F9193
:1011C000FF90EF90DF90CF90BF900895452B41F3B3
:1011D0008C838091A703811105C00E944B0681E09A
:1011E0008093A7030E94E2040E94470662E084E421
:1011F0000E94FF0440E061E070E0CE0104960E948E
:101200001A0541E0B701C8010E941A050E94E204D4
:101210001A821982AE014F5F5F4FBE016E5F7F4F32
:1012200084E40E94FB050E9443068981882309F417
:10123000B7CF8A81813009F0B3CFF60184858B83E3
:101240001A82198210E000E0BB24B3948091A703B6
:10125000811104C00E944B06B092A7030E94E204D1
:101260000E94470661E08AE20E94FF0441E061E0DB
:10127000CE0103960E944B050E94E204AE014F5F2F
:101280005F4FBE016E5F7F4F8AE20E94B1050E94F0
:1012900043068A81811113C00F5F1F4F64E670E01F
:1012A00080E090E00E949E038A81811103C0093191
:1012B000110560F20931110509F472CF78CF10E001
:1012C00000E0F2CFCF93DF931F92CDB7DEB76983F3
:1012D000DC01ED91FC910280F381E02D41E050E0D2
:1012E000BE016F5F7F4F09950F90DF91CF910895F9
:1012F000089585ED8093BC008091BC0084FDFCCFF7
:101300001092C403089520913E03260F3327331F04
:1013100021323105ECF42091C403FC0190E080E01F
:10132000243069F082E00895A0913E032191AC0140
:10133000425E5C4FA40FB52FB11D2C93019686170A
:1013400098F380913E03680F60933E0380E0089518
:1013500081E00895E091C8038091C703E81730F455
:10136000F0E0E250FD4F808190E008958FEF9FEF15
:1013700008959091C8038091C7032FEF3FEF98170E
:1013800048F4E92FF0E0E250FD4F208130E09F5F0C
:101390009093C803C90108958091C7039091C80331
:1013A000891B990B0895CF92DF92EF92FF920F93D2
:1013B0001F93CF93DF937C01CB018A01209185039A
:1013C000222389F0EB016B01C40ED51ECC15DD057F
:1013D00069F06991D701ED91FC910190F081E02DC8
:1013E000C7010995F3CF642F0E948309C801DF91DB
:1013F000CF911F910F91FF90EF90DF90CF900895C4
:10140000CF93DF931F92CDB7DEB769832091850319
:101410002223F9F02091C503203258F021E030E07A
:10142000FC013383228390E080E00F90DF91CF9125
:1014300008958091C603E82FF0E0EA57FC4F9981A8
:1014400090838F5F8093C6038093C50381E090E013
:10145000ECCF61E0CE0101960E948309F7CFCF93D4
:10146000FC01C48121E020938503C093A603109260
:10147000C6031092C5038385682B85ED94E00E9416
:10148000000A9091C503913208F03FC08091C403D7
:101490008111FCCF82E08093C40381E08093C30379
:1014A0008FEF809384031092830390938203A6E8C6
:1014B000B3E0E2E6F3E080E098132FC010926103FE
:1014C00080916103CC0FC82BC09361038091C2034C
:1014D000813039F51092C203809161038093BB0083
:1014E0008091BC0083FDF8CF85EC8093BC00809197
:1014F000C4038230E1F3809184038F3F31F0809107
:101500008403803211F0809184031092C6031092FC
:10151000C50310928503CF9108952D9121938F5F7C
:10152000CBCF85EEE2CF90E080E008950F931F933C
:10153000CF938C01C62F0E942F0A6C2F6460C801C4
:101540000E942F0A6C2F6B7FC8010E942F0A83EC28
:1015500090E00197F1F7CF911F910F9108950F93AC
:101560001F93CF93DF938C01D62FC42F607F642B02
:101570000E94960A80E1D89FB00111246C2BC8010B
:10158000DF91CF911F910F910C94960ACF93DF9327
:10159000CDB7DEB728970FB6F894DEBF0FBECDBF2C
:1015A00098E0E9E4F1E0DE01119601900D929A9540
:1015B000E1F79091EA04981708F48FEF90E0880F14
:1015C000991F21E030E02C0F3D1F820F931FFC017B
:1015D0006081606840E081EE94E028960FB6F89450
:1015E000DEBF0FBECDBFDF91CF910C94AF0A40E0BC
:1015F00061E081EE94E00E94AF0A8BE39FE10197E6
:10160000F1F7089541E00E94AF0A81E090E008956B
:10161000FB0101900020E9F73197AF01461B570B02
:10162000DC01ED91FC910280F381E02D09948F9211
:101630009F92AF92BF92EF92FF920F931F93CF931F
:10164000DF93CDB7DEB7A1970FB6F894DEBF0FBE1C
:10165000CDBF7C01FA01CB0119A2223008F42AE0A7
:101660008E010F5D1F4F822E912CB12CA12CBF013A
:10167000A50194010E949320F901CA016A300CF57A
:10168000605DD8016E938D01232B242B252B79F7D8
:1016900090E080E0109721F0BD01C7010E94080B87
:1016A000A1960FB6F894DEBF0FBECDBFDF91CF91EC
:1016B0001F910F91FF90EF90BF90AF909F908F90F0
:1016C0000895695CDECF8F929F92AF92BF92CF92C6
:1016D000DF92EF92FF920F931F93CF93DF937C01E2
:1016E000EB016C0182E0C80ED11C4701E5E08E0ED3
:1016F000911C10E000E0F60141916F0150E070E0B4
:1017000060E02AE0CE010E94170B5C01E881F981BC
:101710000190F081E02D6EE2CE0109958A0D9B1DAE
:10172000080F191FC814D90431F7F701458150E09B
:1017300070E060E02AE0CE010E94170B800F911F3D
:10174000DF91CF911F910F91FF90EF90DF90CF909D
:10175000BF90AF909F908F90089565EA71E00C94D0
:10176000080B0F931F93CF93DF938C01D0E0C0E061
:101770006115710519F00E94080BEC01C8010E9467
:10178000AD0B8C0F9D1FDF91CF911F910F9108958D
:10179000CF92DF92EF92FF920F931F93CF93DF933D
:1017A000CDB7DEB728970FB6F894DEBF0FBECDBF1A
:1017B0008C01F42EE52EE0E0F1E090E080E0219154
:1017C00031912F3F3F4F29F0019684309105B9F7B1
:1017D0008FEFD8011C968C938F3F09F48EC0FB01CC
:1017E000428153816481758149835A836B837C83F1
:1017F00088871D828091A703811105C00E944B0636
:1018000081E08093A7030E94E2040E94470664E0FF
:101810008DE20E94FF0440E064E0CE0101960E9448
:101820004B0582E00E94E8048E2D0E94E8048F2D73
:101830000E94E80440E061E0CE0108960E944B055A
:1018400041E061E0CE0105960E944B050E94E20452
:101850001F821E82AE014A5F5F4FBE01695F7F4FEC
:101860008DE20E94B1050E944306D8011C968C911E
:1018700090E0FC01EE0FFF1FE050FF4F918380834B
:101880000E94D0036B017C01D801ED91FC91068888
:10189000F789E02DC8010995811112C00E94D0037B
:1018A0006C197D098E099F09603177428105910588
:1018B00038F461E070E080E090E00E949E03E4CFA5
:1018C000D801ED91FC910688F789E02DC8010995B2
:1018D00021E090E0811101C020E0822F28960FB610
:1018E000F894DEBF0FBECDBFDF91CF911F910F9156
:1018F000FF90EF90DF90CF90089568EA71E08AE161
:1019000094E00E94B10B80E090E0E8CF0F931F932A
:10191000CF93DF93EC010E947E018C01CE010E94E7
:10192000AD0B800F911FDF91CF911F910F91089503
:101930000F931F93CF93DF93EC01888199810097D8
:1019400059F02A813B812617370730F081E0DF917B
:10195000CF911F910F9108958B016F5F7F4F0E9470
:10196000E021009759F0998388831B830A832C8197
:101970003D81232B59F7FC011082E8CF80E0E7CFAF
:10198000EF92FF920F931F93CF93DF936115710531
:1019900041F480E0DF91CF911F910F91FF90EF9084
:1019A000089541155105B1F07B01EC010C811D81B9
:1019B000040F151FB8010E94980C882351F3288149
:1019C00039818C819D81B701820F931F0E94AF22C4
:1019D0001D830C8381E0DECFCF93DF93EC01888100
:1019E0009981009711F00E945721198218821D8257
:1019F0001C821B821A82DF91CF9108950F931F934F
:101A0000CF93DF9300D0CDB7DEB78C0169831A8204
:101A100041E050E0BE016F5F7F4F0E94C00C81111A
:101A200003C0C8010E94EC0CC8010F900F90DF9119
:101A3000CF911F910F910895CF93DF93EC01FB019C
:101A400001900020E9F73197AF01461B570B0E9428
:101A5000C00C811103C0CE010E94EC0CCE01DF91BD
:101A6000CF910895CF93DF93EC01FB014481558121
:101A7000608171810E94C00C811103C0CE010E945F
:101A8000EC0CCE01DF91CF910895EF92FF920F936E
:101A90001F93CF93DF93EC017B018A01BA010E946F
:101AA000980C81110BC0CE010E94EC0CCE01DF918D
:101AB000CF911F910F91FF90EF9008951D830C839C
:101AC000B701888199810E94AF22F0CFFB0101907C
:101AD0000020E9F73197AF01461B570B0C94450DD9
:101AE0000F931F93CF93DF93CDB7DEB7A1970FB6B8
:101AF000F894DEBF0FBECDBF8C01CB01BA01F80157
:101B00001182108213821282158214822AE0AE01A1
:101B10004F5F5F4F0E94481CBE016F5F7F4FC8013F
:101B20000E94660DA1960FB6F894DEBF0FBECDBF22
:101B3000DF91CF911F910F910895EF92FF920F9334
:101B40001F93CF93DF93CDB7DEB7A1970FB6F8946D
:101B5000DEBF0FBECDBF7C01CB01BA01F701118200
:101B6000108213821282158214828E010F5F1F4F22
:101B700022E044E00E94E31B009789F0BC01C7010A
:101B80000E94660DA1960FB6F894DEBF0FBECDBFC2
:101B9000DF91CF911F910F91FF90EF900895C701B2
:101BA0000E94EC0CEFCF0F931F93CF93DF93CDB731
:101BB000DEB762970FB6F894DEBF0FBECDBF8C01C3
:101BC000CB01F801118210821382128215821482D5
:101BD0004AE0BE016F5F7F4F0E94281CBE016F5F0D
:101BE0007F4FC8010E94660D62960FB6F894DEBF63
:101BF0000FBECDBFDF91CF911F910F910895CF936D
:101C0000DF93EC01FB018617970749F06081718132
:101C10006115710541F0448155810E94450DCE0149
:101C2000DF91CF9108950E94EC0CF9CFFC01118255
:101C3000108213821282158214826115710551F08F
:101C4000FB0101900020E9F73197AF01461B570BCC
:101C50000C94450D0895FC01808191810C945721CD
:101C6000CF93DF93CDB7DEB72C970FB6F894DEBFD6
:101C70000FBECDBF8091F003882321F00E94F70AA8
:101C80001092F0038091F1039091F203813091055D
:101C900009F4B9C00CF04FC0892B09F456C080E09C
:101CA0000E94C60A40910A0450910B0460910C04F2
:101CB00070910D04CE0107960E949D0D6CEC71E0B1
:101CC000CE0101960E94160EBE01695F7F4FCE01C4
:101CD00001960E94320D63ED71E00E941C0DBC0163
:101CE00081EE94E00E947E01CE0101960E942B0EAF
:101CF000CE0107960E942B0E81E00E94C60A4091F9
:101D00000604509107046091080470910904CE0103
:101D100007960E949D0D6CEB71E0CE0101960E942A
:101D2000160EBE01695F7F4FCE0101960E94320DF3
:101D30006DEE71E086C08230910509F492C0039780
:101D400009F0ADCF1092EC0403C088E08093EC045E
:101D500060E081EE94E00E942F0A80E00E94C60AB3
:101D600040910604509107046091080470910904A1
:101D7000CE0107960E949D0D6CEB71E0CE0101969D
:101D80000E94160EBE01695F7F4FCE0101960E9430
:101D9000320D64EE72E00E941C0D6FED0E94FE0C8D
:101DA0006FEE71E00E941C0DBC0181EE94E00E9478
:101DB0007E01CE0101960E942B0ECE0107960E9455
:101DC0002B0E81E00E94C60A60913D0170913E0198
:101DD000CE0107960E94D30D63EC71E0CE0101960F
:101DE0000E94160EBE01695F7F4FCE0101960E94D0
:101DF000320D64EE72E00E941C0D6FED0E94FE0C2D
:101E00006FEE71E01EC080E00E94C60A40910A0495
:101E100050910B0460910C0470910D04CE01079653
:101E20000E949D0D6CEC71E0CE0101960E94160E91
:101E3000BE01695F7F4FCE0101960E94320D63EDB6
:101E400071E00E941C0DBC0181EE94E00E947E01B5
:101E5000CE0101960E942B0ECE0107960E942B0EFA
:101E60001AC080E00E94C60A68ED71E081EE94E03D
:101E70000E94080B81E00E94C60A809103049091A1
:101E8000040464EE71E0039711F067EE71E081EEF7
:101E900094E00E94080B2C960FB6F894DEBF0FBE9C
:101EA000CDBFDF91CF9108953F924F925F926F9295
:101EB0007F928F929F92AF92BF92CF92DF92EF92DA
:101EC000FF920F931F93CF93DF93CDB7DEB72B977E
:101ED0000FB6F894DEBF0FBECDBF7C018B016A0147
:101EE0008091EF03811105C00E944B0681E0809331
:101EF000EF030E94E2040E94470661E084E30E942F
:101F0000FF04F80101900020E9F73197BF01601B41
:101F1000710B41E0C8010E944B050E94E2041F8240
:101F20001982AE014F5F5F4FBE01695F7F4F84E34F
:101F30000E94B105182F0E94430611111AC090E0AB
:101F400080E02B960FB6F894DEBF0FBECDBFDF91B9
:101F5000CF911F910F91FF90EF90DF90CF90BF90A6
:101F6000AF909F908F907F906F905F904F903F9039
:101F700008950AE01FEF332433941B831C831D83D1
:101F80001E838091EF03811104C00E944B063092A2
:101F9000EF030E94E2040E94470660E085E30E948E
:101FA000FF040E94E2041B86AE01455F5F4FBE0145
:101FB000695F7F4F85E30E94B105892B61F40E9420
:101FC0004306015009F4BBCF68EE73E080E090E077
:101FD0000E949E03D2CF4F80588469847A848B807C
:101FE0009C80AD80BE800E94430684149504A604A4
:101FF000B70439F3D701ED91FC910684F785E02D04
:1020000083EA91E09A8389834B825C826D827E822F
:10201000A601BE016F5F7F4FC701099592CF1F9246
:102020000F920FB60F9211242F933F934F935F930C
:102030006F937F938F939F93AF93BF93EF93FF9390
:102040008AE194E00E942E02FF91EF91BF91AF913F
:102050009F918F917F916F915F914F913F912F91C0
:102060000F900FBE0F901F9018951F920F920FB6F2
:102070000F9211242F938F939F93EF93FF93E091EF
:102080002A04F0912B048081E0913004F091310416
:1020900082FD1BC09081809133048F5F8F732091EC
:1020A0003404821741F0E0913304F0E0E65EFB4F28
:1020B000958F80933304FF91EF919F918F912F9192
:1020C0000F900FBE0F901F9018958081F4CF1F9234
:1020D0000F920FB60F9211242F933F938F939F93DC
:1020E000AF93BF938091B6039091B703A091B803CB
:1020F000B091B9033091B50323E0230F2D3758F584
:102100000196A11DB11D2093B5038093B603909352
:10211000B703A093B803B093B9038091BA03909129
:10212000BB03A091BC03B091BD030196A11DB11DDD
:102130008093BA039093BB03A093BC03B093BD03F9
:10214000BF91AF919F918F913F912F910F900FBEB3
:102150000F901F90189526E8230F0296A11DB11D20
:10216000D2CF1F920F920FB60F9211242F933F934D
:102170004F935F936F937F938F939F93AF93BF938F
:10218000EF93FF938091B900887F803609F44AC0AD
:10219000F0F5883209F4A7C018F5803109F49BC026
:1021A000B8F4882309F4F9C0883009F494C0FF9189
:1021B000EF91BF91AF919F918F917F916F915F91BF
:1021C0004F913F912F910F900FBE0F901F90189538
:1021D000883109F488C0803251F78093840314C099
:1021E000803409F49DC040F48033B9F38833F9F6A4
:1021F0008093840385ECB0C0803509F485C08835B0
:1022000009F496C0883499F60E947909D0CF8839AC
:1022100009F48CC038F5883729F050F4883611F06D
:10222000803729F683E08093C4031092600357C07F
:10223000883809F47BC0803919F0803809F0B7CFAD
:1022400080916003803208F071C0E091600381E00A
:102250008E0F809360038091BB00F0E0E05CFC4F48
:1022600080833DC0803B39F0E0F4803A09F479C0C6
:10227000883A09F09CCF84E08093C40310923F0316
:1022800010923E03E091C003F091C1030995809143
:102290003E0381110FC081E080933E0310921E0324
:1022A00009C0803C09F4A6CF883C09F4A3CF883B41
:1022B00009F07DCFE0913F0381E08E0F80933F03D3
:1022C000F0E0E25EFC4F80818093BB0090913F0381
:1022D00080913E0329C0809161038093BB0085EC0F
:1022E0008093BC0064CF9091830380918203981700
:1022F00058F5E091830381E08E0F80938303F0E033
:10230000EE59FC4F8081E9CFE091830381E08E0F8D
:10231000809383038091BB00F0E0EE59FC4F8083F3
:1023200090918303809182039817C8F285E8D8CFF3
:10233000E091830381E08E0F809383038091BB0043
:10234000F0E0EE59FC4F80838091C30381115CCF94
:1023500081E08093C20384EA8093BC001092C4039E
:1023600026CF85EC8093BC001092C403809160035B
:10237000803230F4E0916003F0E0E05CFC4F1082CA
:102380006091600370E0E091BE03F091BF0380E4D0
:1023900093E00995109260030ACF1092840334CF22
:1023A0003F924F925F926F927F928F929F92AF92E5
:1023B000BF92CF92DF92EF92FF920F931F93CF9332
:1023C000DF93CDB7DEB72B970FB6F894DEBF0FBE05
:1023D000CDBF4C018E010F5F1F4F87E0F8011192B6
:1023E0008A95E9F781EB93E09B838A838DEA93E0FA
:1023F0009E838D8389EA93E0998788878091EF0394
:10240000811105C00E944B0681E08093EF030E947A
:10241000E2040E94470661E081E20E94FF048FEF20
:102420008B8741E061E0CE010B960E944B050E9434
:10243000E2041A860E949905892BD1F1CE010A96F1
:102440000E947B058A85813A99F50E948A05382E7B
:10245000882371F1D12CC12C482E512CC414D504E1
:1024600004F58FEF0E94E804F8018083F12CE12C41
:10247000682E712CE614F70474F4F801A180B28080
:10248000AE0CBF1C8FEF0E94E804F5018083FFEFC4
:10249000EF1AFF0AEFCF8FEFC81AD80A0D5F1F4F50
:1024A000DDCFE3E03E1204C0CE010A960E947B0518
:1024B0000E9443068091B1039091B203A091B303AF
:1024C000B091B403F40182839383A483B5832B96E4
:1024D0000FB6F894DEBF0FBECDBFDF91CF911F9135
:1024E0000F91FF90EF90DF90CF90BF90AF909F90B3
:1024F0008F907F906F905F904F903F900895EAE1AA
:10250000F4E01382128248EE53E060E070E044830E
:1025100055836683778385E591E09183808385EC9D
:1025200090E09587848784EC90E09787868780EC9D
:1025300090E0918B808B81EC90E0938B828B82EC8E
:1025400090E0958B848B86EC90E0978B868B118E38
:10255000128E138E148EE7EBF4E083EA91E0918300
:1025600080831282138214821582EDEBF4E0918352
:1025700080831282138214821582E3ECF4E091834B
:1025800080831282138214821582E9ECF4E0918335
:1025900080831282138214821582EFECF4E091831F
:1025A00080831282138214821582E5EDF4E0138297
:1025B0001282448355836683778327E631E0318333
:1025C0002083EFE0F5E091838083128213821482EE
:1025D0001582E0E0F5E0138212824483558366831E
:1025E000778385E891E09183808384E08487ADEEF2
:1025F000B4E082E015968C9315979BE016969C9319
:102600001697EFE1F2E0E4911796EC931797EBE061
:10261000F2E0E4911896EC93189740E85EE360E0EE
:1026200070E01D964D935D936D937C935097E1EE12
:10263000F4E01382128229E731E03183208397E2AC
:10264000948390E190878187128688E0838708953C
:10265000CF93DF93CDB7DEB7E0970FB6F894DEBF28
:102660000FBECDBF789484B5826084BD84B581608F
:1026700084BD85B5826085BD85B5816085BD80914D
:102680006E00816080936E001092810080918100C5
:1026900082608093810080918100816080938100BD
:1026A000809180008160809380008091B10084607F
:1026B0008093B1008091B00081608093B0008091E0
:1026C0007A00846080937A0080917A00826080939F
:1026D0007A0080917A00816080937A0080917A00FC
:1026E000806880937A001092C100E0912A04F091F2
:1026F0002B0482E08083E0912604F091270410826D
:10270000E0912804F09129048FEC80831092320428
:10271000E0912E04F0912F0486E08083E0912C0458
:10272000F0912D04808180618083E0912C04F091F0
:102730002D04808188608083E0912C04F0912D0429
:10274000808180688083E0912C04F0912D04808149
:102750008F7D808362E083E00E943D0362E086E03B
:102760000E943D0362E085E00E943D0361E08FE04E
:102770000E943D0361E080E10E943D0361E08EE044
:102780000E943D0361E081E10E943D0361E08FE032
:102790000E940F0361E080E10E940F0360E08EE081
:1027A0000E940F0360E081E10E940F0362E08091CC
:1027B000F2040E943D030E94D003605D77408109CE
:1027C00091096093F6047093F7048093F804909352
:1027D000F90487E38093FF041092C8031092C703A3
:1027E0001092C6031092C5031092C40381E0809337
:1027F000C3031092C20361E082E10E940F0361E013
:1028000083E10E940F038091B9008E7F8093B9000D
:102810008091B9008D7F8093B90088E48093B800DF
:1028200085E48093BC008CE791E09093C103809392
:10283000C0038DE791E09093BF038093BE03109295
:10284000E6048091EA04823018F098E09093E60460
:102850009091EB04992339F0813029F48091E604BA
:1028600084608093E60462E370E080E090E00E9480
:102870009E036091EC0481EE94E00E942F0A68EEC2
:1028800073E080E090E00E949E0360E381EE94E0BC
:102890000E94960A0BE416E4C8010197F1F760E381
:1028A00081EE94E00E94960AC8010197F1F760E377
:1028B00081EE94E00E94960A83E592E00197F1F799
:1028C00060E281EE94E00E94960A6091E604606204
:1028D00040E081EE94E00E94AF0A84E08093E70438
:1028E00040E06CE081EE94E00E94AF0A0E94F70A9B
:1028F00082E08093E80440E066E081EE94E00E948C
:10290000AF0A40E062E081EE94E00E94AF0A8BE300
:102910009FE10197F1F788E08093EC0460E081EE9D
:1029200094E00E942F0A0E94F70A61E081E10E9470
:102930000F030E9498068F3F59F467EE71E08AE119
:1029400094E00E948C018AE194E00E94AD0BFFCFDD
:102950008091EF03811105C00E944B0681E08093B6
:10296000EF030E94E2040E94470660E087E30E94B2
:10297000FF040E94E2041982AE014F5F5F4F69ECD1
:1029800073E087E30E94B1050E94430669EC73E09F
:10299000CE0107960E94160E8B859C85892B41F0EF
:1029A00061EF71E08F8198850E94A622892B51F0FA
:1029B0006BEC71E08AE194E00E948C018AE194E082
:1029C0000E94AD0B8091030490910404039709F4D5
:1029D00021C56BEA71E08AE194E00E948C0163E119
:1029E00071E08AE194E00E94B10B80E00E94C60A87
:1029F0006DE971E081EE94E00E948C0181E00E941B
:102A0000C60A65E971E081EE94E00E948C0108E05D
:102A100011E0F80101900020E9F78F010950114001
:102A2000E3E1F1E001900020E9F79F0124513140FA
:102A300079018091EF03811105C00E944B0681E06E
:102A40008093EF030E94E2040E94470662E081E166
:102A50000E94FF0440E06E2D83E191E00E944B054F
:102A600041E0602F88E091E00E944B050E94E20463
:102A70001D861982AE014F5F5F4FBE01635F7F4FBE
:102A800081E10E94B105892B11F48FEF8D870E949F
:102A900043068D8514E08F3F71F00AE068E873E12A
:102AA00080E090E00E949E030E949806182F8D7F80
:102AB00011F4015099F7812F90E0909304048093D2
:102AC000030460ED77E080E090E00E949E03133005
:102AD00009F4A0C460E081E10E940F03CE010796D3
:102AE0000E942B0E88E199E20FB6F894A895809386
:102AF00060000FBE9093600013E0212E312CA8954A
:102B000080913F0190914001A0914101B09142011B
:102B100040911604509117046091180470911904A3
:102B20006C017D01C41AD50AE60AF70AB701A601AD
:102B3000403D57406105710508F4ACC08093160410
:102B400090931704A0931804B09319040E94DC0317
:102B5000882349F08091F3048B3028F08D3040F0C9
:102B600085518230D0F160E070E080EC9FE71CC0BE
:102B70006091EE0470E090E080E00E94CD1E2DECAC
:102B80003CEC4CEC5DE30E942C1F6B017C016091DE
:102B9000ED0470E090E080E00E94CD1E9B01AC014E
:102BA000C701B6010E94222060930A0470930B04AF
:102BB00080930C0490930D040E94DC03882341F061
:102BC0008091F3048C3009F465C3C8F48B3081F133
:102BD00060E070E080EC9FE753C06091ED0470917D
:102BE000EE0476276727762790E080E00E94CB1ED0
:102BF0002DEC3CEC4CEC5DE30E942C1FD5CF8551B5
:102C0000823030F71091EF04612F70E0762F662745
:102C100066277F778091F004682B90E080E00E9427
:102C2000CB1E2DEC3CEC4CEC5DE30E942C1F4EC304
:102C30006091EF0470E090E080E00E94CB1E6B0199
:102C40007C011091F00417FF0AC0AC019B0160E009
:102C500070E080E89FEB0E9421206B017C011F70D7
:102C6000612F70E090E080E00E94CD1E2DEC3CECE6
:102C70004CEC5DE30E942C1FA70196010E942220CC
:102C800060930604709307048093080490930904EA
:102C90000E94300E80913F0190914001A09141012E
:102CA000B091420140910E0450910F0460911004C4
:102CB000709111046C017D01C41AD50AE60AF70A65
:102CC000B701A60140325E446105710508F4B8C041
:102CD00080930E0490930F04A0931004B0931104FA
:102CE000109105041111ACC080910304909104046B
:102CF000039709F0A5C061E081E10E940F03E09015
:102D00003D01F0903E0161E272E0CE010D960E941D
:102D1000160E6FE272E08AE194E00E94B10B40E58A
:102D200050E066E271E080E095E00E94540F892B4C
:102D300009F401C361E572E08AE194E00E94B10BFD
:102D400065E672E0CE0101960E94160EBE01635F39
:102D50007F4FCE0101960E94320D6AE672E00E941A
:102D60001C0DBC0180E095E00E94860CCE0101960E
:102D70000E942B0E66E271E0CE0101960E94160EB3
:102D800064E772E0CE0107960E94160EBE016F5FE7
:102D90007F4FCE0107960E94320DBC0180E095E086
:102DA0000E94860CCE0107960E942B0ECE01019642
:102DB0000E942B0E6BE772E080E095E00E94B10B61
:102DC00080E095E00E94AD0B67EA71E0CE010796C6
:102DD0000E94160E80E095E00E94500781117BC290
:102DE0008F819885009709F4A2C20E94011C9B0163
:102DF0002F5031097B012A31310520F0E0903D014F
:102E0000F0903E0180E095E00E9464078AE194E042
:102E10000E94AD0B6DE872E08AE194E00E94B10B74
:102E2000CE0107960E942B0E60E081E10E940F0305
:102E3000CE010D960E942B0EF0923E01E0923D01D4
:102E4000A89583E00E94E6028C01892BB9F42091B9
:102E50002001309121012130310581F481E08093FE
:102E6000F0038091F1039091F203009709F06AC298
:102E70003093F2032093F1030E94300E109321014E
:102E80000093200186E00E94E6027C0185E00E941A
:102E9000E6028C01E114F104D9F4809124019091AF
:102EA00025010197A9F48091F1039091F203892BF8
:102EB00079F480913D0190913E018832910544F46E
:102EC00021E020930504019690933E0180933D01FB
:102ED00001151105D9F480912201909123010197E8
:102EE000A9F48091F1039091F203892B79F48091F8
:102EF0003D0190913E018031910544F021E0209305
:102F00000504019790933E0180933D010E94300E8D
:102F1000F0922501E09224011093230100932201F5
:102F200080913F0190914001A0914101B0914201F7
:102F3000409112045091130460911404709115048F
:102F40006C017D01C41AD50AE60AF70AB701A60189
:102F500040365A4E6105710508F40EC18093120483
:102F600090931304A0931404B09315048091030468
:102F700090910404039709F0FFC000913D01109166
:102F80003E0161E081E10E940F03B801CE0101968C
:102F90000E94D30D6CEA72E0CE0107960E94160ED5
:102FA00040910A0450910B0460910C0470910D043F
:102FB000CE010D960E949D0D68EB72E0CE01439606
:102FC0000E94160E40910604509107046091080477
:102FD00070910904CE0149960E949D0D65EC72E046
:102FE000CE0185960E94160E18A21F8E1AA219A253
:102FF0001CA21BA2BE016B5D7F4FCE014F960E94AB
:10300000FF0DBE01675E7F4FCE014F960E94320DCD
:10301000BE016D5E7F4F0E94320DBE01635F7F4F28
:103020000E94320DBE01695F7F4F0E94320DBE01CA
:103030006F5F7F4F0E94320D1CA61BA61EA61DA609
:1030400018AA1FA6BC01CE018B960E94FF0DCE01CF
:103050004F960E942B0ECE0185960E942B0ECE011C
:1030600049960E942B0ECE0143960E942B0ECE0154
:103070000D960E942B0ECE0107960E942B0ECE01BC
:1030800001960E942B0E6FE272E08AE194E00E94AA
:10309000B10B40E550E066E271E080E095E00E940F
:1030A000540F892B09F460C161E572E08AE194E074
:1030B0000E94B10B65E672E0CE0101960E94160EE9
:1030C000BE01655D7F4FCE0101960E94320D6AE61A
:1030D00072E00E941C0DBC0180E095E00E94860C0D
:1030E000CE0101960E942B0E66E271E0CE010196A0
:1030F0000E94160E64E772E0CE0107960E94160E3B
:10310000BE016F5F7F4FCE0107960E94320DBC015A
:1031100080E095E00E94860CCE0107960E942B0E5F
:10312000CE0101960E942B0E6BE772E080E095E0E5
:103130000E94B10B80E095E00E94AD0B80E095E02D
:103140000E9450078111FACF80E095E00E94640749
:103150008AE194E00E94AD0B6DE872E08AE194E0B0
:103160000E94B10B1092050460E081E10E940F0300
:10317000CE018B960E942B0E0E94D00360933F01DC
:103180007093400180934101909342014090060466
:103190005090070460900804709009040091FF03A8
:1031A0001091000420910104309102046B017C0114
:1031B000C01AD10AE20AF30A9701860108391A43B4
:1031C0002105310520F16093FF0370930004809383
:1031D0000104909302042091FB033091FC03409181
:1031E000FD035091FE03C301B2010E9421206093B0
:1031F000F7037093F8038093F9039093FA034092D6
:10320000FB035092FC036092FD037092FE038090DA
:10321000F7039090F803A090F903B090FA03CC2440
:10322000C394D12C2AE939E949E15EE3C501B4012F
:103230000E948E2087FF02C0D12CC12C60913D01DD
:1032400070913E01072E000C880B990B0E94CD1E39
:10325000A30192010E9421202B013C0120E030E0DB
:1032600040E450E40E948E2087FD85C02AE939E9B8
:1032700049E15EE3C501B4010E948E2087FFB3C01F
:10328000F12CE12CF0E44F2EFCE95F2E612C712C27
:1032900011E09CC11091EF04612F70E090E080E09C
:1032A0000E94CB1E6B017C016091F0046F7070E096
:1032B00090E080E00E94CD1E2DEC3CEC4CEC5DE3F8
:1032C0000E942C1FA70196010E94222017FFD8CC34
:1032D0009058D6CC11E080E095E00E947E08892BC2
:1032E00009F478CD80E095E00E945A08082F112358
:1032F000D9F01A8219821C821B821E821D82BE0195
:10330000695F7F4FCE0101960E94FF0D602FCE01B5
:1033100001960E94FE0CBC01CE0107960E94FF0D93
:10332000CE0101960E942B0E0F33A9F6D3CF60E099
:1033300070E0CB015CCD6AE972E08AE194E00E9422
:10334000B10B72CD8130910519F422E030E090CDBF
:10335000029729F43092F2032092F1038DCD10925E
:10336000F2031092F10388CD6AE972E08AE194E0F9
:103370000E94B10BF9CE26E636E646E65FE3C301CE
:10338000B2010E948E2087FF37C02DEC3CEC4CE44C
:103390005EE3C301B2010E948E2087FF00C22DECC4
:1033A0003CEC4CE45EEBC301B2010E948E2087FF2F
:1033B000F9C02AE939E949E15EE3C501B4010E9497
:1033C0008E2094E0E92EF12C60E4462E6CE9562E16
:1033D000612C712C87FFF9C080E3482E85E7582EB9
:1033E000612C712CF2C0F12CE12C70E3472E75E7B3
:1033F000572E612C712C4CCFEE24E394F12CF5CF99
:1034000061E08FE00E940F0361E080E10E940F0302
:1034100060E0A9C167EF72E08AE194E00E94080BC6
:103420008091EF03811105C00E944B0681E08093DB
:10343000EF030E94E2040E94470661E083E20E94DB
:10344000FF048FEF8D8741E061E0CE010D960E9471
:103450004B050E94E2041982AE014F5F5F4F6FEC93
:1034600073E083E20E94B1050E9443066FEC73E0B3
:103470008AE194E00E94B10B83EA91E09A83898308
:103480001B821C821D821E82CE0101960E94D011D9
:1034900067EF71E08AE194E00E94080B6AE174E052
:1034A000CE0101960E94630B8AE194E00E94AD0B6D
:1034B0008091EF03811105C00E944B0681E080934B
:1034C000EF030E94E2040E94470661E085E20E9449
:1034D000FF048FEF898F41E061E0CE0149960E94A1
:1034E0004B050E94E2041B8A1D861E861F86188AD1
:1034F000AE014D5E5F4FBE01635F7F4F85E20E946C
:10350000B1050E944306CD84DE84EF84F88864E030
:1035100072E08AE194E00E94080B2AE0B701A6015C
:10352000F7FE0DC06DE28AE194E00E94500244274C
:103530005527BA014C195D096E097F092AE08AE115
:1035400094E00E94170B6CE172E08AE194E00E9423
:10355000B10B0E94F70A80E00E94C60A6AE871E097
:1035600081EE94E00E948C0181E00E94C60A83EA09
:1035700091E09A8389831B821C821D821E82CE0168
:1035800001960E94D01161EE74E0CE0101960E9476
:10359000630B60ED77E080E090E00E949E030E9464
:1035A000F70A98CA2AE939E949E15EE3C501B4019D
:1035B0000E948E2053E0E52EF12C87FF0DCF48E9C5
:1035C000442E4AE3542E612C712C10E0B501A40165
:1035D000CE0101960E949D0DB601CE0107960E9474
:1035E000D30DB701CE010D960E94D30D60913D0120
:1035F00070913E01072E000C880B990B0E94CD1E86
:103600002091060430910704409108045091090468
:103610000E942120AB01BC01CE0149960E949D0D64
:103620001C8A1B8A1E8A1D8A188E1F8ABE01675E2D
:103630007F4FCE0143960E94FF0D6DED72E0CE01EB
:1036400043960E941C0DBE01635F7F4F0E94320DA6
:1036500061EE72E00E941C0DBE01695F7F4F0E9407
:10366000320D6DED72E00E941C0DBE016F5F7F4F49
:103670000E94320DBC018AE194E00E94860CCE01CA
:1036800043960E942B0ECE0149960E942B0ECE012E
:103690000D960E942B0ECE0107960E942B0ECE0196
:1036A00001960E942B0E40913F0150914001609184
:1036B000410170914201CE0101960E94700D40912E
:1036C000F3035091F4036091F5037091F603CE017A
:1036D00007960E94700D66EE72E0CE010D960E9474
:1036E000160EBE01695F7F4FCE010D960E94320D0E
:1036F00060EF72E00E941C0DBE016F5F7F4F0E9461
:10370000320DBC018AE194E00E94860CCE010D9638
:103710000E942B0ECE0107960E942B0ECE01019621
:103720000E942B0EC0903F01D0904001E0904101DB
:10373000F09042018091F3039091F403A091F5037E
:10374000B091F6038C159D05AE05BF05D8F4112385
:1037500009F456CE60E08FE00E940F0360E080E144
:103760000E940F0361E08EE00E940F034C0C5D1C71
:103770006E1C7F1C4092F3035092F4036092F50399
:103780007092F60380E090E0892B09F4B8C90E949A
:103790001A02882309F4B0C90E940000ADC92AE9C1
:1037A00039E949E15EE3C501B4010E948E2032E0AF
:1037B000E32EF12C87FF03CF20E2422E2EE4522E7F
:1037C000612C712C65CDEF920F931F93CF93DF93F4
:1037D000E80134E047FD34E1042E000C550B57FF9F
:1037E00003C0519541955109E32E022F242FAE01BC
:1037F0000E94841CCE01DF91CF911F910F91EF9019
:1038000008951F93FC0199278827BC01E894119122
:103810001032E9F3193010F01E30C8F31B3251F0AA
:103820001D3249F4689406C00E94331C610F711D5B
:10383000811D911D119110531A30B0F33EF49095F3
:103840008095709561957F4F8F4F9F4F1F91089581
:10385000BB274A3031F4992322F4BDE2909581953B
:103860009F4F0C946B1C592F482F372F262F660F14
:10387000771F881F991F660F771F881F991F620F78
:10388000731F841F951F660F771F881F991F089548
:10389000BB27FA01A62F6217710581059105330B2D
:1038A00030FB66F0AA27660F771F881F991FAA1F93
:1038B000A21710F0A21B63953850A9F7A05DAA3398
:1038C00008F0A95DA19336F7B111B1931082CA0136
:1038D0000C94BB1EBB27FB015527AA27880F991FF5
:1038E000AA1FA41710F0A41B83955051B9F7A05D2F
:1038F000AA3308F0A95DA193009779F7B111B193AC
:103900001192CB010C94BB1EA9E0B0E0EAE8FCE107
:103910000C94F01F6A01F22EB02E102FFBE3AF2E95
:10392000A01608F41BE31F5F012F27E0AE014F5FD5
:103930005F4F0E94E31DBC018981982F99709130DF
:1039400009F43FC09BE2E1FC04C09E2D9170E0FCB5
:103950003AC05E2D5071E82FE87083FF46C084E0C6
:10396000911101C083E0EF2DE81B8F1508F0E0E016
:10397000D6018E2F20E2552351F1992329F0D6014B
:103980009C93C60101966C0196012D5F3F4FE2FEAC
:1039900024C08EE4D6018C9391E411969C931197E8
:1039A00012968C93D9018E2F90E281111BC0E20FE9
:1039B000F32FF11D10828EEF9FEF2996ECE00C940F
:1039C0000C209DE2C6CF90E2C4CF2D93815081118F
:1039D000FCCFCE0ED11CE0E0D0CF8EE6D6018C938A
:1039E00091E6DBCF9D938150E0CF482F447082FF5A
:1039F0003DC084E0911101C083E08F1510F4EF2DDC
:103A0000E81BD6018E2F20E2552309F1992329F0D6
:103A1000D6019C93C60101966C0196012D5F3F4F24
:103A2000E2FE1BC089E4D6018C938EE411968C9340
:103A3000119786E412968C93D9018E2F90E28823F9
:103A400009F4B5CF9D938150FACF2D938150811108
:103A5000FCCFCE0ED11CE0E0D9CF89E6D6018C9305
:103A60008EE611968C93119786E6E4CF9B0177FF43
:103A700002C030E020E0A1E0B0E0911102C0B0E06F
:103A8000A0E0F9013196AE0FBF1F8B2C912CBB200B
:103A900009F461C05401EFEFAE1ABE0AAA0DBB1DB6
:103AA000FA161B0619F014F04F2D4A1B511188C04D
:103AB000E3FC59C07601A42FB0E2A1114FC0C40E9F
:103AC000D11C992309F45BC040E0D6011196F601A0
:103AD00090836D01552309F448C0012F060F9A8188
:103AE000582F507184FF03C0913309F40150101610
:103AF0000CF047C0093008F008E0EEE2FE2E5B0152
:103B0000A01AB10885019194819491082F3F320742
:103B100029F4D601FC92F60131966F016217730702
:103B200094F1021713077CF5DB01A21BB30BAA2447
:103B3000A394B12CAC0EBD1EAA0DBB1D11968C9189
:103B400021503109D601119628153905F4F0F601F6
:103B500080836D01DBCFB12CA12CA0CFF701B193F5
:103B60007F01A150AACF9111B0CFD601942F50E37D
:103B700002C05D9391509111FCCFC40ED11C40E066
:103B8000ACCF01E0BACF80E3DBCF6217730731F42B
:103B9000963388F4953311F4552369F0F601808348
:103BA000FD01842F90E2811108C0A40FB11D1C9269
:103BB00090E080E002CF81E3F1CF91938150F3CF89
:103BC000911183CF8ACF283008F027E03327DA011C
:103BD000990F311D87FD916000966105710539F4DB
:103BE00032602E5F3D9330E32A95E1F708959F3FC1
:103BF00030F080387105610509F03C5F3C5F3D9312
:103C0000913008F08068911DDF93CF931F930F933D
:103C1000FF92EF92192F987F9695E92F969596959A
:103C2000E90FFF27EE53FF4F99273327EE24FF2498
:103C3000A701E70105900894079428F4360FE71EC2
:103C4000F81E491F511D660F771F881F991F069484
:103C5000A1F70590079428F4E70EF81E491F561F98
:103C6000C11D770F881F991F661F0694A1F7059045
:103C7000079428F4F80E491F561FC71FD11D880F3F
:103C8000991F661F771F0694A1F70590079420F4EB
:103C9000490F561FC71FD81F990F661F771F881F10
:103CA0000694A9F784911095177041F0D695C795A1
:103CB00057954795F794E7941A95C1F7E8E6F0E031
:103CC00068941590159135916591959105907FE2D5
:103CD0007395E118F10A430B560BC90BD009C0F7D5
:103CE000E10CF11E431F561FC91FD01D7EF4703317
:103CF00011F48A95E6CFE894015030F0080F0AF4E9
:103D00000027021708F4202F2395022F7A3328F07A
:103D100079E37D932A95E9F710C07D932A9589F67A
:103D2000069497956795379517951794E118F10ABA
:103D3000430B560BC90BD00998F023957E917395D0
:103D40007A3308F070E37C932013B8F77E917061AA
:103D50007D9330F0839571E37D9370E32A95E1F7CD
:103D60001124EF90FF900F911F91CF91DF91992730
:103D700087FD90950895DC01FC01672F71917723F1
:103D8000E1F7329704C07C916D9370836291AE1716
:103D9000BF07C8F30895E89409C097FB3EF49095D7
:103DA0008095709561957F4F8F4F9F4F9923A9F014
:103DB000F92F96E9BB279395F695879577956795A3
:103DC000B795F111F8CFFAF4BB0F11F460FF1BC0E7
:103DD0006F5F7F4F8F4F9F4F16C0882311F096E97A
:103DE00011C0772321F09EE8872F762F05C0662328
:103DF00071F096E8862F70E060E02AF09A95660FE1
:103E0000771F881FDAF7880F9695879597F9089599
:103E1000990F0008550FAA0BE0E8FEEF16161706DB
:103E2000E807F907C0F012161306E407F50798F043
:103E3000621B730B840B950B39F40A2661F0232B5C
:103E4000242B252B21F408950A2609F4A140A695D8
:103E50008FEF811D811D08950E943F1F0C94B01F9C
:103E60000E94A21F38F00E94A91F20F0952311F094
:103E70000C94991F0C949F1F11240C94E41F0E9412
:103E8000C11F70F3959FC1F3950F50E0551F629FBE
:103E9000F001729FBB27F00DB11D639FAA27F00DA3
:103EA000B11DAA1F649F6627B00DA11D661F829FCA
:103EB0002227B00DA11D621F739FB00DA11D621FAF
:103EC000839FA00D611D221F749F3327A00D611DCC
:103ED000231F849F600D211D822F762F6A2F1124AE
:103EE0009F5750409AF0F1F088234AF0EE0FFF1FE1
:103EF000BB1F661F771F881F91505040A9F79E3F38
:103F0000510580F00C94991F0C94E41F5F3FE4F37B
:103F1000983ED4F3869577956795B795F795E7958D
:103F20009F5FC1F7FE2B880F911D9695879597F996
:103F3000089597F99F6780E870E060E008959FEF2B
:103F400080EC089500240A94161617061806090630
:103F5000089500240A9412161306140605060895FF
:103F6000092E0394000C11F4882352F0BB0F40F487
:103F7000BF2B11F460FF04C06F5F7F4F8F4F9F4FC7
:103F8000089557FD9058440F551F59F05F3F71F049
:103F90004795880F97FB991F61F09F3F79F08795B0
:103FA0000895121613061406551FF2CF4695F1DF39
:103FB00008C0161617061806991FF1CF86957105C9
:103FC000610508940895E894BB2766277727CB01FD
:103FD00097F908952F923F924F925F926F927F923E
:103FE0008F929F92AF92BF92CF92DF92EF92FF9209
:103FF0000F931F93CF93DF93CDB7DEB7CA1BDB0BB5
:104000000FB6F894DEBF0FBECDBF09942A88398859
:1040100048885F846E847D848C849B84AA84B98460
:10402000C884DF80EE80FD800C811B81AA81B9816C
:10403000CE0FD11D0FB6F894DEBF0FBECDBFED0180
:1040400008955058BB27AA270E9439200C94B01F0E
:104050000E94A21F38F00E94A91F20F039F49F3F50
:1040600019F426F40C949F1F0EF4E095E7FB0C94D2
:10407000991FE92F0E94C11F58F3BA1762077307EF
:104080008407950720F079F4A6F50C94E31F0EF44D
:10409000E0950B2EBA2FA02D0B01B90190010C0158
:1040A000CA01A0011124FF27591B99F0593F50F470
:1040B000503E68F11A16F040A22F232F342F4427C8
:1040C000585FF3CF469537952795A795F0405395C0
:1040D000C9F77EF41F16BA0B620B730B840BBAF090
:1040E0009150A1F0FF0FBB1F661F771F881FC2F7FB
:1040F0000EC0BA0F621F731F841F48F4879577950F
:104100006795B795F7959E3F08F0B0CF9395880FC8
:1041100008F09927EE0F9795879508950E94081F3C
:1041200008F48FEF0895A1E21A2EAA1BBB1BFD0114
:104130000DC0AA1FBB1FEE1FFF1FA217B307E40786
:10414000F50720F0A21BB30BE40BF50B661F771FDE
:10415000881F991F1A9469F76095709580959095BE
:104160009B01AC01BD01CF010895EE0FFF1F05902B
:10417000F491E02D09940F931F93CF93DF93823036
:10418000910510F482E090E0E0911705F091180598
:1041900030E020E0B0E0A0E0309799F4211531053F
:1041A00009F44AC0281B390B24303105D8F58A811F
:1041B0009B816115710589F1FB0193838283FE0167
:1041C00011C0408151810281138148175907E0F0E5
:1041D0004817590799F4109761F012960C931297AB
:1041E00013961C933296CF01DF91CF911F910F91BF
:1041F00008950093170510931805F4CF2115310584
:1042000051F04217530738F0A901DB019A01BD01B3
:10421000DF01F801C1CFEF01F9CF9093180580932A
:104220001705CDCFFE01E20FF31F8193919322502A
:10423000310939832883D7CF209115053091160590
:10424000232B41F42091450130914601309316050E
:10425000209315052091430130914401211531052A
:1042600041F42DB73EB74091470150914801241BBE
:10427000350BE0911505F0911605E217F307A0F450
:104280002E1B3F0B2817390778F0AC014E5F5F4FAC
:104290002417350748F04E0F5F1F509316054093C3
:1042A0001505819391939FCFF0E0E0E09CCFCF93F1
:1042B000DF930097E9F0FC01329713821282A091FC
:1042C0001705B0911805ED0130E020E01097A1F43A
:1042D00020813181820F931F2091150530911605A1
:1042E0002817390709F061C0F0931605E09315050A
:1042F000DF91CF910895EA01CE17DF07E8F54A81F3
:104300005B819E0141155105B1F7E901FB83EA8309
:1043100049915991C40FD51FEC17FD0761F48081B5
:1043200091810296840F951FE90199838883828188
:1043300093819B838A83F0E0E0E012968D919C91BB
:1043400013970097B9F52D913C911197CD010296E5
:10435000820F931F209115053091160528173907F4
:1043600039F6309751F51092180510921705B09351
:104370001605A0931505BCCFD383C283408151811C
:10438000840F951FC817D90761F44E5F5F4F88816E
:104390009981480F591F518340838A819B81938360
:1043A00082832115310509F0B0CFF0931805E09311
:1043B00017059ECFFD01DC01C0CF13821282D7CF3B
:1043C000B0E0A0E0E6EEF1E20C94EC1F8C01009767
:1043D00051F4CB010E94BB208C01C801CDB7DEB7E0
:1043E000E0E10C940820FC01E60FF71F9C0122502D
:1043F0003109E217F30708F49DC0D901CD91DC9192
:104400001197C617D70798F0C530D10530F3CE0104
:1044100004978617970708F3C61BD70B2297C193FB
:10442000D1936D937C93CF010E945721D6CF5B012E
:10443000AC1ABD0A4C018C0E9D1EA0911705B091BF
:104440001805512C412CF12CE12C109731F580915D
:104450001505909116058815990509F05CC046165A
:10446000570608F058C0809143019091440100978D
:1044700041F48DB79EB74091470150914801841B8C
:10448000950BE817F90708F055C0F0931605E0936F
:104490001505F90171836083A0CF8D919C911197CF
:1044A00012966C90129713967C901397A815B905E5
:1044B00059F56C0142E0C40ED11CCA14DB0420F192
:1044C000AC014A195B09DA011296159780F06282F5
:1044D000738251834083D9016D937C93E114F1047D
:1044E00071F0D7011396FC93EE93129776CF229634
:1044F0008C0F9D1FF90191838083F301EFCFF0931F
:104500001805E093170569CF4816590608F42C01E1
:104510007D01D3019ACFCB010E94BB207C01009783
:1045200049F0AE01B8010E949D22C8010E945721A6
:10453000870153CF10E000E050CFFB01DC0102C047
:1045400001900D9241505040D8F70895FB01DC01D5
:104550008D91019080190110D9F3990B0895FB01F9
:10456000DC0101900D920020E1F70895F894FFCF4F
:10457000FFFFFFFFFFFFFFFF4E49454D41484153FD
:104580004C410046756E426F78322D4546363600F6
:104590000100010001007777772E706A34313439D9
:1045A000312E7A75742E6564752E706C001300A020
:1045B000860100000019058000000040001400542E
:1045C00000000000005002B001DD019D020E02EC6F
:1045D00001000200000000000AD309930ACB07CCB7
:1045E00009B909AA0900000000020BB001930A787A
:1045F00009000000006209BC08930ACB077E085A34
:1046000008CC07C80B540FF0076407500748070091
:10461000000000630B0D0A004E6F20536F636B6543
:104620007420617661696C61626C650054656D70BF
:104630003A20005A6164616E613A200057696C67E4
:104640003A20002025524800537461747573205736
:10465000694669004F4B004552524F520020254396
:1046600000312E312E300049502041646472657350
:10467000733A20007369676E616C20737472656EA3
:10468000677468202852535349293A002064426DC8
:10469000002F67657456616C75652E706870000A2E
:1046A0005374617274696E6720636F6E6E656374B4
:1046B000696F6E20746F207365727665722E2E2E70
:1046C00000636F6E6E656374656420746F2073653C
:1046D0007276657200474554200020485454502F8C
:1046E000312E3100486F73743A2000436F6E6E654F
:1046F0006374696F6E3A20636C6F736500646973ED
:10470000636F6E6E656374656400636F6E6E656380
:1047100074696F6E206661696C65640026757374D8
:104720006177696F6E613D002677696C676F746EA3
:104730006F73633D002F696E6465782E7068703FFB
:1047400074656D70657261747572613D00203D2005
:1047500000202D2D2000506F6E6F776E653A20007F
:0E476000637A61733A2000535349443A2000B3
:00000001FF
