:100000000C941A010C9442010C9442010C9442018C
:100010000C9442010C9442010C9442010C94420154
:100020000C9442010C9442010C9442010C94420144
:100030000C9442010C9442010C9442010C94420134
:100040000C9467100C9442010C9435100C940F1012
:100050000C9442010C9442010C9442010C94420114
:100060000C94B1100C94420100407A10F35A00A095
:10007000724E18090010A5D4E80000E87648170071
:1000800000E40B54020000CA9A3B000000E1F505B1
:10009000000080969800000040420F000000A086FB
:1000A00001000000102700000000E803000000002D
:1000B0006400000000000A000000000001000000D1
:1000C00000002C76D888DC674F0823DFC1DFAE59EB
:1000D000E1B1B796E5E3E453C63AE651997696E87E
:1000E000E6C28426EB898C9B62ED407C6FFCEFBC02
:1000F0009C9F40F2BAA56FA5F490055A2AF75C932D
:100100006B6CF9676DC11BFCE0E40D47FEF520E662
:10011000B500D0ED902E0300943577050080841E45
:10012000080000204E0A000000C80C333333330FA0
:10013000986E12831141EF8D2114893BE65516CF3D
:10014000FEE6DB18D1844B381BF77C1D901DA4BB49
:10015000E424203284725E228100C9F124ECA1E5FE
:100160003D2700000000240027002A0000000000B6
:10017000250028002B0000000008000201000003F9
:1001800004070000000000000000436F6E6E65630E
:1001900074204F4B00576946692E2E2E00436F6E18
:1001A0006E656374696E6720746F00417474656D69
:1001B0007074696E6720746F20636F6E6E65637410
:1001C00020746F20535349443A2000506C6561738A
:1001D0006520757067726164652074686520666962
:1001E000726D776172650057694669207368696549
:1001F0006C64206E6F742070726573656E7400009D
:100200000000002300260029000404040404040460
:1002100004020202020202030303030303010204B5
:100220000810204080010204081020010204081078
:1002300020007F1211241FBECFEFD8E0DEBFCDBF5C
:1002400025E0A0E0B3E001C01D92AB31B207E1F7B9
:1002500013E0A0E0B1E0EAE4F5E402C005900D92FD
:10026000A030B107D9F711E0CAE1D1E004C021976D
:10027000FE010E94A220C931D107C9F70E942813AC
:100280000C94A3220C940000CF92DF92EF92FF9285
:10029000CF93DF93B091F604A0E08111AB2F809152
:1002A000F70490E0880F991FAC0141505E4FC09059
:1002B000FC04D090FD04E090FE04F090FF0430E0D8
:1002C00020E0FA01C591D491E881B90190E080E085
:1002D000EB23EA130AC02F5F3F4F6C157D058E0597
:1002E0009F0578F36FEF7FEFCB01DF91CF91FF9008
:1002F000EF90DF90CF90089508950895DB01149654
:100300004D915C9115976D917C91DC01ED91FC9183
:100310000280F381E02D0994EF92FF920F931F93D7
:10032000CF93DF938C017B01D0E0C0E0F701EC0FAD
:10033000FD1F6491662361F0D801ED91FC9101905D
:10034000F081E02DC8010995892B11F02196EECF9F
:10035000CE01DF91CF911F910F91FF90EF90089503
:10036000AF92BF92CF92DF92EF92FF920F931F93C3
:10037000CF93DF936C017B018B01040F151FEB0101
:100380005E01AE18BF08C017D10759F06991D601B8
:10039000ED91FC910190F081E02DC6010995892B2A
:1003A00079F7C501DF91CF911F910F91FF90EF90E9
:1003B000DF90CF90BF90AF900895FC01538D448D96
:1003C000252F30E0842F90E0821B930B541710F000
:1003D000CF96089501970895FC01918D828D98170D
:1003E00061F0A28DAE0FBF2FB11D5D968C91928DE5
:1003F0009F5F9F73928F90E008958FEF9FEF089516
:10040000FC01918D828D981731F0828DE80FF11DDE
:10041000858D90E008958FEF9FEF0895FC01918DF9
:10042000228D892F90E0805C9F4F821B91098F73F2
:10043000992708958CE194E00E940E0221E0892B17
:1004400009F420E0822F089580E090E0892B29F0C4
:100450000E941A0281110C9400000895FC01A48DE1
:10046000A80FB92FB11DA35ABF4F2C91848D90E0D6
:1004700001968F739927848FA689B7892C93A089B9
:10048000B1898C91837080648C93938D848D981343
:1004900006C00288F389E02D80818F7D80830895D6
:1004A000EF92FF920F931F93CF93DF93EC0181E0C4
:1004B000888F9B8D8C8D98131AC0E889F98980816B
:1004C00085FF15C09FB7F894EE89FF896083E8899E
:1004D000F98980818370806480839FBF81E090E090
:1004E000DF91CF911F910F91FF90EF900895F62E1D
:1004F0000B8D10E00F5F1F4F0F731127E02E8C8DB7
:100500008E110CC00FB607FCFACFE889F9898081FB
:1005100085FFF5CFCE010E942E02F1CFEB8DEC0FBF
:10052000FD2FF11DE35AFF4FF0829FB7F8940B8F18
:10053000EA89FB8980818062CFCFCF93DF93EC0182
:10054000888D8823B9F0AA89BB89E889F9898C91BB
:1005500085FD03C0808186FD0DC00FB607FCF7CF77
:100560008C9185FFF2CF808185FFEDCFCE010E9477
:100570002E02E9CFDF91CF910895833081F028F4E6
:10058000813099F08230A9F008958730A9F0883041
:10059000C9F08430B1F4809180008F7D03C08091D8
:1005A00080008F7780938000089584B58F7784BD15
:1005B000089584B58F7DFBCF8091B0008F778093B5
:1005C000B00008958091B0008F7DF9CFCF93DF9375
:1005D000282F30E0F901EA58FE4F8491F901E35EDB
:1005E000FD4FD491F901E75FFD4FC491CC23A1F0F9
:1005F00081110E94BD02EC2FF0E0EE0FFF1FE150D1
:10060000FE4FA591B491EC91ED2381E090E009F4C7
:1006100080E0DF91CF91089580E090E0FACF1F93C2
:10062000CF93DF93282F30E0F901EA58FE4F8491F1
:10063000F901E35EFD4FD491F901E75FFD4FC491ED
:10064000CC23A9F0162F81110E94BD02EC2FF0E0FF
:10065000EE0FFF1FE459FE4FA591B4918FB7F894A8
:10066000EC91111108C0D095DE23DC938FBFDF9190
:10067000CF911F910895DE2BF8CFCF93DF9390E0B9
:10068000FC01E35EFD4F2491875F9D4FFC01849147
:100690008823C9F090E0880F991FFC01EE59FE4FA6
:1006A000A591B491FC01E459FE4FC591D49161111B
:1006B0000DC09FB7F8948C91209582238C938881EC
:1006C000282328839FBFDF91CF910895623051F492
:1006D0009FB7F8943C91822F809583238C93E88177
:1006E0002E2BEFCF8FB7F894EC912E2B2C938FBF3E
:1006F000EACF3FB7F8948091BC039091BD03A091DD
:10070000BE03B091BF0326B5A89B05C02F3F19F0CB
:100710000196A11DB11D3FBFBA2FA92F982F882781
:10072000BC01CD01620F711D811D911D42E0660F5C
:10073000771F881F991F4A95D1F708958F929F922E
:10074000AF92BF92CF92DF92EF92FF924B015C018A
:100750000E9479036B017C010E9479036C197D0969
:100760008E099F09683E734081059105A8F321E039
:10077000821A9108A108B10888EEC80E83E0D81E3D
:10078000E11CF11C81149104A104B10429F7FF902C
:10079000EF90DF90CF90BF90AF909F908F90089593
:1007A0002FB7F8946091B8037091B9038091BA03A0
:1007B0009091BB032FBF0895CF92DF92EF92FF92EB
:1007C0000F931F93CF93DF93CDB7DEB7C054D140C3
:1007D0000FB6F894DEBF0FBECDBF0E94D0030091CC
:1007E000F8041091F9042091FA043091FB046B0194
:1007F0007C01C01AD10AE20AF30A97018601003D82
:1008000017402105310590F480910005C05CDE4F52
:100810000FB6F894DEBF0FBECDBFDF91CF911F9111
:100820000F91FF90EF90DF90CF9008956093F804C0
:100830007093F9048093FA049093FB041092F304EC
:100840001092F2041092F1041092F0041092EF044E
:1008500062E08091F4040E943D0361E070E080E07A
:1008600090E00E949E0361E08091F4040E943D03A9
:1008700060E08091F4040E940F038091F50485519B
:10088000823020F58BE291E10197F1F762E08091EF
:10089000F4040E943D038091010590E082309105AF
:1008A00038F0880F991F880F991F05970197F1F766
:1008B000F89480E00E9444016F3F7F4F8F4F9F4F1D
:1008C00061F410920005789480E0A0CF64E170E0BC
:1008D00080E090E00E949E03D9CF81E00E94440115
:1008E0006F3F7F4F8F4F9F4F61F38E010F5F1F4F01
:1008F0006E012FEBC21A2EEFD20A780180E00E941F
:100900004401F701608371838283938381E00E94B5
:100910004401F7016483758386839783F8E0EF0EC3
:10092000F11CEC14FD0451F7789430E020E0F8015C
:10093000C080D180E280F3804481558166817781D7
:10094000FFEFCF16DF06EF06FF0631F04F3F8FEFC8
:1009500058076807780719F410920005B5CFF90118
:1009600083E0F595E7958A95E1F7E151FB4F8081AA
:10097000880FC416D506E606F70610F180832F5FB0
:100980003F4F085F1F4F2832310589F64091F3042D
:100990002091EF048091F004280F3327331F8091BA
:1009A000F104280F311D8091F204820F932F911DC5
:1009B00099274817190681F681E08093000526CF14
:1009C0008160DCCF87E00E94E602892BD9F7089589
:1009D000CF93DF931F92CDB7DEB7898389818EBD18
:1009E00000000DB407FEFDCF8EB52AE030E0000018
:1009F00021503109E1F70F90DF91CF910895CF9306
:100A0000DF93D82FC62F80EE0E94E80483E290E0A7
:100A10000197F1F78D2F0E94E8048C2F0E94E804C3
:100A2000C11105C08EEEDF91CF910C94E804DF91E7
:100A3000CF910895DF92EF92FF920F931F93CF9380
:100A4000DF93D82EE92E8B01F42E812F0E94E8042B
:100A5000802F0E94E804CD2DDE2D0C0F1D1FC01726
:100A6000D10721F089910E94E804F9CF81E0F812C2
:100A70000AC08EEEDF91CF911F910F91FF90EF9002
:100A8000DF900C94E804DF91CF911F910F91FF90BC
:100A9000EF90DF900895DF92EF92FF920F931F93F4
:100AA000CF93DF937C01C62FD42E862F0E94E804BB
:100AB0008701D0E0C8018E199F098C179D0734F477
:100AC000F80181918F010E94E804F4CFF1E0DF1278
:100AD0000AC08EEEDF91CF911F910F91FF90EF90A2
:100AE000DF900C94E804DF91CF911F910F91FF905C
:100AF000EF90DF900895CF93DF93EC018FEF0E948A
:100B0000E80488838AE090E000000197E9F7DF912C
:100B1000CF910895CF93DF931F92CDB7DEB719829F
:100B2000CE0101960E947B0589810F90DF91CF91C4
:100B30000895CF93DF93C9EED3E00E948A058F3EDC
:100B400069F0219711F0803EC1F721E090E0803EEE
:100B500009F020E0822FDF91CF9108958FEF9FEF72
:100B6000FACFCF92DF92EF92FF920F931F93CF9322
:100B7000DF931F92CDB7DEB7182F6B017A01198270
:100B80000E949905892B61F490E080E00F90DF913D
:100B9000CF911F910F91FF90EF90DF90CF9008952C
:100BA000CE0101960E947B05106889811813ECCF55
:100BB000CE0101960E947B058981813029F78FEF54
:100BC0000E94E804F701808310E000E0F7018081D3
:100BD0008017110649F044F0C601800F911F0E9452
:100BE0007B050F5F1F4FF2CFCE0101960E947B0560
:100BF00081E090E0CBCFCF92DF92EF92FF920F9304
:100C00001F93CF93DF931F92CDB7DEB7182F7B01D1
:100C10006A0119820E949905892B61F490E080E0B5
:100C20000F90DF91CF911F910F91FF90EF90DF9088
:100C3000CF900895CE0101960E947B0510688981AE
:100C40001813ECCF0E948A058823B1F08FEF0E9421
:100C5000E804F60180838701F6012081C8018E191E
:100C60009F092817190641F03CF08FEF0E94E80415
:100C7000F80181938F01F0CFCE0101960E947B0590
:100C800081E090E0CDCF61E08AE00C940F0360E05A
:100C90008AE00C940F03CF93CFB7F8948091AA0306
:100CA000811127C0E3E1F2E08491E7E2F2E0949160
:100CB000E82FF0E0EE0FFF1FEE59FE4FA591B49123
:100CC000EC91E92321F461E08AE00E940F0361E0E6
:100CD0008AE00E943D038CB580618CBD8CB5806438
:100CE0008CBD61E08DE00E943D0361E08BE00E94DD
:100CF0003D038091AA038F5F8093AA03CFBF61E079
:100D00008AE00E943D0360E087E00E943D0361E0CD
:100D100089E00E943D0361E08AE00E940F0361E0E8
:100D20008AE00E940F0360E089E0CF910C940F03EA
:100D3000CF93DF9300D0CDB7DEB78091F10381115F
:100D400005C00E944B0681E08093F1030E94E204FB
:100D50000E94470660E080E20E94FF040E94E204D5
:100D60008FEF89831A82AE014E5F5F4FBE016F5FC6
:100D70007F4F80E20E94B1050E94430689810F9057
:100D80000F90DF91CF910895FF920F931F93CF9310
:100D9000DF9300D01F92CDB7DEB78B838B01F42E8B
:100DA0008091A903811105C00E944B0681E08093C8
:100DB000A9030E94E2040E94470662E08CE20E94BE
:100DC000FF0440E061E0CE0103960E944B0582E003
:100DD0000E94E80480E00E94E8048F2D0E94E8044D
:100DE0008EEE0E94E8040E94E20419821A82AE018B
:100DF0004E5F5F4FBE016F5F7F4F8CE20E94FB052D
:100E00000E9443068A81882369F08981F8018083E2
:100E100081E00F900F900F90DF91CF911F910F9174
:100E2000FF90089580E0F5CFCF93DF9300D01F921D
:100E3000CDB7DEB78B838091A903811105C00E94D5
:100E40004B0681E08093A9030E94E2040E944706BA
:100E500061E08FE20E94FF0441E061E0CE01039671
:100E60000E944B050E94E20419821A82AE014E5F75
:100E70005F4FBE016F5F7F4F8FE20E94B1050E94FE
:100E8000430689810F900F900F90DF91CF910895C5
:100E900021E0FC0184858F3F09F420E0822F089532
:100EA000FC0184858F3F71F00E941407843038F074
:100EB0009BEF980F933018F091E08A3009F490E09E
:100EC000892F089580E00895EF92FF920F931F936A
:100ED000CF93DF9300D01F92CDB7DEB7FC0194858E
:100EE0009F3F09F44EC08F019B838091A90381111C
:100EF00005C00E944B0681E08093A9030E94E20492
:100F00000E94470661E08EE20E94FF0441E061E03A
:100F1000CE0103960E944B050E94E2041A821982B8
:100F2000AE014F5F5F4FBE016E5F7F4F8EE20E944A
:100F3000B1050E944306D8011C96EC91F0E0EE0F3B
:100F4000FF1FE050FF4F8FEF9FEF9183808392E36D
:100F5000E92EF12CF80184858F3F79F00E94140767
:100F6000882359F0F1E0EF1AF10839F064E670E0F7
:100F700080E090E00E949E03EDCF8FEFD8011C9699
:100F80008C930F900F900F90DF91CF911F910F9145
:100F9000FF90EF90089508950F931F93CF93DF93E1
:100FA0001F92CDB7DEB78C01DC01ED91FC9100847E
:100FB000F185E02D0995892B81F041E0BE016F5F3D
:100FC0007F4FF80184850E94C406898190E00F90CC
:100FD000DF91CF911F910F9108958FEF9FEFF7CF82
:100FE000CF92DF92EF92FF920F931F93CF93DF93F5
:100FF00000D0CDB7DEB76B017A01FC0184858A830E
:101000008091A903811105C00E944B0681E0809365
:10101000A9030E94E2040E94470661E085E40E9461
:10102000FF0441E061E070E0CE0102960E941A05E3
:101030000E94E20419820E949905892B29F1CE01B0
:1010400001960E947B058981853CF1F40E948A0506
:101050008823B1F08FEF0E94E804E82E8FEF0E9402
:10106000E804FE2CE82E8601CE0CDF1CC016D1064B
:1010700039F08FEF0E94E804F80181938F01F6CFD9
:10108000CE0101960E947B050E94430681E090E01C
:10109000EF2811F090E080E09195819591090F90F3
:1010A0000F90DF91CF911F910F91FF90EF90DF9004
:1010B000CF9008950F931F93CF93DF931F92CDB7D7
:1010C000DEB78C01DC01ED91FC910084F185E02D0F
:1010D0000995892B81F040E0BE016F5F7F4FF801D9
:1010E00084850E94C406898190E00F90DF91CF91A2
:1010F0001F910F9108958FEF9FEFF7CFCF93DF935D
:1011000000D000D0CDB7DEB7FC0184858F3F89F1D8
:101110008C838091A903811105C00E944B0681E058
:101120008093A9030E94E2040E94470661E08BE2DB
:101130000E94FF0441E061E0CE0104960E944B054D
:101140000E94E2041B821A821982AE014D5F5F4F3A
:10115000BE016F5F7F4F8BE20E94B1050E94430684
:1011600089819A810F900F900F900F90DF91CF910E
:10117000089590E080E0F6CFBF92CF92DF92EF9299
:10118000FF920F931F93CF93DF9300D000D0CDB782
:10119000DEB76C018B017A01FC0184858430B0F0EC
:1011A00081E090E0F60193838283F12CE12CC7016A
:1011B0000F900F900F900F90DF91CF911F910F9193
:1011C000FF90EF90DF90CF90BF900895452B41F3B3
:1011D0008C838091A903811105C00E944B0681E098
:1011E0008093A9030E94E2040E94470662E084E41F
:1011F0000E94FF0440E061E070E0CE0104960E948E
:101200001A0541E0B701C8010E941A050E94E204D4
:101210001A821982AE014F5F5F4FBE016E5F7F4F32
:1012200084E40E94FB050E9443068981882309F417
:10123000B7CF8A81813009F0B3CFF60184858B83E3
:101240001A82198210E000E0BB24B3948091A903B4
:10125000811104C00E944B06B092A9030E94E204CF
:101260000E94470661E08AE20E94FF0441E061E0DB
:10127000CE0103960E944B050E94E204AE014F5F2F
:101280005F4FBE016E5F7F4F8AE20E94B1050E94F0
:1012900043068A81811113C00F5F1F4F64E670E01F
:1012A00080E090E00E949E038A81811103C0093191
:1012B000110560F20931110509F472CF78CF10E001
:1012C00000E0F2CFCF93DF931F92CDB7DEB76983F3
:1012D000DC01ED91FC910280F381E02D41E050E0D2
:1012E000BE016F5F7F4F09950F90DF91CF910895F9
:1012F000089585ED8093BC008091BC0084FDFCCFF7
:101300001092C603089520914003260F3327331F00
:1013100021323105ECF42091C603FC0190E080E01D
:10132000243069F082E00895A09140032191AC013E
:10133000405E5C4FA40FB52FB11D2C93019686170C
:1013400098F380914003680F6093400380E0089514
:1013500081E00895E091CA038091C903E81730F451
:10136000F0E0E050FD4F808190E008958FEF9FEF17
:1013700008959091CA038091C9032FEF3FEF98170A
:1013800048F4E92FF0E0E050FD4F208130E09F5F0E
:101390009093CA03C90108958091C9039091CA032B
:1013A000891B990B0895CF92DF92EF92FF920F93D2
:1013B0001F93CF93DF937C01CB018A012091870398
:1013C000222389F0EB016B01C40ED51ECC15DD057F
:1013D00069F06991D701ED91FC910190F081E02DC8
:1013E000C7010995F3CF642F0E948309C801DF91DB
:1013F000CF911F910F91FF90EF90DF90CF900895C4
:10140000CF93DF931F92CDB7DEB769832091870317
:101410002223F9F02091C703203258F021E030E078
:10142000FC013383228390E080E00F90DF91CF9125
:1014300008958091C803E82FF0E0E857FC4F9981A8
:1014400090838F5F8093C8038093C70381E090E00F
:10145000ECCF61E0CE0101960E948309F7CFCF93D4
:10146000FC01C48121E020938703C093A80310925C
:10147000C8031092C7038385682B87ED94E00E9410
:10148000000A9091C703913208F03FC08091C603D3
:101490008111FCCF82E08093C60381E08093C50375
:1014A0008FEF809386031092850390938403A8E8BE
:1014B000B3E0E4E6F3E080E098132FC010926303FA
:1014C00080916303CC0FC82BC09363038091C40346
:1014D000813039F51092C403809163038093BB007F
:1014E0008091BC0083FDF8CF85EC8093BC00809197
:1014F000C6038230E1F3809186038F3F31F0809103
:101500008603803211F0809186031092C8031092F6
:10151000C70310928703CF9108952D9121938F5F78
:10152000CBCF85EEE2CF90E080E008950F931F933C
:10153000CF938C01C62F0E942F0A6C2F6460C801C4
:101540000E942F0A6C2F6B7FC8010E942F0A83EC28
:1015500090E00197F1F7CF911F910F9108950F93AC
:101560001F93CF93DF938C01D62FC42F607F642B02
:101570000E94960A80E1D89FB00111246C2BC8010B
:10158000DF91CF911F910F910C94960ACF93DF9327
:10159000CDB7DEB728970FB6F894DEBF0FBECDBF2C
:1015A00098E0EAE4F1E0DE01119601900D929A953F
:1015B000E1F79091EC04981708F48FEF90E0880F12
:1015C000991F21E030E02C0F3D1F820F931FFC017B
:1015D0006081606840E083EE94E028960FB6F8944E
:1015E000DEBF0FBECDBFDF91CF910C94AF0A40E0BC
:1015F00061E083EE94E00E94AF0A8BE39FE10197E4
:10160000F1F7089541E00E94AF0A81E090E008956B
:10161000FB0101900020E9F73197AF01461B570B02
:10162000DC01ED91FC910280F381E02D09948F9211
:101630009F92AF92BF92EF92FF920F931F93CF931F
:10164000DF93CDB7DEB7A1970FB6F894DEBF0FBE1C
:10165000CDBF7C01FA01CB0119A2223008F42AE0A7
:101660008E010F5D1F4F822E912CB12CA12CBF013A
:10167000A50194010E948020F901CA016A300CF58D
:10168000605DD8016E938D01232B242B252B79F7D8
:1016900090E080E0109721F0BD01C7010E94080B87
:1016A000A1960FB6F894DEBF0FBECDBFDF91CF91EC
:1016B0001F910F91FF90EF90BF90AF909F908F90F0
:1016C0000895695CDECF8F929F92AF92BF92CF92C6
:1016D000DF92EF92FF920F931F93CF93DF937C01E2
:1016E000EB016C0182E0C80ED11C4701E5E08E0ED3
:1016F000911C10E000E0F60141916F0150E070E0B4
:1017000060E02AE0CE010E94170B5C01E881F981BC
:101710000190F081E02D6EE2CE0109958A0D9B1DAE
:10172000080F191FC814D90431F7F701458150E09B
:1017300070E060E02AE0CE010E94170B800F911F3D
:10174000DF91CF911F910F91FF90EF90DF90CF909D
:10175000BF90AF909F908F90089566EA71E00C94CF
:10176000080B0F931F93CF93DF938C01D0E0C0E061
:101770006115710519F00E94080BEC01C8010E9467
:10178000AD0B8C0F9D1FDF91CF911F910F9108958D
:10179000CF92DF92EF92FF920F931F93CF93DF933D
:1017A000CDB7DEB728970FB6F894DEBF0FBECDBF1A
:1017B0008C01F42EE52EE0E0F1E090E080E0219154
:1017C00031912F3F3F4F29F0019684309105B9F7B1
:1017D0008FEFD8011C968C938F3F09F48EC0FB01CC
:1017E000428153816481758149835A836B837C83F1
:1017F00088871D828091A903811105C00E944B0634
:1018000081E08093A9030E94E2040E94470664E0FD
:101810008DE20E94FF0440E064E0CE0101960E9448
:101820004B0582E00E94E8048E2D0E94E8048F2D73
:101830000E94E80440E061E0CE0108960E944B055A
:1018400041E061E0CE0105960E944B050E94E20452
:101850001F821E82AE014A5F5F4FBE01695F7F4FEC
:101860008DE20E94B1050E944306D8011C968C911E
:1018700090E0FC01EE0FFF1FE050FF4F918380834B
:101880000E94D0036B017C01D801ED91FC91068888
:10189000F789E02DC8010995811112C00E94D0037B
:1018A0006C197D098E099F09603177428105910588
:1018B00038F461E070E080E090E00E949E03E4CFA5
:1018C000D801ED91FC910688F789E02DC8010995B2
:1018D00021E090E0811101C020E0822F28960FB610
:1018E000F894DEBF0FBECDBFDF91CF911F910F9156
:1018F000FF90EF90DF90CF90089569EA71E08CE15E
:1019000094E00E94B10B80E090E0E8CF0F931F932A
:10191000CF93DF93EC010E947E018C01CE010E94E7
:10192000AD0B800F911FDF91CF911F910F91089503
:101930000F931F93CF93DF93EC01888199810097D8
:1019400059F02A813B812617370730F081E0DF917B
:10195000CF911F910F9108958B016F5F7F4F0E9470
:10196000CD21009759F0998388831B830A832C81AA
:101970003D81232B59F7FC011082E8CF80E0E7CFAF
:10198000EF92FF920F931F93CF93DF936115710531
:1019900041F480E0DF91CF911F910F91FF90EF9084
:1019A000089541155105B1F07B01EC010C811D81B9
:1019B000040F151FB8010E94980C882351F3288149
:1019C00039818C819D81B701820F931F0E949C22D7
:1019D0001D830C8381E0DECFCF93DF93EC01888100
:1019E0009981009711F00E944421198218821D826A
:1019F0001C821B821A82DF91CF9108950F931F934F
:101A0000CF93DF9300D0CDB7DEB78C0169831A8204
:101A100041E050E0BE016F5F7F4F0E94C00C81111A
:101A200003C0C8010E94EC0CC8010F900F90DF9119
:101A3000CF911F910F910895CF93DF93EC01FB019C
:101A400001900020E9F73197AF01461B570B0E9428
:101A5000C00C811103C0CE010E94EC0CCE01DF91BD
:101A6000CF910895CF93DF93EC01FB014481558121
:101A7000608171810E94C00C811103C0CE010E945F
:101A8000EC0CCE01DF91CF910895EF92FF920F936E
:101A90001F93CF93DF93EC017B018A01BA010E946F
:101AA000980C81110BC0CE010E94EC0CCE01DF918D
:101AB000CF911F910F91FF90EF9008951D830C839C
:101AC000B701888199810E949C22F0CFFB0101908F
:101AD0000020E9F73197AF01461B570B0C94450DD9
:101AE0000F931F93CF93DF93CDB7DEB7A1970FB6B8
:101AF000F894DEBF0FBECDBF8C01CB01BA01F80157
:101B00001182108213821282158214822AE0AE01A1
:101B10004F5F5F4F0E94351CBE016F5F7F4FC80152
:101B20000E94660DA1960FB6F894DEBF0FBECDBF22
:101B3000DF91CF911F910F910895EF92FF920F9334
:101B40001F93CF93DF93CDB7DEB7A1970FB6F8946D
:101B5000DEBF0FBECDBF7C01CB01BA01F701118200
:101B6000108213821282158214828E010F5F1F4F22
:101B700022E044E00E94D01B009789F0BC01C7011D
:101B80000E94660DA1960FB6F894DEBF0FBECDBFC2
:101B9000DF91CF911F910F91FF90EF900895C701B2
:101BA0000E94EC0CEFCF0F931F93CF93DF93CDB731
:101BB000DEB762970FB6F894DEBF0FBECDBF8C01C3
:101BC000CB01F801118210821382128215821482D5
:101BD0004AE0BE016F5F7F4F0E94151CBE016F5F20
:101BE0007F4FC8010E94660D62960FB6F894DEBF63
:101BF0000FBECDBFDF91CF911F910F910895CF936D
:101C0000DF93EC01FB018617970749F06081718132
:101C10006115710541F0448155810E94450DCE0149
:101C2000DF91CF9108950E94EC0CF9CFFC01118255
:101C3000108213821282158214826115710551F08F
:101C4000FB0101900020E9F73197AF01461B570BCC
:101C50000C94450D0895FC01808191810C944421E0
:101C6000CF93DF93CDB7DEB72C970FB6F894DEBFD6
:101C70000FBECDBF8091F203882321F00E94F70AA6
:101C80001092F2038091F3039091F4038130910557
:101C900009F4B9C00CF04FC0892B09F456C080E09C
:101CA0000E94C60A40910C0450910D0460910E04EC
:101CB00070910F04CE0107960E949D0D6DEC71E0AE
:101CC000CE0101960E94160EBE01695F7F4FCE01C4
:101CD00001960E94320D64ED71E00E941C0DBC0162
:101CE00083EE94E00E947E01CE0101960E942B0EAD
:101CF000CE0107960E942B0E81E00E94C60A4091F9
:101D000008045091090460910A0470910B04CE01FB
:101D100007960E949D0D6DEB71E0CE0101960E9429
:101D2000160EBE01695F7F4FCE0101960E94320DF3
:101D30006EEE71E086C08230910509F492C003977F
:101D400009F0ADCF1092EE0403C088E08093EE045A
:101D500060E083EE94E00E942F0A80E00E94C60AB1
:101D6000409108045091090460910A0470910B0499
:101D7000CE0107960E949D0D6DEB71E0CE0101969C
:101D80000E94160EBE01695F7F4FCE0101960E9430
:101D9000320D65EE72E00E941C0D6FED0E94FE0C8C
:101DA00060EF71E00E941C0DBC0183EE94E00E9484
:101DB0007E01CE0101960E942B0ECE0107960E9455
:101DC0002B0E81E00E94C60A60913E0170913F0196
:101DD000CE0107960E94D30D64EC71E0CE0101960E
:101DE0000E94160EBE01695F7F4FCE0101960E94D0
:101DF000320D65EE72E00E941C0D6FED0E94FE0C2C
:101E000060EF71E01EC080E00E94C60A40910C04A1
:101E100050910D0460910E0470910F04CE0107964D
:101E20000E949D0D6DEC71E0CE0101960E94160E90
:101E3000BE01695F7F4FCE0101960E94320D64EDB5
:101E400071E00E941C0DBC0183EE94E00E947E01B3
:101E5000CE0101960E942B0ECE0107960E942B0EFA
:101E60001AC080E00E94C60A69ED71E083EE94E03A
:101E70000E94080B81E00E94C60A8091050490919F
:101E8000060465EE71E0039711F068EE71E083EEF1
:101E900094E00E94080B2C960FB6F894DEBF0FBE9C
:101EA000CDBFDF91CF9108953F924F925F926F9295
:101EB0007F928F929F92AF92BF92CF92DF92EF92DA
:101EC000FF920F931F93CF93DF93CDB7DEB72B977E
:101ED0000FB6F894DEBF0FBECDBF7C018B016A0147
:101EE0008091F103811105C00E944B0681E080932F
:101EF000F1030E94E2040E94470661E084E30E942D
:101F0000FF04F80101900020E9F73197BF01601B41
:101F1000710B41E0C8010E944B050E94E2041F8240
:101F20001982AE014F5F5F4FBE01695F7F4F84E34F
:101F30000E94B105182F0E94430611111AC090E0AB
:101F400080E02B960FB6F894DEBF0FBECDBFDF91B9
:101F5000CF911F910F91FF90EF90DF90CF90BF90A6
:101F6000AF909F908F907F906F905F904F903F9039
:101F700008950AE01FEF332433941B831C831D83D1
:101F80001E838091F103811104C00E944B063092A0
:101F9000F1030E94E2040E94470660E085E30E948C
:101FA000FF040E94E2041B86AE01455F5F4FBE0145
:101FB000695F7F4F85E30E94B105892B61F40E9420
:101FC0004306015009F4BBCF68EE73E080E090E077
:101FD0000E949E03D2CF4F80588469847A848B807C
:101FE0009C80AD80BE800E94430684149504A604A4
:101FF000B70439F3D701ED91FC910684F785E02D04
:1020000084EA91E09A8389834B825C826D827E822E
:10201000A601BE016F5F7F4FC701099592CF1F9246
:102020000F920FB60F9211242F933F934F935F930C
:102030006F937F938F939F93AF93BF93EF93FF9390
:102040008CE194E00E942E02FF91EF91BF91AF913D
:102050009F918F917F916F915F914F913F912F91C0
:102060000F900FBE0F901F9018951F920F920FB6F2
:102070000F9211242F938F939F93EF93FF93E091EF
:102080002C04F0912D048081E0913204F09133040E
:1020900082FD1BC09081809135048F5F8F732091EA
:1020A0003604821741F0E0913504F0E0E45EFB4F26
:1020B000958F80933504FF91EF919F918F912F9190
:1020C0000F900FBE0F901F9018958081F4CF1F9234
:1020D0000F920FB60F9211242F933F938F939F93DC
:1020E000AF93BF938091B8039091B903A091BA03C5
:1020F000B091BB033091B70323E0230F2D3758F580
:102100000196A11DB11D2093B7038093B80390934E
:10211000B903A093BA03B093BB038091BC03909121
:10212000BD03A091BE03B091BF030196A11DB11DD7
:102130008093BC039093BD03A093BE03B093BF03F1
:10214000BF91AF919F918F913F912F910F900FBEB3
:102150000F901F90189526E8230F0296A11DB11D20
:10216000D2CF1F920F920FB60F9211242F933F934D
:102170004F935F936F937F938F939F93AF93BF938F
:10218000EF93FF938091B900887F803609F44AC0AD
:10219000F0F5883209F4A7C018F5803109F49BC026
:1021A000B8F4882309F4F9C0883009F494C0FF9189
:1021B000EF91BF91AF919F918F917F916F915F91BF
:1021C0004F913F912F910F900FBE0F901F90189538
:1021D000883109F488C0803251F78093860314C097
:1021E000803409F49DC040F48033B9F38833F9F6A4
:1021F0008093860385ECB0C0803509F485C08835AE
:1022000009F496C0883499F60E947909D0CF8839AC
:1022100009F48CC038F5883729F050F4883611F06D
:10222000803729F683E08093C6031092620357C07B
:10223000883809F47BC0803919F0803809F0B7CFAD
:1022400080916203803208F071C0E091620381E006
:102250008E0F809362038091BB00F0E0EE5BFC4F39
:1022600080833DC0803B39F0E0F4803A09F479C0C6
:10227000883A09F09CCF84E08093C6031092410312
:1022800010924003E091C203F091C303099580913D
:10229000400381110FC081E080934003109220031E
:1022A00009C0803C09F4A6CF883C09F4A3CF883B41
:1022B00009F07DCFE091410381E08E0F80934103CF
:1022C000F0E0E05EFC4F80818093BB009091410381
:1022D0008091400329C0809163038093BB0085EC0B
:1022E0008093BC0064CF90918503809184039817FC
:1022F00058F5E091850381E08E0F80938503F0E02F
:10230000EC59FC4F8081E9CFE091850381E08E0F8D
:10231000809385038091BB00F0E0EC59FC4F8083F3
:1023200090918503809184039817C8F285E8D8CFEF
:10233000E091850381E08E0F809385038091BB003F
:10234000F0E0EC59FC4F80838091C50381115CCF94
:1023500081E08093C40384EA8093BC001092C6039A
:1023600026CF85EC8093BC001092C6038091620357
:10237000803230F4E0916203F0E0EE5BFC4F1082BB
:102380006091620370E0E091C003F091C10382E4C8
:1023900093E00995109262030ACF1092860334CF1E
:1023A0003F924F925F926F927F928F929F92AF92E5
:1023B000BF92CF92DF92EF92FF920F931F93CF9332
:1023C000DF93CDB7DEB72B970FB6F894DEBF0FBE05
:1023D000CDBF4C018E010F5F1F4F87E0F8011192B6
:1023E0008A95E9F783EB93E09B838A838FEA93E0F6
:1023F0009E838D838BEA93E0998788878091F10390
:10240000811105C00E944B0681E08093F1030E9478
:10241000E2040E94470661E081E20E94FF048FEF20
:102420008B8741E061E0CE010B960E944B050E9434
:10243000E2041A860E949905892BD1F1CE010A96F1
:102440000E947B058A85813A99F50E948A05382E7B
:10245000882371F1D12CC12C482E512CC414D504E1
:1024600004F58FEF0E94E804F8018083F12CE12C41
:10247000682E712CE614F70474F4F801A180B28080
:10248000AE0CBF1C8FEF0E94E804F5018083FFEFC4
:10249000EF1AFF0AEFCF8FEFC81AD80A0D5F1F4F50
:1024A000DDCFE3E03E1204C0CE010A960E947B0518
:1024B0000E9443068091B3039091B403A091B503A9
:1024C000B091B603F40182839383A483B5832B96E2
:1024D0000FB6F894DEBF0FBECDBFDF91CF911F9135
:1024E0000F91FF90EF90DF90CF90BF90AF909F90B3
:1024F0008F907F906F905F904F903F900895ECE1A8
:10250000F4E01382128248EE53E060E070E044830E
:1025100055836683778386E591E09183808385EC9C
:1025200090E09587848784EC90E09787868780EC9D
:1025300090E0918B808B81EC90E0938B828B82EC8E
:1025400090E0958B848B86EC90E0978B868B118E38
:10255000128E138E148EE9EBF4E084EA91E09183FD
:1025600080831282138214821582EFEBF4E0918350
:1025700080831282138214821582E5ECF4E0918349
:1025800080831282138214821582EBECF4E0918333
:1025900080831282138214821582E1EDF4E091832C
:1025A00080831282138214821582E7EDF4E0138295
:1025B0001282448355836683778328E631E0318332
:1025C0002083E1E1F5E091838083128213821482FB
:1025D0001582E2E0F5E0138212824483558366831C
:1025E000778386E891E09183808384E08487AFEEEF
:1025F000B4E082E015968C9315979BE016969C9319
:102600001697EFE1F2E0E4911796EC931797EBE061
:10261000F2E0E4911896EC93189740E85EE360E0EE
:1026200070E01D964D935D936D937C935097E3EE10
:10263000F4E0138212822AE731E03183208397E2AB
:10264000948390E190878187128688E0838708953C
:10265000CF93DF93CDB7DEB7E0970FB6F894DEBF28
:102660000FBECDBF789484B5826084BD84B581608F
:1026700084BD85B5826085BD85B5816085BD80914D
:102680006E00816080936E001092810080918100C5
:1026900082608093810080918100816080938100BD
:1026A000809180008160809380008091B10084607F
:1026B0008093B1008091B00081608093B0008091E0
:1026C0007A00846080937A0080917A00826080939F
:1026D0007A0080917A00816080937A0080917A00FC
:1026E000806880937A001092C100E0912C04F091F0
:1026F0002D0482E08083E0912804F0912904108267
:10270000E0912A04F0912B048FEC80831092340422
:10271000E0913004F091310486E08083E0912E0452
:10272000F0912F04808180618083E0912E04F091EC
:102730002F04808188608083E0912E04F0912F0423
:10274000808180688083E0912E04F0912F04808145
:102750008F7D808362E083E00E943D0362E086E03B
:102760000E943D0362E085E00E943D0361E08FE04E
:102770000E943D0361E080E10E943D0361E08EE044
:102780000E943D0361E081E10E943D0361E08FE032
:102790000E940F0361E080E10E940F0360E08EE081
:1027A0000E940F0360E081E10E940F0362E08091CC
:1027B000F4040E943D030E94D003605D77408109CC
:1027C00091096093F8047093F9048093FA0490934C
:1027D000FB0487E3809301051092CA031092C9039A
:1027E0001092C8031092C7031092C60381E0809331
:1027F000C5031092C40361E082E10E940F0361E00F
:1028000083E10E940F038091B9008E7F8093B9000D
:102810008091B9008D7F8093B90088E48093B800DF
:1028200085E48093BC008CE791E09093C303809390
:10283000C2038DE791E09093C1038093C00310928F
:10284000E8048091EC04823018F098E09093E8045A
:102850009091ED04992339F0813029F48091E804B6
:1028600084608093E80462E370E080E090E00E947E
:102870009E036091EE0483EE94E00E942F0A68EEBE
:1028800073E080E090E00E949E0360E383EE94E0BA
:102890000E94960A0BE416E4C8010197F1F760E381
:1028A00083EE94E00E94960AC8010197F1F760E375
:1028B00083EE94E00E94960A83E592E00197F1F797
:1028C00060E283EE94E00E94960A6091E804606200
:1028D00040E083EE94E00E94AF0A84E08093E90434
:1028E00040E06CE083EE94E00E94AF0A0E94F70A99
:1028F00082E08093EA0440E066E083EE94E00E9488
:10290000AF0A40E062E083EE94E00E94AF0A8BE3FE
:102910009FE10197F1F788E08093EE0460E083EE99
:1029200094E00E942F0A0E94F70A61E081E10E9470
:102930000F030E9498068F3F59F467EE71E08CE117
:1029400094E00E948C018CE194E00E94AD0BFFCFDB
:102950008091F103811105C00E944B0681E08093B4
:10296000F1030E94E2040E94470660E087E30E94B0
:10297000FF040E94E2041982AE014F5F5F4F6BECCF
:1029800073E087E30E94B1050E9443066BEC73E09D
:10299000CE0107960E94160E8B859C85892B41F0EF
:1029A00062EF71E08F8198850E949322892B51F00C
:1029B0006BEC71E08CE194E00E948C018CE194E07E
:1029C0000E94AD0B8091050490910604039709F4D1
:1029D0000EC56BEA71E08CE194E00E948C0162E12B
:1029E00071E08CE194E00E94B10B80E00E94C60A85
:1029F0006DE971E083EE94E00E948C0181E00E9419
:102A0000C60A65E971E083EE94E00E948C0108E05B
:102A100011E0F80101900020E9F78F010950114001
:102A2000E2E1F1E001900020E9F79F0123513140FC
:102A300079018091F103811105C00E944B0681E06C
:102A40008093F1030E94E2040E94470662E081E164
:102A50000E94FF0440E06E2D82E191E00E944B0550
:102A600041E0602F88E091E00E944B050E94E20463
:102A70001D861982AE014F5F5F4FBE01635F7F4FBE
:102A800081E10E94B105892B11F48FEF8D870E949F
:102A900043068D8514E08F3F71F00AE068E873E12A
:102AA00080E090E00E949E030E949806182F8D7F80
:102AB00011F4015099F7812F90E0909306048093D0
:102AC000050460ED77E080E090E00E949E03133003
:102AD00009F48DC460E081E10E940F03CE010796E6
:102AE0000E942B0E88E199E20FB6F894A895809386
:102AF00060000FBE90936000B3E02B2E312CA895A0
:102B00008091400190914101A0914201B091430117
:102B1000409118045091190460911A0470911B049B
:102B20006C017D01C41AD50AE60AF70AB701A601AD
:102B3000403D57406105710508F4ACC0809318040E
:102B400090931904A0931A04B0931B040E94DC0311
:102B5000882349F08091F5048B3028F08D3040F0C7
:102B600085518230D0F160E070E080EC9FE71CC0BE
:102B70006091F00470E090E080E00E94BA1E2DECBD
:102B80003CEC4CEC5DE30E94191F6B017C016091F1
:102B9000EF0470E090E080E00E94BA1E9B01AC015F
:102BA000C701B6010E940F2060930C0470930D04BE
:102BB00080930E0490930F040E94DC03882341F05D
:102BC0008091F5048C3009F489C3C8F48B3081F10D
:102BD00060E070E080EC9FE753C06091EF0470917B
:102BE000F00476276727762790E080E00E94B81EE1
:102BF0002DEC3CEC4CEC5DE30E94191FD5CF8551C8
:102C0000823030F71091F104612F70E0762F662743
:102C100066277F778091F204682B90E080E00E9425
:102C2000B81E2DEC3CEC4CEC5DE30E94191F72C306
:102C30006091F10470E090E080E00E94B81E6B01AA
:102C40007C011091F20417FF0AC0AC019B0160E007
:102C500070E080E89FEB0E940E206B017C011F70EA
:102C6000612F70E090E080E00E94BA1E2DEC3CECF9
:102C70004CEC5DE30E94191FA70196010E940F20F2
:102C8000609308047093090480930A0490930B04E2
:102C90000E94300E8091400190914101A09142012B
:102CA000B0914301409110045091110460911204BD
:102CB000709113046C017D01C41AD50AE60AF70A63
:102CC000B701A60140325E446105710508F4B8C041
:102CD0008093100490931104A0931204B0931304F2
:102CE000109107041111ACC0809105049091060465
:102CF000039709F0A5C061E081E10E940F03E09015
:102D00003E01F0903F0162E272E0CE010D960E941A
:102D1000160E60E372E08CE194E00E94B10B40E596
:102D200050E067E271E082E095E00E94540F892B49
:102D300009F425C362E572E08CE194E00E94B10BD6
:102D400066E672E0CE0101960E94160EBE01635F38
:102D50007F4FCE0101960E94320D6BE672E00E9419
:102D60001C0DBC0182E095E00E94860CCE0101960C
:102D70000E942B0E67E271E0CE0101960E94160EB2
:102D800065E772E0CE0107960E94160EBE016F5FE6
:102D90007F4FCE0107960E94320DBC0182E095E084
:102DA0000E94860CCE0107960E942B0ECE01019642
:102DB0000E942B0E6CE772E082E095E00E94B10B5E
:102DC00082E095E00E94AD0B68EA71E0CE010796C3
:102DD0000E94160E82E095E00E94500781119FC26A
:102DE0008F819885009709F4C6C20E94EE1B9B0153
:102DF0002F5031097B012A31310520F0E0903E014E
:102E0000F0903F0182E095E00E9464078CE194E03D
:102E10000E94AD0B6EE872E08CE194E00E94B10B71
:102E2000CE0107960E942B0E60E081E10E940F0305
:102E3000CE010D960E942B0EF0923F01E0923E01D2
:102E4000A89583E00E94E6028C01892BB9F42091B9
:102E50002101309122012130310581F481E08093FC
:102E6000F2038091F3039091F403009709F08EC26E
:102E70003093F4032093F3030E94300E1093220149
:102E80000093210186E00E94E6027C0185E00E9419
:102E9000E6028C01E114F104D9F4809125019091AE
:102EA00026010197A9F48091F3039091F403892BF3
:102EB00079F480913E0190913F018832910544F46C
:102EC00021E020930704019690933F0180933E01F7
:102ED00001151105D9F480912301909124010197E6
:102EE000A9F48091F3039091F403892B79F48091F4
:102EF0003E0190913F018031910544F021E0209303
:102F00000704019790933F0180933E010E94300E89
:102F1000F0922601E09225011093240100932301F1
:102F20008091400190914101A0914201B0914301F3
:102F30004091140450911504609116047091170487
:102F40006C017D01C41AD50AE60AF70AB701A60189
:102F500040365A4E6105710508F40EC18093140481
:102F600090931504A0931604B09317048091050460
:102F700090910604039709F0FFC000913E01109163
:102F80003F0161E081E10E940F03B801CE0101968B
:102F90000E94D30D6DEA72E0CE0107960E94160ED4
:102FA00040910C0450910D0460910E0470910F0437
:102FB000CE010D960E949D0D69EB72E0CE01439605
:102FC0000E94160E409108045091090460910A0471
:102FD00070910B04CE0149960E949D0D66EC72E043
:102FE000CE0185960E94160E18A21F8E1AA219A253
:102FF0001CA21BA2BE016B5D7F4FCE014F960E94AB
:10300000FF0DBE01675E7F4FCE014F960E94320DCD
:10301000BE016D5E7F4F0E94320DBE01635F7F4F28
:103020000E94320DBE01695F7F4F0E94320DBE01CA
:103030006F5F7F4F0E94320D1CA61BA61EA61DA609
:1030400018AA1FA6BC01CE018B960E94FF0DCE01CF
:103050004F960E942B0ECE0185960E942B0ECE011C
:1030600049960E942B0ECE0143960E942B0ECE0154
:103070000D960E942B0ECE0107960E942B0ECE01BC
:1030800001960E942B0E60E372E08CE194E00E94B6
:10309000B10B40E550E067E271E082E095E00E940C
:1030A000540F892B09F484C162E572E08CE194E04D
:1030B0000E94B10B66E672E0CE0101960E94160EE8
:1030C000BE01655D7F4FCE0101960E94320D6BE619
:1030D00072E00E941C0DBC0182E095E00E94860C0B
:1030E000CE0101960E942B0E67E271E0CE0101969F
:1030F0000E94160E65E772E0CE0107960E94160E3A
:10310000BE016F5F7F4FCE0107960E94320DBC015A
:1031100082E095E00E94860CCE0107960E942B0E5D
:10312000CE0101960E942B0E6CE772E082E095E0E2
:103130000E94B10B82E095E00E94AD0B82E095E029
:103140000E9450078111FACF82E095E00E94640747
:103150008CE194E00E94AD0B6EE872E08CE194E0AB
:103160000E94B10B1092070460E081E10E940F03FE
:10317000CE018B960E942B0E0E94D00360934001DB
:103180007093410180934201909343014090080461
:103190005090090460900A0470900B04009101049F
:1031A0001091020420910304309104046B017C010E
:1031B000C01AD10AE20AF30A9701860108391A43B4
:1031C0002105310520F1609301047093020480937E
:1031D0000304909304042091FD033091FE03409179
:1031E000FF0350910004C301B2010E940E206093BE
:1031F000F9037093FA038093FB039093FC034092CE
:10320000FD035092FE036092FF03709200048090D1
:10321000F9039090FA03A090FB03B090FC03CC2438
:10322000C394D12C2AE939E949E15EE3C501B4012F
:103230000E947B2087FF02C0D12CC12C60913E01EF
:1032400070913F01072E000C880B990B0E94BA1E4B
:10325000A30192010E940E202B013C0120E030E0EE
:1032600040E450E40E947B2087FFA9C026E636E6B2
:1032700046E65FE3C301B2010E947B2087FFA9C03D
:103280002DEC3CEC4CE45EE3C301B2010E947B20D8
:1032900087FF72C22DEC3CEC4CE45EEBC301B20143
:1032A0000E947B2087FF6BC12AE939E949E15EE38F
:1032B000C501B4010E947B2094E0E92EF12C60E46A
:1032C000462E6CE9562E612C712C87FF6BC180E372
:1032D000482E85E7582E612C712C64C11091F104A1
:1032E000612F70E090E080E00E94B81E6B017C01CD
:1032F0006091F2046F7070E090E080E00E94BA1E6E
:103300002DEC3CEC4CEC5DE30E94191FA7019601EB
:103310000E940F2017FFB4CC9058B2CC11E082E08D
:1033200095E00E947E08892B09F454CD82E095E057
:103330000E945A08082F1123D9F01A8219821C8280
:103340001B821E821D82BE01695F7F4FCE010196E6
:103350000E94FF0D602FCE0101960E94FE0CBC0161
:10336000CE0107960E94FF0DCE0101960E942B0E02
:103370000F33A9F6D3CF60E070E0CB0138CD6BE915
:1033800072E08CE194E00E94B10B4ECD813091054A
:1033900019F422E030E06CCD029729F43092F40366
:1033A0002092F30369CD1092F4031092F30364CDDD
:1033B0006BE972E08CE194E00E94B10BD5CEF12C68
:1033C000E12C70E3472E75E7572E612C712C11E02C
:1033D000EAC0EE24E394F12CF4CF61E08FE00E9488
:1033E0000F0361E080E10E940F0360E0A9C168EF74
:1033F00072E08CE194E00E94080B8091F10381114E
:1034000005C00E944B0681E08093F1030E94E20414
:103410000E94470661E083E20E94FF048FEF8D87E0
:1034200041E061E0CE010D960E944B050E94E2044E
:103430001982AE014F5F5F4F61ED73E083E20E943E
:10344000B1050E94430661ED73E08CE194E00E94B7
:10345000B10B84EA91E09A8389831B821C821D82CE
:103460001E82CE0101960E94D01168EF71E08CE1BE
:1034700094E00E94080B6CE174E0CE0101960E947A
:10348000630B8CE194E00E94AD0B8091F1038111FC
:1034900005C00E944B0681E08093F1030E94E20484
:1034A0000E94470661E085E20E94FF048FEF898F4A
:1034B00041E061E0CE0149960E944B050E94E20482
:1034C0001B8A1D861E861F86188AAE014D5E5F4FC1
:1034D000BE01635F7F4F85E20E94B1050E944306F3
:1034E000CD84DE84EF84F88865E072E08CE194E0BE
:1034F0000E94080B2AE0B701A601F7FE0DC06DE29D
:103500008CE194E00E94500244275527BA014C19DF
:103510005D096E097F092AE08CE194E00E94170B97
:103520006DE172E08CE194E00E94B10B0E94F70A19
:1035300080E00E94C60A6AE871E083EE94E00E948F
:103540008C0181E00E94C60A84EA91E09A83898313
:103550001B821C821D821E82CE0101960E94D01108
:1035600063EE74E0CE0101960E94630B60ED77E09C
:1035700080E090E00E949E030E94F70AABCA2AE90D
:1035800039E949E15EE3C501B4010E947B2053E0C3
:10359000E52EF12C87FF9BCE48E9442E4AE3542EBA
:1035A000612C712C10E0B501A401CE0101960E949E
:1035B0009D0DB601CE0107960E94D30DB701CE0135
:1035C0000D960E94D30D60913E0170913F01072E30
:1035D000000C880B990B0E94BA1E209108043091B0
:1035E000090440910A0450910B040E940E20AB0183
:1035F000BC01CE0149960E949D0D1C8A1B8A1E8A21
:103600001D8A188E1F8ABE01675E7F4FCE014396CA
:103610000E94FF0D6EED72E0CE0143960E941C0DDC
:10362000BE01635F7F4F0E94320D62EE72E00E9426
:103630001C0DBE01695F7F4F0E94320D6EED72E07E
:103640000E941C0DBE016F5F7F4F0E94320DBC01B6
:103650008CE194E00E94860CCE0143960E942B0ED2
:10366000CE0149960E942B0ECE010D960E942B0E84
:10367000CE0107960E942B0ECE0101960E942B0EC2
:10368000409140015091410160914201709143018C
:10369000CE0101960E94700D4091F5035091F60302
:1036A0006091F7037091F803CE0107960E94700DA8
:1036B00067EE72E0CE010D960E94160EBE01695FA4
:1036C0007F4FCE010D960E94320D61EF72E00E9495
:1036D0001C0DBE016F5F7F4F0E94320DBC018CE15B
:1036E00094E00E94860CCE010D960E942B0ECE0116
:1036F00007960E942B0ECE0101960E942B0EC090C1
:103700004001D0904101E0904201F090430180914E
:10371000F5039091F603A091F703B091F8038C158F
:103720009D05AE05BF05D8F4112309F456CE60E01F
:103730008FE00E940F0360E080E10E940F0361E0D0
:103740008EE00E940F034C0C5D1C6E1C7F1C40928F
:10375000F5035092F6036092F7037092F80380E04D
:1037600090E0892B09F4CBC90E941A02882309F43E
:10377000C3C90E940000C0C92AE939E949E15EE3F2
:10378000C501B4010E947B2032E0E32EF12C87FFBB
:1037900003CF20E2422E2EE4522E612C712C17CE44
:1037A000EF920F931F93CF93DF93E80134E047FD2F
:1037B00034E1042E000C550B57FF03C05195419581
:1037C0005109E32E022F242FAE010E94711CCE015D
:1037D000DF91CF911F910F91EF9008951F93FC01FE
:1037E00099278827BC01E89411911032E9F3193028
:1037F00010F01E30C8F31B3251F01D3249F46894AA
:1038000006C00E94201C610F711D811D911D119128
:1038100010531A30B0F33EF49095809570956195F1
:103820007F4F8F4F9F4F1F910895BB274A3031F430
:10383000992322F4BDE2909581959F4F0C94581CDA
:10384000592F482F372F262F660F771F881F991F54
:10385000660F771F881F991F620F731F841F951FA4
:10386000660F771F881F991F0895BB27FA01A62F9F
:103870006217710581059105330B30FB66F0AA27AD
:10388000660F771F881F991FAA1FA21710F0A21B8F
:1038900063953850A9F7A05DAA3308F0A95DA193FC
:1038A00036F7B111B1931082CA010C94A81EBB2740
:1038B000FB015527AA27880F991FAA1FA41710F0EC
:1038C000A41B83955051B9F7A05DAA3308F0A95DF8
:1038D000A193009779F7B111B1931192CB010C9498
:1038E000A81EA9E0B0E0E7E7FCE10C94DD1F6A0147
:1038F000F22EB02E102FFBE3AF2EA01608F41BE320
:103900001F5F012F27E0AE014F5F5F4F0E94D01D68
:10391000BC018981982F9970913009F43FC09BE2D6
:10392000E1FC04C09E2D9170E0FC3AC05E2D507108
:10393000E82FE87083FF46C084E0911101C083E066
:10394000EF2DE81B8F1508F0E0E0D6018E2F20E266
:10395000552351F1992329F0D6019C93C601019674
:103960006C0196012D5F3F4FE2FE24C08EE4D6012C
:103970008C9391E411969C93119712968C93D90194
:103980008E2F90E281111BC0E20FF32FF11D1082E8
:103990008EEF9FEF2996ECE00C94F91F9DE2C6CFC5
:1039A00090E2C4CF2D9381508111FCCFCE0ED11C5B
:1039B000E0E0D0CF8EE6D6018C9391E6DBCF9D93ED
:1039C0008150E0CF482F447082FF3DC084E09111C8
:1039D00001C083E08F1510F4EF2DE81BD6018E2F68
:1039E00020E2552309F1992329F0D6019C93C601C1
:1039F00001966C0196012D5F3F4FE2FE1BC089E4EA
:103A0000D6018C938EE411968C93119786E41296CE
:103A10008C93D9018E2F90E2882309F4B5CF9D9322
:103A20008150FACF2D9381508111FCCFCE0ED11C45
:103A3000E0E0D9CF89E6D6018C938EE611968C937F
:103A4000119786E6E4CF9B0177FF02C030E020E0CB
:103A5000A1E0B0E0911102C0B0E0A0E0F901319620
:103A6000AE0FBF1F8B2C912CBB2009F461C05401F9
:103A7000EFEFAE1ABE0AAA0DBB1DFA161B0619F00F
:103A800014F04F2D4A1B511188C0E3FC59C0760138
:103A9000A42FB0E2A1114FC0C40ED11C992309F488
:103AA0005BC040E0D6011196F60190836D0155236D
:103AB00009F448C0012F060F9A81582F507184FFD6
:103AC00003C0913309F4015010160CF047C00930BF
:103AD00008F008E0EEE2FE2E5B01A01AB1088501B5
:103AE0009194819491082F3F320729F4D601FC92DA
:103AF000F60131966F016217730794F102171307ED
:103B00007CF5DB01A21BB30BAA24A394B12CAC0E51
:103B1000BD1EAA0DBB1D11968C9121503109D601F5
:103B2000119628153905F4F0F60180836D01DBCF7D
:103B3000B12CA12CA0CFF701B1937F01A150AACF46
:103B40009111B0CFD601942F50E302C05D939150F4
:103B50009111FCCFC40ED11C40E0ACCF01E0BACF34
:103B600080E3DBCF6217730731F4963388F4953323
:103B700011F4552369F0F6018083FD01842F90E252
:103B8000811108C0A40FB11D1C9290E080E002CF0B
:103B900081E3F1CF91938150F3CF911183CF8ACFFD
:103BA000283008F027E03327DA01990F311D87FD0F
:103BB000916000966105710539F432602E5F3D9386
:103BC00030E32A95E1F708959F3F30F08038710582
:103BD000610509F03C5F3C5F3D93913008F08068DF
:103BE000911DDF93CF931F930F93FF92EF92192FA5
:103BF000987F9695E92F96959695E90FFF27EE53B6
:103C0000FF4F99273327EE24FF24A701E7010590F2
:103C10000894079428F4360FE71EF81E491F511D1B
:103C2000660F771F881F991F0694A1F705900794C8
:103C300028F4E70EF81E491F561FC11D770F881F75
:103C4000991F661F0694A1F70590079428F4F80EB3
:103C5000491F561FC71FD11D880F991F661F771F49
:103C60000694A1F70590079420F4490F561FC71F2B
:103C7000D81F990F661F771F881F0694A9F7849194
:103C80001095177041F0D695C79557954795F794BD
:103C9000E7941A95C1F7E8E6F0E06894159015915D
:103CA00035916591959105907FE27395E118F10A40
:103CB000430B560BC90BD009C0F7E10CF11E431F93
:103CC000561FC91FD01D7EF4703311F48A95E6CFBC
:103CD000E894015030F0080F0AF40027021708F4A6
:103CE000202F2395022F7A3328F079E37D932A95AC
:103CF000E9F710C07D932A9589F606949795679504
:103D0000379517951794E118F10A430B560BC90B19
:103D1000D00998F023957E9173957A3308F070E37B
:103D20007C932013B8F77E9170617D9330F083957A
:103D300071E37D9370E32A95E1F71124EF90FF90F2
:103D40000F911F91CF91DF91992787FD909508954D
:103D5000DC01FC01672F71917723E1F7329704C0F2
:103D60007C916D9370836291AE17BF07C8F308957D
:103D7000E89409C097FB3EF4909580957095619505
:103D80007F4F8F4F9F4F9923A9F0F92F96E9BB27BB
:103D90009395F695879577956795B795F111F8CF37
:103DA000FAF4BB0F11F460FF1BC06F5F7F4F8F4FA2
:103DB0009F4F16C0882311F096E911C0772321F098
:103DC0009EE8872F762F05C0662371F096E8862F30
:103DD00070E060E02AF09A95660F771F881FDAF787
:103DE000880F9695879597F90895990F0008550FB4
:103DF000AA0BE0E8FEEF16161706E807F907C0F071
:103E000012161306E407F50798F0621B730B840B78
:103E1000950B39F40A2661F0232B242B252B21F452
:103E200008950A2609F4A140A6958FEF811D811DF2
:103E300008950E942C1F0C949D1F0E948F1F38F024
:103E40000E94961F20F0952311F00C94861F0C946D
:103E50008C1F11240C94D11F0E94AE1F70F3959FEC
:103E6000C1F3950F50E0551F629FF001729FBB2771
:103E7000F00DB11D639FAA27F00DB11DAA1F649F0D
:103E80006627B00DA11D661F829F2227B00DA11DC0
:103E9000621F739FB00DA11D621F839FA00D611D46
:103EA000221F749F3327A00D611D231F849F600D67
:103EB000211D822F762F6A2F11249F5750409AF090
:103EC000F1F088234AF0EE0FFF1FBB1F661F771F1C
:103ED000881F91505040A9F79E3F510580F00C94E7
:103EE000861F0C94D11F5F3FE4F3983ED4F3869570
:103EF00077956795B795F795E7959F5FC1F7FE2B87
:103F0000880F911D9695879597F9089597F99F6762
:103F100080E870E060E008959FEF80EC0895002451
:103F20000A941616170618060906089500240A941E
:103F300012161306140605060895092E0394000CA4
:103F400011F4882352F0BB0F40F4BF2B11F460FF33
:103F500004C06F5F7F4F8F4F9F4F089557FD90585C
:103F6000440F551F59F05F3F71F04795880F97FB3D
:103F7000991F61F09F3F79F08795089512161306F7
:103F80001406551FF2CF4695F1DF08C01616170626
:103F90001806991FF1CF869571056105089408955B
:103FA000E894BB2766277727CB0197F908952F92CE
:103FB0003F924F925F926F927F928F929F92AF92B9
:103FC000BF92CF92DF92EF92FF920F931F93CF9306
:103FD000DF93CDB7DEB7CA1BDB0B0FB6F894DEBF9D
:103FE0000FBECDBF09942A88398848885F846E84C3
:103FF0007D848C849B84AA84B984C884DF80EE800D
:10400000FD800C811B81AA81B981CE0FD11D0FB615
:10401000F894DEBF0FBECDBFED0108955058BB2709
:10402000AA270E9426200C949D1F0E948F1F38F003
:104030000E94961F20F039F49F3F19F426F40C9447
:104040008C1F0EF4E095E7FB0C94861FE92F0E946D
:10405000AE1F58F3BA17620773078407950720F05D
:1040600079F4A6F50C94D01F0EF4E0950B2EBA2F20
:10407000A02D0B01B90190010C01CA01A00111246E
:10408000FF27591B99F0593F50F4503E68F11A161A
:10409000F040A22F232F342F4427585FF3CF4695AB
:1040A00037952795A795F0405395C9F77EF41F16CD
:1040B000BA0B620B730B840BBAF09150A1F0FF0F97
:1040C000BB1F661F771F881FC2F70EC0BA0F621F83
:1040D000731F841F48F4879577956795B795F79573
:1040E0009E3F08F0B0CF9395880F08F09927EE0F08
:1040F0009795879508950E94F51E08F48FEF08950F
:10410000A1E21A2EAA1BBB1BFD010DC0AA1FBB1FDB
:10411000EE1FFF1FA217B307E407F50720F0A21B4D
:10412000B30BE40BF50B661F771F881F991F1A94BA
:1041300069F760957095809590959B01AC01BD01E4
:10414000CF010895EE0FFF1F0590F491E02D099423
:104150000F931F93CF93DF938230910510F482E089
:1041600090E0E0911905F0911A0530E020E0B0E010
:10417000A0E0309799F42115310509F44AC0281BB5
:10418000390B24303105D8F58A819B816115710581
:1041900089F1FB0193838283FE0111C0408151812B
:1041A0000281138148175907E0F04817590799F41D
:1041B000109761F012960C93129713961C933296F7
:1041C000CF01DF91CF911F910F91089500931905B1
:1041D00010931A05F4CF2115310551F042175307FA
:1041E00038F0A901DB019A01BD01DF01F801C1CF5F
:1041F000EF01F9CF90931A0580931905CDCFFE01F9
:10420000E20FF31F81939193225031093983288360
:10421000D7CF2091170530911805232B41F4209119
:1042200046013091470130931805209317052091DE
:104230004401309145012115310541F42DB73EB7B8
:104240004091480150914901241B350BE09117051D
:10425000F0911805E217F307A0F42E1B3F0B281767
:10426000390778F0AC014E5F5F4F2417350748F0EF
:104270004E0F5F1F5093180540931705819391933C
:104280009FCFF0E0E0E09CCFCF93DF930097E9F081
:10429000FC01329713821282A0911905B0911A0580
:1042A000ED0130E020E01097A1F420813181820FF0
:1042B000931F20911705309118052817390709F029
:1042C00061C0F0931805E0931705DF91CF91089531
:1042D000EA01CE17DF07E8F54A815B819E014115AF
:1042E0005105B1F7E901FB83EA8349915991C40F64
:1042F000D51FEC17FD0761F4808191810296840F30
:10430000951FE90199838883828193819B838A83A6
:10431000F0E0E0E012968D919C9113970097B9F52B
:104320002D913C911197CD010296820F931F209100
:104330001705309118052817390739F6309751F5C8
:1043400010921A0510921905B0931805A09317053D
:10435000BCCFD383C28340815181840F951FC8177E
:10436000D90761F44E5F5F4F88819981480F591FCB
:10437000518340838A819B819383828321153105F8
:1043800009F0B0CFF0931A05E09319059ECFFD0117
:10439000DC01C0CF13821282D7CFB0E0A0E0E3ED02
:1043A000F1E20C94D91F8C01009751F4CB010E94CB
:1043B000A8208C01C801CDB7DEB7E0E10C94F51F51
:1043C000FC01E60FF71F9C0122503109E217F307A9
:1043D00008F49DC0D901CD91DC911197C617D7077C
:1043E00098F0C530D10530F3CE01049786179707B2
:1043F00008F3C61BD70B2297C193D1936D937C937F
:10440000CF010E944421D6CF5B01AC1ABD0A4C01FA
:104410008C0E9D1EA0911905B0911A05512C412CAE
:10442000F12CE12C109731F580911705909118052A
:104430008815990509F05CC04616570608F058C063
:104440008091440190914501009741F48DB79EB74A
:104450004091480150914901841B950BE817F907D9
:1044600008F055C0F0931805E0931705F901718322
:104470006083A0CF8D919C91119712966C901297AA
:1044800013967C901397A815B90559F56C0142E075
:10449000C40ED11CCA14DB0420F1AC014A195B091B
:1044A000DA011296159780F06282738251834083FD
:1044B000D9016D937C93E114F10471F0D701139647
:1044C000FC93EE93129776CF22968C0F9D1FF901E5
:1044D00091838083F301EFCFF0931A05E0931905E0
:1044E00069CF4816590608F42C017D01D3019ACFF3
:1044F000CB010E94A8207C01009749F0AE01B801D1
:104500000E948A22C8010E944421870153CF10E0F3
:1045100000E050CFFB01DC0102C001900D92415040
:104520005040D8F70895FB01DC018D91019080196E
:104530000110D9F3990B0895FB01DC0101900D9254
:0A4540000020E1F70895F894FFCF82
:10454A00FFFFFFFFFFFFFFFF71776572747931325A
:10455A0033006950686F6E6520284A616B7562295D
:10456A00000100010001007777772E706A34313438
:10457A0039312E7A75742E6564752E706C001300AD
:10458A00A086010000001B05800000004000140006
:10459A005400000000005002B001DD019D020E022D
:1045AA00EC01000200000000000AD309930ACB07BD
:1045BA00CC09B909AA0900000000020BB001930A4C
:1045CA007809000000006209BC08930ACB077E083C
:1045DA005A08CC07C80B540FF0076407500748075E
:1045EA0000000000630B0D0A004E6F20536F636BCF
:1045FA00657420617661696C61626C650054656DF1
:10460A00703A20005A6164616E613A200057696C01
:10461A00673A20002025524800537461747573204C
:10462A0057694669004F4B004552524F52002025A8
:10463A004300312E312E30004950204164647265A6
:10464A0073733A20007369676E616C2073747265C4
:10465A006E677468202852535349293A00206442ED
:10466A006D002F67657456616C75652E70687000F1
:10467A000A5374617274696E6720636F6E6E656344
:10468A0074696F6E20746F207365727665722E2E50
:10469A002E00636F6E6E656374656420746F207399
:1046AA00657276657200474554200020485454507C
:1046BA002F312E3100486F73743A2000436F6E6EAB
:1046CA00656374696F6E3A20636C6F736500646921
:1046DA0073636F6E6E656374656400636F6E6E6597
:1046EA006374696F6E206661696C65640026757310
:1046FA00746177696F6E613D002677696C676F74C4
:10470A006E6F73633D002F696E6465782E706870F2
:10471A003F74656D70657261747572613D00203D0C
:10472A002000202D2D2000506F6E6F776E653A2085
:10473A0000637A61733A2000535349443A200000D7
:00000001FF
