:100000000C941A010C9442010C9442010C9442018C
:100010000C9442010C9442010C9442010C94420154
:100020000C9442010C9442010C9442010C94420144
:100030000C9442010C9442010C9442010C94420134
:100040000C9433100C9442010C9401100C94DB0FAF
:100050000C9442010C9442010C9442010C94420114
:100060000C947D100C94420100407A10F35A00A0C9
:10007000724E18090010A5D4E80000E87648170071
:1000800000E40B54020000CA9A3B000000E1F505B1
:10009000000080969800000040420F000000A086FB
:1000A00001000000102700000000E803000000002D
:1000B0006400000000000A000000000001000000D1
:1000C00000002C76D888DC674F0823DFC1DFAE59EB
:1000D000E1B1B796E5E3E453C63AE651997696E87E
:1000E000E6C28426EB898C9B62ED407C6FFCEFBC02
:1000F0009C9F40F2BAA56FA5F490055A2AF75C932D
:100100006B6CF9676DC11BFCE0E40D47FEF520E662
:10011000B500D0ED902E0300943577050080841E45
:10012000080000204E0A000000C80C333333330FA0
:10013000986E12831141EF8D2114893BE65516CF3D
:10014000FEE6DB18D1844B381BF77C1D901DA4BB49
:10015000E424203284725E228100C9F124ECA1E5FE
:100160003D2700000000240027002A0000000000B6
:10017000250028002B0000000008000201000003F9
:1001800004070000000000000000436F6E6E65630E
:1001900074204F4B00576946692E2E2E00436F6E18
:1001A0006E656374696E6720746F00417474656D69
:1001B0007074696E6720746F20636F6E6E65637410
:1001C00020746F20535349443A2000506C6561738A
:1001D0006520757067726164652074686520666962
:1001E000726D776172650057694669207368696549
:1001F0006C64206E6F742070726573656E7400009D
:100200000000002300260029000404040404040460
:1002100004020202020202030303030303010204B5
:100220000810204080010204081020010204081078
:1002300020004B1211241FBECFEFD8E0DEBFCDBF90
:1002400024E0A4EEB2E001C01D92AF3EB207E1F798
:1002500012E0A0E0B1E0E6E4F1E402C005900D9206
:10026000A43EB107D9F711E0CAE1D1E004C021975B
:10027000FE010E94A01EC931D107C9F70E94F412E5
:100280000C94A1200C940000CF92DF92EF92FF9289
:10029000CF93DF93B091CA04A0E08111AB2F80917E
:1002A000CB0490E0880F991FAC0141505E4FC09085
:1002B000D004D090D104E090D204F090D30430E088
:1002C00020E0FA01C591D491E881B90190E080E085
:1002D000EB23EA130AC02F5F3F4F6C157D058E0597
:1002E0009F0578F36FEF7FEFCB01DF91CF91FF9008
:1002F000EF90DF90CF90089508950895DB01149654
:100300004D915C9115976D917C91DC01ED91FC9183
:100310000280F381E02D0994EF92FF920F931F93D7
:10032000CF93DF938C017B01D0E0C0E0F701EC0FAD
:10033000FD1F6491662361F0D801ED91FC9101905D
:10034000F081E02DC8010995892B11F02196EECF9F
:10035000CE01DF91CF911F910F91FF90EF90089503
:10036000AF92BF92CF92DF92EF92FF920F931F93C3
:10037000CF93DF936C017B018B01040F151FEB0101
:100380005E01AE18BF08C017D10759F06991D601B8
:10039000ED91FC910190F081E02DC6010995892B2A
:1003A00079F7C501DF91CF911F910F91FF90EF90E9
:1003B000DF90CF90BF90AF900895FC01538D448D96
:1003C000252F30E0842F90E0821B930B541710F000
:1003D000CF96089501970895FC01918D828D98170D
:1003E00061F0A28DAE0FBF2FB11D5D968C91928DE5
:1003F0009F5F9F73928F90E008958FEF9FEF089516
:10040000FC01918D828D981731F0828DE80FF11DDE
:10041000858D90E008958FEF9FEF0895FC01918DF9
:10042000228D892F90E0805C9F4F821B91098F73F2
:100430009927089580EF93E00E940E0221E0892B16
:1004400009F420E0822F089580E090E0892B29F0C4
:100450000E941A0281110C9400000895FC01A48DE1
:10046000A80FB92FB11DA35ABF4F2C91848D90E0D6
:1004700001968F739927848FA689B7892C93A089B9
:10048000B1898C91837080648C93938D848D981343
:1004900006C00288F389E02D80818F7D80830895D6
:1004A000EF92FF920F931F93CF93DF93EC0181E0C4
:1004B000888F9B8D8C8D98131AC0E889F98980816B
:1004C00085FF15C09FB7F894EE89FF896083E8899E
:1004D000F98980818370806480839FBF81E090E090
:1004E000DF91CF911F910F91FF90EF900895F62E1D
:1004F0000B8D10E00F5F1F4F0F731127E02E8C8DB7
:100500008E110CC00FB607FCFACFE889F9898081FB
:1005100085FFF5CFCE010E942E02F1CFEB8DEC0FBF
:10052000FD2FF11DE35AFF4FF0829FB7F8940B8F18
:10053000EA89FB8980818062CFCFCF93DF93EC0182
:10054000888D8823B9F0AA89BB89E889F9898C91BB
:1005500085FD03C0808186FD0DC00FB607FCF7CF77
:100560008C9185FFF2CF808185FFEDCFCE010E9477
:100570002E02E9CFDF91CF910895833081F028F4E6
:10058000813099F08230A9F008958730A9F0883041
:10059000C9F08430B1F4809180008F7D03C08091D8
:1005A00080008F7780938000089584B58F7784BD15
:1005B000089584B58F7DFBCF8091B0008F778093B5
:1005C000B00008958091B0008F7DF9CFCF93DF9375
:1005D000282F30E0F901EA58FE4F8491F901E35EDB
:1005E000FD4FD491F901E75FFD4FC491CC23A1F0F9
:1005F00081110E94BD02EC2FF0E0EE0FFF1FE150D1
:10060000FE4FA591B491EC91ED2381E090E009F4C7
:1006100080E0DF91CF91089580E090E0FACF1F93C2
:10062000CF93DF93282F30E0F901EA58FE4F8491F1
:10063000F901E35EFD4FD491F901E75FFD4FC491ED
:10064000CC23A9F0162F81110E94BD02EC2FF0E0FF
:10065000EE0FFF1FE459FE4FA591B4918FB7F894A8
:10066000EC91111108C0D095DE23DC938FBFDF9190
:10067000CF911F910895DE2BF8CFCF93DF9390E0B9
:10068000FC01E35EFD4F2491875F9D4FFC01849147
:100690008823C9F090E0880F991FFC01EE59FE4FA6
:1006A000A591B491FC01E459FE4FC591D49161111B
:1006B0000DC09FB7F8948C91209582238C938881EC
:1006C000282328839FBFDF91CF910895623051F492
:1006D0009FB7F8943C91822F809583238C93E88177
:1006E0002E2BEFCF8FB7F894EC912E2B2C938FBF3E
:1006F000EACF3FB7F8948091A0039091A103A09115
:10070000A203B091A30326B5A89B05C02F3F19F003
:100710000196A11DB11D3FBFBA2FA92F982F882781
:10072000BC01CD01620F711D811D911D42E0660F5C
:10073000771F881F991F4A95D1F708958F929F922E
:10074000AF92BF92CF92DF92EF92FF924B015C018A
:100750000E9479036B017C010E9479036C197D0969
:100760008E099F09683E734081059105A8F321E039
:10077000821A9108A108B10888EEC80E83E0D81E3D
:10078000E11CF11C81149104A104B10429F7FF902C
:10079000EF90DF90CF90BF90AF909F908F90089593
:1007A0002FB7F89460919C0370919D0380919E03F4
:1007B00090919F032FBF0895CF92DF92EF92FF9207
:1007C0000F931F93CF93DF93CDB7DEB7C054D140C3
:1007D0000FB6F894DEBF0FBECDBF0E94D0030091CC
:1007E000CC041091CD042091CE043091CF046B0144
:1007F0007C01C01AD10AE20AF30A97018601003D82
:1008000017402105310590F48091D404C05CDE4F7F
:100810000FB6F894DEBF0FBECDBFDF91CF911F9111
:100820000F91FF90EF90DF90CF9008956093CC04EC
:100830007093CD048093CE049093CF041092C7049C
:100840001092C6041092C5041092C4041092C304FE
:1008500062E08091C8040E943D0361E070E080E0A6
:1008600090E00E949E0361E08091C8040E943D03D5
:1008700060E08091C8040E940F038091C9048551F3
:10088000823020F58BE291E10197F1F762E08091EF
:10089000C8040E943D038091D50490E08230910508
:1008A00038F0880F991F880F991F05970197F1F766
:1008B000F89480E00E9444016F3F7F4F8F4F9F4F1D
:1008C00061F41092D404789480E0A0CF64E170E0E9
:1008D00080E090E00E949E03D9CF81E00E94440115
:1008E0006F3F7F4F8F4F9F4F61F38E010F5F1F4F01
:1008F0006E012FEBC21A2EEFD20A780180E00E941F
:100900004401F701608371838283938381E00E94B5
:100910004401F7016483758386839783F8E0EF0EC3
:10092000F11CEC14FD0451F7789430E020E0F8015C
:10093000C080D180E280F3804481558166817781D7
:10094000FFEFCF16DF06EF06FF0631F04F3F8FEFC8
:1009500058076807780719F41092D404B5CFF90145
:1009600083E0F595E7958A95E1F7ED53FB4F80819C
:10097000880FC416D506E606F70610F180832F5FB0
:100980003F4F085F1F4F2832310589F64091C70459
:100990002091C3048091C404280F3327331F809112
:1009A000C504280F311D8091C604820F932F911D1D
:1009B00099274817190681F681E08093D40426CF41
:1009C0008160DCCF87E00E94E602892BD9F7089589
:1009D000CF93DF931F92CDB7DEB7898389818EBD18
:1009E00000000DB407FEFDCF8EB52AE030E0000018
:1009F00021503109E1F70F90DF91CF910895CF9306
:100A0000DF93D82FC62F80EE0E94E80483E290E0A7
:100A10000197F1F78D2F0E94E8048C2F0E94E804C3
:100A2000C11105C08EEEDF91CF910C94E804DF91E7
:100A3000CF910895DF92EF92FF920F931F93CF9380
:100A4000DF93D82EE92E8B01F42E812F0E94E8042B
:100A5000802F0E94E804CD2DDE2D0C0F1D1FC01726
:100A6000D10721F089910E94E804F9CF81E0F812C2
:100A70000AC08EEEDF91CF911F910F91FF90EF9002
:100A8000DF900C94E804DF91CF911F910F91FF90BC
:100A9000EF90DF900895DF92EF92FF920F931F93F4
:100AA000CF93DF937C01C62FD42E862F0E94E804BB
:100AB0008701D0E0C8018E199F098C179D0734F477
:100AC000F80181918F010E94E804F4CFF1E0DF1278
:100AD0000AC08EEEDF91CF911F910F91FF90EF90A2
:100AE000DF900C94E804DF91CF911F910F91FF905C
:100AF000EF90DF900895CF93DF93EC018FEF0E948A
:100B0000E80488838AE090E000000197E9F7DF912C
:100B1000CF910895CF93DF931F92CDB7DEB719829F
:100B2000CE0101960E947B0589810F90DF91CF91C4
:100B30000895CF93DF93C9EED3E00E948A058F3EDC
:100B400069F0219711F0803EC1F721E090E0803EEE
:100B500009F020E0822FDF91CF9108958FEF9FEF72
:100B6000FACFCF92DF92EF92FF920F931F93CF9322
:100B7000DF931F92CDB7DEB7182F6B017A01198270
:100B80000E949905892B61F490E080E00F90DF913D
:100B9000CF911F910F91FF90EF90DF90CF9008952C
:100BA000CE0101960E947B05106889811813ECCF55
:100BB000CE0101960E947B058981813029F78FEF54
:100BC0000E94E804F701808310E000E0F7018081D3
:100BD0008017110649F044F0C601800F911F0E9452
:100BE0007B050F5F1F4FF2CFCE0101960E947B0560
:100BF00081E090E0CBCFCF92DF92EF92FF920F9304
:100C00001F93CF93DF931F92CDB7DEB7182F7B01D1
:100C10006A0119820E949905892B61F490E080E0B5
:100C20000F90DF91CF911F910F91FF90EF90DF9088
:100C3000CF900895CE0101960E947B0510688981AE
:100C40001813ECCF0E948A058823B1F08FEF0E9421
:100C5000E804F60180838701F6012081C8018E191E
:100C60009F092817190641F03CF08FEF0E94E80415
:100C7000F80181938F01F0CFCE0101960E947B0590
:100C800081E090E0CDCF61E08AE00C940F0360E05A
:100C90008AE00C940F03CF93CFB7F89480918E0322
:100CA000811127C0E3E1F2E08491E7E2F2E0949160
:100CB000E82FF0E0EE0FFF1FEE59FE4FA591B49123
:100CC000EC91E92321F461E08AE00E940F0361E0E6
:100CD0008AE00E943D038CB580618CBD8CB5806438
:100CE0008CBD61E08DE00E943D0361E08BE00E94DD
:100CF0003D0380918E038F5F80938E03CFBF61E0B1
:100D00008AE00E943D0360E087E00E943D0361E0CD
:100D100089E00E943D0361E08AE00E940F0361E0E8
:100D20008AE00E940F0360E089E0CF910C940F03EA
:100D3000CF93DF9300D0CDB7DEB78091D50381117B
:100D400005C00E944B0681E08093D5030E94E20417
:100D50000E94470660E080E20E94FF040E94E204D5
:100D60008FEF89831A82AE014E5F5F4FBE016F5FC6
:100D70007F4F80E20E94B1050E94430689810F9057
:100D80000F90DF91CF910895FF920F931F93CF9310
:100D9000DF9300D01F92CDB7DEB78B838B01F42E8B
:100DA00080918D03811105C00E944B0681E08093E4
:100DB0008D030E94E2040E94470662E08CE20E94DA
:100DC000FF0440E061E0CE0103960E944B0582E003
:100DD0000E94E80480E00E94E8048F2D0E94E8044D
:100DE0008EEE0E94E8040E94E20419821A82AE018B
:100DF0004E5F5F4FBE016F5F7F4F8CE20E94FB052D
:100E00000E9443068A81882369F08981F8018083E2
:100E100081E00F900F900F90DF91CF911F910F9174
:100E2000FF90089580E0F5CFCF93DF9300D01F921D
:100E3000CDB7DEB78B8380918D03811105C00E94F1
:100E40004B0681E080938D030E94E2040E944706D6
:100E500061E08FE20E94FF0441E061E0CE01039671
:100E60000E944B050E94E20419821A82AE014E5F75
:100E70005F4FBE016F5F7F4F8FE20E94B1050E94FE
:100E8000430689810F900F900F90DF91CF910895C5
:100E900021E0FC0184858F3F09F420E0822F089532
:100EA000FC0184858F3F71F00E941407843038F074
:100EB0009BEF980F933018F091E08A3009F490E09E
:100EC000892F089580E00895EF92FF920F931F936A
:100ED000CF93DF9300D01F92CDB7DEB7FC0194858E
:100EE0009F3F09F44EC08F019B8380918D03811138
:100EF00005C00E944B0681E080938D030E94E204AE
:100F00000E94470661E08EE20E94FF0441E061E03A
:100F1000CE0103960E944B050E94E2041A821982B8
:100F2000AE014F5F5F4FBE016E5F7F4F8EE20E944A
:100F3000B1050E944306D8011C96EC91F0E0EE0F3B
:100F4000FF1FE050FF4F8FEF9FEF9183808392E36D
:100F5000E92EF12CF80184858F3F79F00E94140767
:100F6000882359F0F1E0EF1AF10839F064E670E0F7
:100F700080E090E00E949E03EDCF8FEFD8011C9699
:100F80008C930F900F900F90DF91CF911F910F9145
:100F9000FF90EF90089508950F931F93CF93DF93E1
:100FA0001F92CDB7DEB78C01DC01ED91FC9100847E
:100FB000F185E02D0995892B81F041E0BE016F5F3D
:100FC0007F4FF80184850E94C406898190E00F90CC
:100FD000DF91CF911F910F9108958FEF9FEFF7CF82
:100FE000CF92DF92EF92FF920F931F93CF93DF93F5
:100FF00000D0CDB7DEB76B017A01FC0184858A830E
:1010000080918D03811105C00E944B0681E0809381
:101010008D030E94E2040E94470661E085E40E947D
:10102000FF0441E061E070E0CE0102960E941A05E3
:101030000E94E20419820E949905892B29F1CE01B0
:1010400001960E947B058981853CF1F40E948A0506
:101050008823B1F08FEF0E94E804E82E8FEF0E9402
:10106000E804FE2CE82E8601CE0CDF1CC016D1064B
:1010700039F08FEF0E94E804F80181938F01F6CFD9
:10108000CE0101960E947B050E94430681E090E01C
:10109000EF2811F090E080E09195819591090F90F3
:1010A0000F90DF91CF911F910F91FF90EF90DF9004
:1010B000CF9008950F931F93CF93DF931F92CDB7D7
:1010C000DEB78C01DC01ED91FC910084F185E02D0F
:1010D0000995892B81F040E0BE016F5F7F4FF801D9
:1010E00084850E94C406898190E00F90DF91CF91A2
:1010F0001F910F9108958FEF9FEFF7CFCF93DF935D
:1011000000D000D0CDB7DEB7FC0184858F3F89F1D8
:101110008C8380918D03811105C00E944B0681E074
:1011200080938D030E94E2040E94470661E08BE2F7
:101130000E94FF0441E061E0CE0104960E944B054D
:101140000E94E2041B821A821982AE014D5F5F4F3A
:10115000BE016F5F7F4F8BE20E94B1050E94430684
:1011600089819A810F900F900F900F90DF91CF910E
:10117000089590E080E0F6CFBF92CF92DF92EF9299
:10118000FF920F931F93CF93DF9300D000D0CDB782
:10119000DEB76C018B017A01FC0184858430B0F0EC
:1011A00081E090E0F60193838283F12CE12CC7016A
:1011B0000F900F900F900F90DF91CF911F910F9193
:1011C000FF90EF90DF90CF90BF900895452B41F3B3
:1011D0008C8380918D03811105C00E944B0681E0B4
:1011E00080938D030E94E2040E94470662E084E43B
:1011F0000E94FF0440E061E070E0CE0104960E948E
:101200001A0541E0B701C8010E941A050E94E204D4
:101210001A821982AE014F5F5F4FBE016E5F7F4F32
:1012200084E40E94FB050E9443068981882309F417
:10123000B7CF8A81813009F0B3CFF60184858B83E3
:101240001A82198210E000E0BB24B39480918D03D0
:10125000811104C00E944B06B0928D030E94E204EB
:101260000E94470661E08AE20E94FF0441E061E0DB
:10127000CE0103960E944B050E94E204AE014F5F2F
:101280005F4FBE016E5F7F4F8AE20E94B1050E94F0
:1012900043068A81811113C00F5F1F4F64E670E01F
:1012A00080E090E00E949E038A81811103C0093191
:1012B000110560F20931110509F472CF78CF10E001
:1012C00000E0F2CFCF93DF931F92CDB7DEB76983F3
:1012D000DC01ED91FC910280F381E02D41E050E0D2
:1012E000BE016F5F7F4F09950F90DF91CF910895F9
:1012F000089585ED8093BC008091BC0084FDFCCFF7
:101300001092AA03089520912403260F3327331F38
:1013100021323105ECF42091AA03FC0190E080E039
:10132000243069F082E00895A09124032191AC015A
:101330004C5F5C4FA40FB52FB11D2C9301968617FF
:1013400098F380912403680F6093240380E008954C
:1013500081E00895E091AE038091AD03E81730F489
:10136000F0E0EC51FD4F808190E008958FEF9FEF0A
:1013700008959091AE038091AD032FEF3FEF981742
:1013800048F4E92FF0E0EC51FD4F208130E09F5F01
:101390009093AE03C90108958091AD039091AE037F
:1013A000891B990B0895CF92DF92EF92FF920F93D2
:1013B0001F93CF93DF937C01CB018A0120916B03B4
:1013C000222389F0EB016B01C40ED51ECC15DD057F
:1013D00069F06991D701ED91FC910190F081E02DC8
:1013E000C7010995F3CF642F0E948309C801DF91DB
:1013F000CF911F910F91FF90EF90DF90CF900895C4
:10140000CF93DF931F92CDB7DEB7698320916B0333
:101410002223F9F02091AB03203258F021E030E094
:10142000FC013383228390E080E00F90DF91CF9125
:1014300008958091AC03E82FF0E0E459FC4F9981C6
:1014400090838F5F8093AC038093AB0381E090E047
:10145000ECCF61E0CE0101960E948309F7CFCF93D4
:10146000FC01C48121E020936B03C0938C03109294
:10147000AC031092AB038385682B8BEA94E00E9447
:10148000000A9091AB03913208F03FC08091AA030B
:101490008111FCCF82E08093AA0381E08093A903AD
:1014A0008FEF80936A031092690390936803ACE610
:1014B000B3E0E8E4F3E080E098132FC01092470314
:1014C00080914703CC0FC82BC09347038091A8039A
:1014D000813039F51092A803809147038093BB00B7
:1014E0008091BC0083FDF8CF85EC8093BC00809197
:1014F000AA038230E1F380916A038F3F31F080913B
:101500006A03803211F080916A031092AC0310924A
:10151000AB0310926B03CF9108952D9121938F5FB0
:10152000CBCF85EEE2CF90E080E00895FB01019003
:101530000020E9F73197AF01461B570BDC01ED9115
:10154000FC910280F381E02D09948F929F92AF92DB
:10155000BF92EF92FF920F931F93CF93DF93CDB77C
:10156000DEB7A1970FB6F894DEBF0FBECDBF7C01EA
:10157000FA01CB0119A2223008F42AE08E010F5D96
:101580001F4F822E912CB12CA12CBF01A5019401DB
:101590000E947E1EF901CA016A300CF5605DD80117
:1015A0006E938D01232B242B252B79F790E080E07F
:1015B000109721F0BD01C7010E94960AA1960FB6AF
:1015C000F894DEBF0FBECDBFDF91CF911F910F9179
:1015D000FF90EF90BF90AF909F908F900895695CBF
:1015E000DECF65EA71E00C94960ACF93DF93BC01DD
:1015F00086ED94E00E947E01EC0186ED94E00E946D
:10160000F10A8C0F9D1FDF91CF9108950F931F93C7
:10161000CF93DF938C01D0E0C0E06115710519F024
:101620000E94960AEC01C8010E94F10A8C0F9D1FCE
:10163000DF91CF911F910F9108958F929F92AF925A
:10164000BF92CF92DF92EF92FF920F931F93CF93AF
:10165000DF937C01EB016C0182E0C80ED11C4701D5
:10166000E5E08E0E911C10E000E0F60141916F0163
:1016700050E070E060E02AE0CE010E94A50A5C0123
:10168000E881F9810190F081E02D6EE2CE010995AB
:101690008A0D9B1D080F191FC814D90431F7F701D3
:1016A000458150E070E060E02AE0CE010E94A50A8A
:1016B000800F911FDF91CF911F910F91FF90EF90BD
:1016C000DF90CF90BF90AF909F908F900895CF9272
:1016D000DF92EF92FF920F931F93CF93DF93CDB7DB
:1016E000DEB728970FB6F894DEBF0FBECDBF8C01D2
:1016F000F42EE52EE0E0F1E090E080E021913191E0
:101700002F3F3F4F29F0019684309105B9F78FEFB5
:10171000D8011C968C938F3F09F48EC0FB01428147
:1017200053816481758149835A836B837C83888765
:101730001D8280918D03811105C00E944B0681E0BE
:1017400080938D030E94E2040E94470664E08DE2CC
:101750000E94FF0440E064E0CE0101960E944B0528
:1017600082E00E94E8048E2D0E94E8048F2D0E94E2
:10177000E80440E061E0CE0108960E944B0541E09C
:1017800061E0CE0105960E944B050E94E2041F8293
:101790001E82AE014A5F5F4FBE01695F7F4F8DE2DF
:1017A0000E94B1050E944306D8011C968C9190E0DE
:1017B000FC01EE0FFF1FE050FF4F918380830E94DA
:1017C000D0036B017C01D801ED91FC910688F7896B
:1017D000E02DC8010995811112C00E94D0036C1937
:1017E0007D098E099F09603177428105910538F4A2
:1017F00061E070E080E090E00E949E03E4CFD801B9
:10180000ED91FC910688F789E02DC801099521E04A
:1018100090E0811101C020E0822F28960FB6F89445
:10182000DEBF0FBECDBFDF91CF911F910F91FF9013
:10183000EF90DF90CF90089568EA71E080EF93E039
:101840000E94060B80E090E0E8CF0F931F93CF93A8
:101850008C01C62F0E942F0A6C2F6460C8010E9461
:101860002F0A6C2F6B7FC8010E942F0A83EC90E037
:101870000197F1F7CF911F910F9108950F931F9347
:10188000CF93DF938C01D62FC42F607F642B0E94EF
:10189000250C80E1D89FB00111246C2BC801DF9189
:1018A000CF911F910F910C94250CCF93DF93CDB75F
:1018B000DEB728970FB6F894DEBF0FBECDBF98E015
:1018C000E9E4F1E0DE01119601900D929A95E1F7BD
:1018D0009091C004981708F48FEF90E0880F991F3B
:1018E00021E030E02C0F3D1F820F931FFC0160812F
:1018F000606840E087EB94E028960FB6F894DEBF6E
:101900000FBECDBFDF91CF910C943E0C40E061E063
:1019100087EB94E00E943E0C8BE39FE10197F1F787
:10192000089541E00E943E0C81E090E008950F93FD
:101930001F93CF93DF93EC0188819981009759F031
:101940002A813B812617370730F081E0DF91CF9164
:101950001F910F9108958B016F5F7F4F0E94CB1FE6
:10196000009759F0998388831B830A832C813D81DA
:10197000232B59F7FC011082E8CF80E0E7CFEF92EC
:10198000FF920F931F93CF93DF936115710541F47D
:1019900080E0DF91CF911F910F91FF90EF9008951C
:1019A00041155105B1F07B01EC010C811D81040F43
:1019B000151FB8010E94970C882351F328813981A3
:1019C0008C819D81B701820F931F0E949A201D83F5
:1019D0000C8381E0DECFCF93DF93EC018881998186
:1019E000009711F00E94421F198218821D821C82EA
:1019F0001B821A82DF91CF9108950F931F93CF938B
:101A0000DF9300D0CDB7DEB78C0169831A8241E045
:101A100050E0BE016F5F7F4F0E94BF0C811103C079
:101A2000C8010E94EB0CC8010F900F90DF91CF917D
:101A30001F910F910895CF93DF93EC01FB0101906B
:101A40000020E9F73197AF01461B570B0E94BF0CEE
:101A5000811103C0CE010E94EB0CCE01DF91CF912A
:101A60000895CF93DF93EC01FB01448155816081A0
:101A700071810E94BF0C811103C0CE010E94EB0C4A
:101A8000CE01DF91CF910895EF92FF920F931F93B4
:101A9000CF93DF93EC017B018A01BA010E94970C7E
:101AA00081110BC0CE010E94EB0CCE01DF91CF91D2
:101AB0001F910F91FF90EF9008951D830C83B70144
:101AC000888199810E949A20F0CFEF92FF920F9324
:101AD0001F93CF93DF93CDB7DEB7A1970FB6F894DE
:101AE000DEBF0FBECDBF7C01CB01BA01F701118271
:101AF000108213821282158214828E010F5F1F4F93
:101B000022E044E00E94F0190097C9F0FC01019026
:101B10000020E9F73197AF01481B590BBC01C70101
:101B20000E94440DA1960FB6F894DEBF0FBECDBF44
:101B3000DF91CF911F910F91FF90EF900895C70112
:101B40000E94EB0CEFCFEF92FF920F931F93CF9376
:101B5000DF93CDB7DEB762970FB6F894DEBF0FBE46
:101B6000CDBF8C01CB01F801118210821382128249
:101B7000158214824AE09E012F5F3F4F7901B9011F
:101B80000E94351AF70101900020E9F73197AF0163
:101B90004E195F09B701C8010E94440D62960FB645
:101BA000F894DEBF0FBECDBFDF91CF911F910F9193
:101BB000FF90EF900895CF93DF93EC01FB01861720
:101BC000970749F0608171816115710541F0448189
:101BD00055810E94440DCE01DF91CF9108950E945E
:101BE000EB0CF9CFFC011182108213821282158254
:101BF00014826115710551F0FB0101900020E9F795
:101C00003197AF01461B570B0C94440D0895FC010E
:101C1000808191810C94421FCF93DF93CDB7DEB7C3
:101C20002C970FB6F894DEBF0FBECDBF8091D603C0
:101C3000882321F00E94860C1092D6038091D7034E
:101C40009091D8038130910509F46CC082309105E0
:101C500009F487C0892B09F0A7C080E00E94550CC9
:101C60004091DC035091DD036091DE037091DF034E
:101C7000CE0107960E94650D6CEB71E0CE010196D6
:101C80000E94F20DBE01695F7F4FCE0101960E9456
:101C9000310D62EE72E00E941B0D6FED0E94FD0C93
:101CA0006FEE71E00E941B0DBC0187EB94E00E9477
:101CB0007E01CE0101960E94070ECE0107960E947A
:101CC000070E81E00E94550C60913D0170913E012C
:101CD000CE0107960E94A30D63EC71E0CE01019640
:101CE0000E94F20DBE01695F7F4FCE0101960E94F6
:101CF000310D62EE72E00E941B0D6FED0E94FD0C33
:101D00006FEE71E00E941B0DBC0187EB94E00E9416
:101D10007E01CE0101960E94070ECE0107960E9419
:101D2000070E39C080E00E94550C4091E0035091AD
:101D3000E1036091E2037091E303CE0107960E94F4
:101D4000650D6CEC71E0CE0101960E94F20DBE01B2
:101D5000695F7F4FCE0101960E94310D63ED71E006
:101D6000D1CF80E00E94550C68ED71E087EB94E0E4
:101D70000E94960A81E00E94550C8091D9039091AF
:101D8000DA0364EE71E0039711F067EE71E087EB20
:101D900094E00E94960A2C960FB6F894DEBF0FBE10
:101DA000CDBFDF91CF91089580E00E94550C409106
:101DB000E0035091E1036091E2037091E303CE01EF
:101DC00007960E94650D6CEC71E0CE0101960E94B1
:101DD000F20DBE01695F7F4FCE0101960E94310D69
:101DE00063ED71E00E941B0DBC0187EB94E00E9443
:101DF0007E01CE0101960E94070ECE0107960E9439
:101E0000070E81E00E94550C4091DC035091DD03E8
:101E10006091DE037091DF03CE0107960E94650D8D
:101E20006CEB71E0CE0101960E94F20DBE01695F7C
:101E30007F4FCE0101960E94310D6DEE71E062CFB1
:101E40003F924F925F926F927F928F929F92AF924A
:101E5000BF92CF92DF92EF92FF920F931F93CF9397
:101E6000DF93CDB7DEB72B970FB6F894DEBF0FBE6A
:101E7000CDBF7C018B016A018091D503811105C022
:101E80000E944B0681E08093D5030E94E2040E94E9
:101E9000470661E084E30E94FF04F80101900020FE
:101EA000E9F73197BF01601B710B41E0C8010E9447
:101EB0004B050E94E2041F821982AE014F5F5F4F03
:101EC000BE01695F7F4F84E30E94B105182F0E9415
:101ED000430611111AC090E080E02B960FB6F894DB
:101EE000DEBF0FBECDBFDF91CF911F910F91FF904D
:101EF000EF90DF90CF90BF90AF909F908F907F90AA
:101F00006F905F904F903F9008950AE01FEF332449
:101F100033941B831C831D831E838091D503811101
:101F200004C00E944B063092D5030E94E2040E9436
:101F3000470660E085E30E94FF040E94E2041B86DE
:101F4000AE01455F5F4FBE01695F7F4F85E30E9431
:101F5000B105892B61F40E944306015009F4BBCFFF
:101F600068EE73E080E090E00E949E03D2CF4F8045
:101F7000588469847A848B809C80AD80BE800E9466
:101F8000430684149504A604B70439F3D701ED91F0
:101F9000FC910684F785E02D83EA91E09A8389839A
:101FA0004B825C826D827E82A601BE016F5F7F4F95
:101FB000C701099592CF1F920F920FB60F9211246D
:101FC0002F933F934F935F936F937F938F939F9341
:101FD000AF93BF93EF93FF9380EF93E00E942E02A5
:101FE000FF91EF91BF91AF919F918F917F916F91F1
:101FF0005F914F913F912F910F900FBE0F901F90C7
:1020000018951F920F920FB60F9211242F938F9352
:102010009F93EF93FF93E0910004F091010480817E
:10202000E0910604F091070482FD1BC0908180912D
:1020300009048F5F8F7320910A04821741F0E091A9
:102040000904F0E0E051FC4F958F80930904FF9163
:10205000EF919F918F912F910F900FBE0F901F9036
:1020600018958081F4CF1F920F920FB60F92112412
:102070002F933F938F939F93AF93BF9380919C0334
:1020800090919D03A0919E03B0919F0330919B037B
:1020900023E0230F2D3758F50196A11DB11D209384
:1020A0009B0380939C0390939D03A0939E03B09306
:1020B0009F038091A0039091A103A091A203B091EE
:1020C000A3030196A11DB11D8093A0039093A103CA
:1020D000A093A203B093A303BF91AF919F918F915F
:1020E0003F912F910F900FBE0F901F90189526E8EB
:1020F000230F0296A11DB11DD2CF1F920F920FB6D2
:102100000F9211242F933F934F935F936F937F937D
:102110008F939F93AF93BF93EF93FF938091B900F9
:10212000887F803609F44AC0F0F5883209F4A7C0E8
:1021300018F5803109F49BC0B8F4882309F4F9C07C
:10214000883009F494C0FF91EF91BF91AF919F91B6
:102150008F917F916F915F914F913F912F910F9050
:102160000FBE0F901F901895883109F488C08032F7
:1021700051F780936A0314C0803409F49DC040F481
:102180008033B9F38833F9F680936A0385ECB0C0E5
:10219000803509F485C0883509F496C0883499F6ED
:1021A0000E947909D0CF883909F48CC038F5883776
:1021B00029F050F4883611F0803729F683E08093B7
:1021C000AA031092460357C0883809F47BC08039AF
:1021D00019F0803809F0B7CF80914603803208F0BB
:1021E00071C0E091460381E08E0F80934603809199
:1021F000BB00F0E0EA5DFC4F80833DC0803B39F0DE
:10220000E0F4803A09F479C0883A09F09CCF84E080
:102210008093AA031092250310922403E091A60351
:10222000F091A70309958091240381110FC081E0EB
:10223000809324031092040309C0803C09F4A6CFC4
:10224000883C09F4A3CF883B09F07DCFE0912503BA
:1022500081E08E0F80932503F0E0EC5FFC4F8081DE
:102260008093BB00909125038091240329C0809125
:1022700047038093BB0085EC8093BC0064CF9091B2
:10228000690380916803981758F5E091690381E02C
:102290008E0F80936903F0E0E85BFC4F8081E9CF0B
:1022A000E091690381E08E0F809369038091BB0008
:1022B000F0E0E85BFC4F80839091690380916803B4
:1022C0009817C8F285E8D8CFE091690381E08E0FB6
:1022D000809369038091BB00F0E0E85BFC4F808352
:1022E0008091A90381115CCF81E08093A80384EAE7
:1022F0008093BC001092AA0326CF85EC8093BC008B
:102300001092AA0380914603803230F4E091460394
:10231000F0E0EA5DFC4F10826091460370E0E091CE
:10232000A403F091A50386E293E009951092460379
:102330000ACF10926A0334CF3F924F925F926F920E
:102340007F928F929F92AF92BF92CF92DF92EF9245
:10235000FF920F931F93CF93DF93CDB7DEB72B97E9
:102360000FB6F894DEBF0FBECDBF4C018E010F5FDC
:102370001F4F87E0F80111928A95E9F787E993E00A
:102380009B838A8383E993E09E838D838FE893E028
:10239000998788878091D503811105C00E944B06DB
:1023A00081E08093D5030E94E2040E94470661E029
:1023B00081E20E94FF048FEF8B8741E061E0CE0154
:1023C0000B960E944B050E94E2041A860E94990512
:1023D000892BD1F1CE010A960E947B058A85813A2C
:1023E00099F50E948A05382E882371F1D12CC12CD1
:1023F000482E512CC414D50404F58FEF0E94E80434
:10240000F8018083F12CE12C682E712CE614F7047E
:1024100074F4F801A180B280AE0CBF1C8FEF0E9453
:10242000E804F5018083FFEFEF1AFF0AEFCF8FEF8B
:10243000C81AD80A0D5F1F4FDDCFE3E03E1204C07B
:10244000CE010A960E947B050E9443068091970365
:1024500090919803A0919903B0919A03F40182831B
:102460009383A483B5832B960FB6F894DEBF0FBE7B
:10247000CDBFDF91CF911F910F91FF90EF90DF9033
:10248000CF90BF90AF909F908F907F906F905F9014
:102490004F903F900895E0EFF3E01382128248EEF0
:1024A00053E060E070E0448355836683778385E57D
:1024B00091E09183808385EC90E09587848784EC1C
:1024C00090E09787868780EC90E0918B808B81EC01
:1024D00090E0938B828B82EC90E0958B848B86ECE2
:1024E00090E0978B868B118E128E138E148EEDE8F2
:1024F000F4E083EA91E09183808312821382148254
:102500001582E3E9F4E091838083128213821482BE
:102510001582E9E9F4E091838083128213821482A8
:102520001582EFE9F4E09183808312821382148292
:102530001582E5EAF4E0918380831282138214828B
:102540001582EBEAF4E0138212824483558366839A
:10255000778327E631E031832083E5EEF4E0918351
:1025600080831282138214821582E6EDF4E01382D6
:102570001282448355836683778385E891E0918353
:10258000808384E08487A3ECB4E082E015968C938A
:1025900015979BE016969C931697EFE1F2E0E49175
:1025A0001796EC931797EBE0F2E0E4911896EC9312
:1025B000189740E85EE360E070E01D964D935D93F0
:1025C0006D937C935097E7EBF4E01382128229E736
:1025D00031E03183208397E2948390E19087818773
:1025E000128688E083870895CF93DF93CDB7DEB757
:1025F000E0970FB6F894DEBF0FBECDBF789484B5D8
:10260000826084BD84B5816084BD85B5826085BDEE
:1026100085B5816085BD80916E00816080936E007C
:10262000109281008091810082608093810080916E
:10263000810081608093810080918000816080931F
:1026400080008091B10084608093B1008091B000DF
:1026500081608093B00080917A00846080937A00DA
:1026600080917A00826080937A0080917A00816004
:1026700080937A0080917A00806880937A0010922B
:10268000C100E0910004F091010482E08083E091B8
:10269000FC03F091FD031082E091FE03F091FF0333
:1026A0008FEC808310920804E0910404F0910504FB
:1026B00086E08083E0910204F091030480818061D0
:1026C0008083E0910204F09103048081886080831C
:1026D000E0910204F0910304808180688083E0919E
:1026E0000204F091030480818F7D808362E083E0A7
:1026F0000E943D0362E086E00E943D0362E085E0C7
:102700000E943D0361E08FE00E943D0361E08EE0A6
:102710000E943D0361E080E10E943D0361E08FE0A3
:102720000E940F0360E08EE00E940F0361E080E1F1
:102730000E940F0361E081E10E943D0362E080910D
:10274000C8040E943D030E94D003605D7740810968
:1027500091096093CC047093CD048093CE04909340
:10276000CF0487E38093D5041092AE031092AD039B
:102770001092AC031092AB031092AA0381E08093F5
:10278000A9031092A80361E082E10E940F0361E0B7
:1027900083E10E940F038091B9008E7F8093B9007E
:1027A0008091B9008D7F8093B90088E48093B80050
:1027B00085E48093BC008CE791E09093A70380931D
:1027C000A6038DE791E09093A5038093A403109254
:1027D000BC048091C004823018F098E09093BC044F
:1027E0009091C104992339F0813029F48091BC047F
:1027F00084608093BC0462E370E080E090E00E941B
:102800009E036091C20487EB94E00E942F0A68EE59
:1028100073E080E090E00E949E0360E387EB94E029
:102820000E94250C0BE416E4C8010197F1F760E360
:1028300087EB94E00E94250CC8010197F1F760E353
:1028400087EB94E00E94250C83E592E00197F1F775
:1028500060E287EB94E00E94250C6091BC0460620A
:1028600040E087EB94E00E943E0C84E08093BD043E
:1028700040E06CE087EB94E00E943E0C0E94860CE6
:1028800082E08093BE0440E066E087EB94E00E9423
:102890003E0C40E062E087EB94E00E943E0C8BE34C
:1028A0009FE10197F1F788E08093C20460E087EB35
:1028B00094E00E942F0A0E94860C61E081E10E9450
:1028C0000F030E9498068F3F59F467EE71E080EF86
:1028D00093E00E948C0180EF93E00E94F10AFFCF09
:1028E0008091D503811105C00E944B0681E0809341
:1028F000D5030E94E2040E94470660E087E30E943D
:10290000FF040E94E2041982AE014F5F5F4F6FEA3D
:1029100073E087E30E94B1050E9443066FEA73E00B
:10292000CE0107960E94F20D8B859C85892B41F084
:1029300061EF71E08F8198850E949120892B51F081
:102940006BEC71E080EF93E00E948C0180EF93E0EC
:102950000E94F10A8091D9039091DA03039709F458
:1029600077C46BEA71E080EF93E00E948C0163E131
:1029700071E080EF93E00E94060B80E00E94550C0E
:102980006DE971E087EB94E00E948C0181E00E9488
:10299000550C65E971E087EB94E00E948C0108E03A
:1029A00011E0F80101900020E9F78F010950114072
:1029B000E3E1F1E001900020E9F7CF01845191407B
:1029C0007C018091D503811105C00E944B0681E0F6
:1029D0008093D5030E94E2040E94470662E081E1F1
:1029E0000E94FF0440E06E2D83E191E00E944B05C0
:1029F00041E0602F88E091E00E944B050E94E204D4
:102A00001D861982AE014F5F5F4FBE01635F7F4F2E
:102A100081E10E94B105892B11F48FEF8D870E940F
:102A200043068D8514E08F3F71F00AE068E873E19A
:102A300080E090E00E949E030E949806182F8D7FF0
:102A400011F4015099F7812F90E09093DA0380936D
:102A5000D90360ED77E080E090E00E949E031330A0
:102A600009F4F6C360E081E10E940F03CE010796EE
:102A70000E94070E88E199E20FB6F894A89580931A
:102A800060000FBE90936000DD24D39492E0E92EA5
:102A9000F12C00E010E0A89580913F019091400159
:102AA000A0914101B09142014091EC035091ED039E
:102AB0006091EE037091EF034C015D01841A950A59
:102AC000A60AB70AB501A401403D5740610571054A
:102AD00008F4ACC08093EC039093ED03A093EE0355
:102AE000B093EF030E94DC03882349F08091C9046E
:102AF0008B3028F08D3040F085518230D0F160E08D
:102B000070E080EC9FE71CC06091C40470E090E02E
:102B100080E00E94B81C2DEC3CEC4CEC5DE30E9484
:102B2000171D4B015C016091C30470E090E080E0F0
:102B30000E94B81C9B01AC01C501B4010E940D1E8E
:102B40006093E0037093E1038093E2039093E303C7
:102B50000E94DC03882341F08091C9048C3009F481
:102B600000C3C8F48B3081F160E070E080EC9FE737
:102B700053C06091C3047091C404762767277627F9
:102B800090E080E00E94B61C2DEC3CEC4CEC5DE348
:102B90000E94171DD5CF8551823030F7C090C504F3
:102BA0006C2D70E0762F662766277F778091C604AC
:102BB000682B90E080E00E94B61C2DEC3CEC4CECC5
:102BC0005DE30E94171DE9C26091C50470E090E0CA
:102BD00080E00E94B61C4B015C01C090C604C7FE99
:102BE0000AC0AC019B0160E070E080E89FEB0E94AE
:102BF0000C1E4B015C016C2D6F7070E090E080E06A
:102C00000E94B81C2DEC3CEC4CEC5DE30E94171DBF
:102C1000A50194010E940D1E6093DC037093DD03F7
:102C20008093DE039093DF030E940C0E80913F019E
:102C300090914001A0914101B09142014091E40383
:102C40005091E5036091E6037091E7034C015D014B
:102C5000841A950AA60AB70AB501A4014031574261
:102C60006105710508F4B2C08093E4039093E50315
:102C7000A093E603B093E703C090DB03C110A6C0A6
:102C80008091D9039091DA03039709F09FC0A09037
:102C90003D01B0903E0161E272E0CE010D960E94CE
:102CA000F20D6FE272E080EF93E00E94060B40E5C8
:102CB00050E066E271E086ED94E00E94200F892BDF
:102CC00009F4A2C261E572E080EF93E00E94060B76
:102CD00065E672E0CE0101960E94F20DBE01635FCF
:102CE0007F4FCE0101960E94310D6AE672E00E948C
:102CF0001B0D0E94F50ACE0101960E94070E66E2A6
:102D000071E0CE0101960E94F20D64E772E0CE01FF
:102D100007960E94F20DBE016F5F7F4FCE010796AE
:102D20000E94310D0E94F50ACE0107960E94070EFF
:102D3000CE0101960E94070E6BE772E086ED94E0EB
:102D40000E94060B86ED94E00E94F10A67EA71E0AA
:102D5000CE0107960E94F20D61E081E10E940F030F
:102D600086ED94E00E94500781111DC28F819885E5
:102D7000009709F445C20E940E1A9B012F50310999
:102D80005B012A31310520F0A0903D01B0903E0159
:102D900086ED94E00E94640760E081E10E940F03E9
:102DA00080EF93E00E94F10A6DE872E080EF93E01B
:102DB0000E94060BCE0107960E94070ECE010D96CB
:102DC0000E94070EB0923E01A0923D01A89560912D
:102DD0003D0170913E01072E000C880B990B0E945B
:102DE000B81C2091DC033091DD034091DE0350914B
:102DF000DF030E94791E18160CF00DC260E08FE010
:102E00000E940F0360E080E10E940F0361E08EE00A
:102E10000E940F0383E00E94E6025C01892BB1F45B
:102E200020912001309121012130310579F4D09297
:102E3000D6038091D7039091D803009709F0F5C18C
:102E40003093D8032093D7030E940C0EB092210137
:102E5000A092200186E00E94E6025C0185E00E94CB
:102E6000E6024C01A114B104D1F4809124019091A7
:102E700025010197A1F48091D7039091D803892B64
:102E800071F480913D0190913E01883291053CF4AE
:102E9000D092DB03019690933E0180933D01811413
:102EA0009104D1F480912201909123010197A1F422
:102EB0008091D7039091D803892B71F480913D01C3
:102EC00090913E01803191053CF0D092DB03019757
:102ED00090933E0180933D010E940C0EB09225011B
:102EE000A0922401909223018092220180913F01BF
:102EF00090914001A0914101B09142014091E803BD
:102F00005091E9036091EA037091EB034C015D017C
:102F1000841A950AA60AB70AB501A40140365A4E8A
:102F20006105710508F407C18093E8039093E903F4
:102F3000A093EA03B093EB038091D9039091DA0355
:102F4000039709F0F8C060913D0170913E01CE01F8
:102F500001960E94A30D6CEA72E0CE0107960E94D2
:102F6000F20D4091E0035091E1036091E203709112
:102F7000E303CE010D960E94650D68EB72E0CE0171
:102F800043960E94F20D4091DC035091DD03609165
:102F9000DE037091DF03CE0149960E94650D65EC5A
:102FA00072E0CE0185960E94F20D18A21F8E1AA221
:102FB00019A21CA21BA2BE016B5D7F4FCE014F96D2
:102FC0000E94DB0DBE01675E7F4FCE014F960E94CF
:102FD000310DBE016D5E7F4F0E94310DBE01635FFA
:102FE0007F4F0E94310DBE01695F7F4F0E94310DFE
:102FF000BE016F5F7F4F0E94310D1CA61BA61EA64F
:103000001DA618AA1FA6BC01CE018B960E94DB0D3F
:10301000CE014F960E94070ECE0185960E94070EA4
:10302000CE0149960E94070ECE0143960E94070EDC
:10303000CE010D960E94070ECE0107960E94070E44
:10304000CE0101960E94070E6FE272E080EF93E0DE
:103050000E94060B40E550E066E271E086ED94E0E8
:103060000E94200F892B09F4ECC061E572E080EF2B
:1030700093E00E94060B65E672E0CE0101960E9485
:10308000F20DBE01655D7F4FCE0101960E94310DAC
:103090006AE672E00E941B0D0E94F50ACE010196BD
:1030A0000E94070E66E271E0CE0101960E94F20DC9
:1030B00064E772E0CE0107960E94F20DBE016F5FD9
:1030C0007F4FCE0107960E94310D0E94F50ACE0176
:1030D00007960E94070ECE0101960E94070E6BE72D
:1030E00072E086ED94E00E94060B86ED94E00E946B
:1030F000F10A61E081E10E940F0386ED94E00E94F5
:1031000050078111FACF86ED94E00E94640760E0D9
:1031100081E10E940F0380EF93E00E94F10A6DE8C5
:1031200072E080EF93E00E94060B1092DB03CE0169
:103130008B960E94070E0E94D00360933F0170930C
:10314000400180934101909342010115110509F45A
:10315000A2CC0E941A02882309F496CC0E94000097
:1031600093CCC090C5046C2D70E090E080E00E948C
:10317000B61C4B015C016091C6046F7070E090E07A
:1031800080E00E94B81C2DEC3CEC4CEC5DE30E940E
:10319000171DA50194010E940D1EC7FE3DCD90583C
:1031A0003BCDCC24C39486ED94E00E947E08892B0D
:1031B00009F4D6CD86ED94E00E945A08B82ECC20B2
:1031C000D9F01A8219821C821B821E821D82BE01C6
:1031D000695F7F4FCE0101960E94DB0D6B2DCE0102
:1031E00001960E94FD0CBC01CE0107960E94DB0DEA
:1031F000CE0101960E94070E8FE3B812D4CFD1CF33
:1032000060E070E0CB01B9CD6AE972E080EF93E055
:103210000E94060BD3CD61E08FE00E940F0361E0B6
:1032200080E10E940F0360E0F2CD019729F4F09253
:10323000D803E092D70308CE1092D8031092D70398
:1032400003CE6AE972E080EF93E00E94060B6FCF35
:103250006DED72E080EF93E00E94960A8091D503B5
:10326000811105C00E944B0681E08093D5030E9426
:10327000E2040E94470661E083E20E94FF048FEFB0
:103280008D8741E061E0CE010D960E944B050E94C2
:10329000E2041982AE014F5F5F4F65EB73E083E29A
:1032A0000E94B1050E94430665EB73E080EF93E056
:1032B0000E94060B83EA91E09A8389831B821C8219
:1032C0001D821E82CE0101960E949C1167EF71E063
:1032D00080EF93E00E94960A60EF73E0CE010196C2
:1032E0000E941D0B80EF93E00E94F10A8091D503AC
:1032F000811105C00E944B0681E08093D5030E9496
:10330000E2040E94470661E085E20E94FF048FEF1D
:10331000898F41E061E0CE0149960E944B050E94F1
:10332000E2041B8A1D861E861F86188AAE014D5E2A
:103330005F4FBE01635F7F4F85E20E94B1050E942F
:103340004306CD84DE84EF84F88864E072E080EF89
:1033500093E00E94960A2AE0B701A601F7FE0DC08D
:103360006DE280EF93E00E94500244275527BA0196
:103370004C195D096E097F092AE080EF93E00E94F5
:10338000A50A6CE172E080EF93E00E94060B0E94B8
:10339000860C80E00E94550C6AE871E087EB94E0AF
:1033A0000E948C0181E00E94550C83EA91E09A838F
:1033B00089831B821C821D821E82CE0101960E947F
:1033C0009C1167EB74E0CE0101960E941D0B60ED2D
:1033D00077E080E090E00E949E030E94860C42CB42
:1033E000EF920F931F93CF93DF93E80134E047FDF3
:1033F00034E1042E000C550B57FF03C05195419545
:103400005109E32E022F242FAE010E946F1ACE0124
:10341000DF91CF911F910F91EF9008951F93FC01C1
:1034200099278827BC01E89411911032E9F31930EB
:1034300010F01E30C8F31B3251F01D3249F468946D
:1034400006C00E94401A610F711D811D911D1191CE
:1034500010531A30B0F33EF49095809570956195B5
:103460007F4F8F4F9F4F1F910895BB274A3031F4F4
:10347000992322F4BDE2909581959F4F0C94561AA2
:10348000592F482F372F262F660F771F881F991F18
:10349000660F771F881F991F620F731F841F951F68
:1034A000660F771F881F991F0895BB27FB015527BB
:1034B000AA27880F991FAA1FA41710F0A41B839591
:1034C0005051B9F7A05DAA3308F0A95DA193009708
:1034D00079F7B111B1931192CB010C94A61CA9E01C
:1034E000B0E0E5E7FAE10C94DB1D6A01F22EB02EA4
:1034F000102FFBE3AF2EA01608F41BE31F5F012F74
:1035000027E0AE014F5F5F4F0E94CE1BBC01898157
:10351000982F9970913009F43FC09BE2E1FC04C000
:103520009E2D9170E0FC3AC05E2D5071E82FE8703E
:1035300083FF46C084E0911101C083E0EF2DE81BBA
:103540008F1508F0E0E0D6018E2F20E2552351F1CF
:10355000992329F0D6019C93C60101966C0196012E
:103560002D5F3F4FE2FE24C08EE4D6018C9391E4A0
:1035700011969C93119712968C93D9018E2F90E2FD
:1035800081111BC0E20FF32FF11D10828EEF9FEF10
:103590002996ECE00C94F71D9DE2C6CF90E2C4CFD3
:1035A0002D9381508111FCCFCE0ED11CE0E0D0CF05
:1035B0008EE6D6018C9391E6DBCF9D938150E0CFD0
:1035C000482F447082FF3DC084E0911101C083E028
:1035D0008F1510F4EF2DE81BD6018E2F20E2552316
:1035E00009F1992329F0D6019C93C60101966C013B
:1035F00096012D5F3F4FE2FE1BC089E4D6018C93FC
:103600008EE411968C93119786E412968C93D901CF
:103610008E2F90E2882309F4B5CF9D938150FACF85
:103620002D9381508111FCCFCE0ED11CE0E0D9CF7B
:1036300089E6D6018C938EE611968C93119786E6D7
:10364000E4CF9B0177FF02C030E020E0A1E0B0E0D2
:10365000911102C0B0E0A0E0F9013196AE0FBF1F9A
:103660008B2C912CBB2009F461C05401EFEFAE1AF2
:10367000BE0AAA0DBB1DFA161B0619F014F04F2D39
:103680004A1B511188C0E3FC59C07601A42FB0E257
:10369000A1114FC0C40ED11C992309F45BC040E0B6
:1036A000D6011196F60190836D01552309F448C0A7
:1036B000012F060F9A81582F507184FF03C0913358
:1036C00009F4015010160CF047C0093008F008E06A
:1036D000EEE2FE2E5B01A01AB1088501919481945F
:1036E00091082F3F320729F4D601FC92F60131965A
:1036F0006F016217730794F1021713077CF5DB0162
:10370000A21BB30BAA24A394B12CAC0EBD1EAA0D10
:10371000BB1D11968C9121503109D60111962815A7
:103720003905F4F0F60180836D01DBCFB12CA12CBB
:10373000A0CFF701B1937F01A150AACF9111B0CFD3
:10374000D601942F50E302C05D9391509111FCCFAC
:10375000C40ED11C40E0ACCF01E0BACF80E3DBCF98
:103760006217730731F4963388F4953311F45523B7
:1037700069F0F6018083FD01842F90E2811108C079
:10378000A40FB11D1C9290E080E002CF81E3F1CF45
:1037900091938150F3CF911183CF8ACF283008F0D5
:1037A00027E03327DA01990F311D87FD91600096DC
:1037B0006105710539F432602E5F3D9330E32A953F
:1037C000E1F708959F3F30F080387105610509F0F9
:1037D0003C5F3C5F3D93913008F08068911DDF9322
:1037E000CF931F930F93FF92EF92192F987F969587
:1037F000E92F96959695E90FFF27EE53FF4F9927EE
:103800003327EE24FF24A701E701059008940794CD
:1038100028F4360FE71EF81E491F511D660F771F4B
:10382000881F991F0694A1F70590079428F4E70EC6
:10383000F81E491F561FC11D770F881F991F661F4D
:103840000694A1F70590079428F4F80E491F561F17
:10385000C71FD11D880F991F661F771F0694A1F7F8
:103860000590079420F4490F561FC71FD81F990FC2
:10387000661F771F881F0694A9F78491109517700B
:1038800041F0D695C79557954795F794E7941A95C3
:10389000C1F7E8E6F0E068941590159135916591CF
:1038A000959105907FE27395E118F10A430B560B51
:1038B000C90BD009C0F7E10CF11E431F561FC91FE9
:1038C000D01D7EF4703311F48A95E6CFE894015050
:1038D00030F0080F0AF40027021708F4202F239570
:1038E000022F7A3328F079E37D932A95E9F710C007
:1038F0007D932A9589F60694979567953795179540
:103900001794E118F10A430B560BC90BD00998F034
:1039100023957E9173957A3308F070E37C9320139E
:10392000B8F77E9170617D9330F0839571E37D935C
:1039300070E32A95E1F71124EF90FF900F911F910A
:10394000CF91DF91992787FD90950895DC01FC01C7
:10395000672F71917723E1F7329704C07C916D93C3
:1039600070836291AE17BF07C8F30895E89409C049
:1039700097FB3EF490958095709561957F4F8F4FA2
:103980009F4F9923A9F0F92F96E9BB279395F695B8
:10399000879577956795B795F111F8CFFAF4BB0F36
:1039A00011F460FF1BC06F5F7F4F8F4F9F4F16C09A
:1039B000882311F096E911C0772321F09EE8872F24
:1039C000762F05C0662371F096E8862F70E060E0E0
:1039D0002AF09A95660F771F881FDAF7880F969559
:1039E000879597F90895990F0008550FAA0BE0E8FD
:1039F000FEEF16161706E807F907C0F012161306B1
:103A0000E407F50798F0621B730B840B950B39F4F0
:103A10000A2661F0232B242B252B21F408950A2656
:103A200009F4A140A6958FEF811D811D08950E9484
:103A30002A1D0C949B1D0E948D1D38F00E94941D20
:103A400020F0952311F00C94841D0C948A1D1124F0
:103A50000C94CF1D0E94AC1D70F3959FC1F3950F80
:103A600050E0551F629FF001729FBB27F00DB11D02
:103A7000639FAA27F00DB11DAA1F649F6627B00D92
:103A8000A11D661F829F2227B00DA11D621F739F7B
:103A9000B00DA11D621F839FA00D611D221F749F89
:103AA0003327A00D611D231F849F600D211D822FD0
:103AB000762F6A2F11249F5750409AF0F1F08823F7
:103AC0004AF0EE0FFF1FBB1F661F771F881F915024
:103AD0005040A9F79E3F510580F00C94841D0C9432
:103AE000CF1D5F3FE4F3983ED4F3869577956795B5
:103AF000B795F795E7959F5FC1F7FE2B880F911D4E
:103B00009695879597F9089597F99F6780E870E0F3
:103B100060E008959FEF80EC089500240A94161643
:103B2000170618060906089500240A9412161306AB
:103B3000140605060895092E0394000C11F4882339
:103B400052F0BB0F40F4BF2B11F460FF04C06F5F55
:103B50007F4F8F4F9F4F089557FD9058440F551F2B
:103B600059F05F3F71F04795880F97FB991F61F0FF
:103B70009F3F79F087950895121613061406551F76
:103B8000F2CF4695F1DF08C0161617061806991FE2
:103B9000F1CF86957105610508940895E894BB27D7
:103BA00066277727CB0197F908952F923F924F927E
:103BB0005F926F927F928F929F92AF92BF92CF92BD
:103BC000DF92EF92FF920F931F93CF93DF93CDB7C6
:103BD000DEB7CA1BDB0B0FB6F894DEBF0FBECDBF3E
:103BE00009942A88398848885F846E847D848C840F
:103BF0009B84AA84B984C884DF80EE80FD800C8118
:103C00001B81AA81B981CE0FD11D0FB6F894DEBFFA
:103C10000FBECDBFED0108955058BB27AA270E94C3
:103C2000241E0C949B1D0E948D1D38F00E94941D33
:103C300020F039F49F3F19F426F40C948A1D0EF4F9
:103C4000E095E7FB0C94841DE92F0E94AC1D58F30E
:103C5000BA17620773078407950720F079F4A6F571
:103C60000C94CE1D0EF4E0950B2EBA2FA02D0B0157
:103C7000B90190010C01CA01A0011124FF27591BB1
:103C800099F0593F50F4503E68F11A16F040A22FB7
:103C9000232F342F4427585FF3CF46953795279528
:103CA000A795F0405395C9F77EF41F16BA0B620B27
:103CB000730B840BBAF09150A1F0FF0FBB1F661F6E
:103CC000771F881FC2F70EC0BA0F621F731F841FB1
:103CD00048F4879577956795B795F7959E3F08F0D7
:103CE000B0CF9395880F08F09927EE0F9795879599
:103CF00008950E94F31C08F48FEF0895A1E21A2E94
:103D0000AA1BBB1BFD010DC0AA1FBB1FEE1FFF1F7F
:103D1000A217B307E407F50720F0A21BB30BE40BCF
:103D2000F50B661F771F881F991F1A9469F7609516
:103D30007095809590959B01AC01BD01CF010895D0
:103D4000EE0FFF1F0590F491E02D09940F931F9340
:103D5000CF93DF938230910510F482E090E0E09100
:103D6000ED04F091EE0430E020E0B0E0A0E0309708
:103D700099F42115310509F44AC0281B390B243068
:103D80003105D8F58A819B816115710589F1FB01A7
:103D900093838283FE0111C040815181028113818E
:103DA00048175907E0F04817590799F4109761F040
:103DB00012960C93129713961C933296CF01DF91B3
:103DC000CF911F910F9108950093ED041093EE048D
:103DD000F4CF2115310551F04217530738F0A901EE
:103DE000DB019A01BD01DF01F801C1CFEF01F9CF7D
:103DF0009093EE048093ED04CDCFFE01E20FF31F0C
:103E0000819391932250310939832883D7CF209110
:103E1000EB043091EC04232B41F4209145013091C7
:103E200046013093EC042093EB0420914301309140
:103E300044012115310541F42DB73EB740914701AA
:103E400050914801241B350BE091EB04F091EC04F8
:103E5000E217F307A0F42E1B3F0B2817390778F061
:103E6000AC014E5F5F4F2417350748F04E0F5F1FC0
:103E70005093EC044093EB04819391939FCFF0E037
:103E8000E0E09CCFCF93DF930097E9F0FC013297FD
:103E900013821282A091ED04B091EE04ED0130E0A6
:103EA00020E01097A1F420813181820F931F20918F
:103EB000EB043091EC042817390709F061C0F09346
:103EC000EC04E093EB04DF91CF910895EA01CE1763
:103ED000DF07E8F54A815B819E0141155105B1F785
:103EE000E901FB83EA8349915991C40FD51FEC176F
:103EF000FD0761F4808191810296840F951FE9018D
:103F000099838883828193819B838A83F0E0E0E0B8
:103F100012968D919C9113970097B9F52D913C9134
:103F20001197CD010296820F931F2091EB043091DF
:103F3000EC042817390739F6309751F51092EE0442
:103F40001092ED04B093EC04A093EB04BCCFD383A8
:103F5000C28340815181840F951FC817D90761F42E
:103F60004E5F5F4F88819981480F591F518340836D
:103F70008A819B81938382832115310509F0B0CF1B
:103F8000F093EE04E093ED049ECFFD01DC01C0CF81
:103F900013821282D7CFB0E0A0E0E1EDFFE10C94F4
:103FA000D71D8C01009751F4CB010E94A61E8C01F5
:103FB000C801CDB7DEB7E0E10C94F31DFC01E60FBC
:103FC000F71F9C0122503109E217F30708F49DC046
:103FD000D901CD91DC911197C617D70798F0C5305C
:103FE000D10530F3CE0104978617970708F3C61B57
:103FF000D70B2297C193D1936D937C93CF010E94ED
:10400000421FD6CF5B01AC1ABD0A4C018C0E9D1E1F
:10401000A091ED04B091EE04512C412CF12CE12C37
:10402000109731F58091EB049091EC048815990577
:1040300009F05CC04616570608F058C0809143014D
:1040400090914401009741F48DB79EB7409147018C
:1040500050914801841B950BE817F90708F055C0EB
:10406000F093EC04E093EB04F90171836083A0CF3B
:104070008D919C91119712966C90129713967C904B
:104080001397A815B90559F56C0142E0C40ED11C6F
:10409000CA14DB0420F1AC014A195B09DA0112965B
:1040A000159780F06282738251834083D9016D93AA
:1040B0007C93E114F10471F0D7011396FC93EE9315
:1040C000129776CF22968C0F9D1FF90191838083E2
:1040D000F301EFCFF093EE04E093ED0469CF4816BF
:1040E000590608F42C017D01D3019ACFCB010E941F
:1040F000A61E7C01009749F0AE01B8010E948820FD
:10410000C8010E94421F870153CF10E000E050CF4A
:10411000FB01DC0102C001900D9241505040D8F7E4
:104120000895FB01DC018D91019080190110D9F3F4
:10413000990B0895FB01DC0101900D920020E1F73D
:064140000895F894FFCF82
:10414600FFFFFFFFFFFFFFFF4E49454D414841532B
:104156004C410046756E426F78322D454636360024
:104166000100010001007777772E706A3431343907
:10417600312E7A75742E6564752E706C001300A04E
:104186008601000000EF0480000000400014005487
:1041960000000000005002B001DD019D020E02EC9D
:1041A60001000200000000000AD309930ACB07CCE5
:1041B60009B909AA0900000000910CB001930A7818
:1041C60009000000006209BC08930ACB077E085A62
:1041D60008CC07670B200FF0076407500748070055
:1041E6000000001D0B0D0A004E6F20536F636B65B8
:1041F6007420617661696C61626C650054656D70EE
:104206003A20005A6164616E613A200057696C6712
:104216003A20002025524800537461747573205764
:10422600694669004F4B004552524F5200202543C4
:1042360000312E312E30004950204164647265737E
:10424600733A20007369676E616C20737472656ED1
:10425600677468202852535349293A002064426DF6
:10426600002F67657456616C75652E706870000A5C
:104276005374617274696E6720636F6E6E656374E2
:10428600696F6E20746F207365727665722E2E2E9E
:1042960000636F6E6E656374656420746F2073656A
:1042A6007276657200474554200020485454502FBA
:1042B600312E3100486F73743A2000436F6E6E657D
:1042C6006374696F6E3A20636C6F7365006469731B
:1042D600636F6E6E656374656400636F6E6E6563AF
:1042E60074696F6E206661696C6564002675737407
:1042F6006177696F6E613D002677696C676F746ED2
:104306006F73633D002F696E6465782E7068703F29
:1043160074656D70657261747572613D00535349C1
:04432600443A2000F5
:00000001FF
